{
	"contracts/Twitter.sol": {
		"Twitter": {
			"abi": [
				{
					"inputs": [],
					"stateMutability": "nonpayable",
					"type": "constructor"
				},
				{
					"anonymous": false,
					"inputs": [
						{
							"indexed": true,
							"internalType": "uint256",
							"name": "id",
							"type": "uint256"
						},
						{
							"indexed": true,
							"internalType": "address",
							"name": "author",
							"type": "address"
						},
						{
							"indexed": false,
							"internalType": "string",
							"name": "content",
							"type": "string"
						},
						{
							"indexed": false,
							"internalType": "uint256",
							"name": "timestamp",
							"type": "uint256"
						}
					],
					"name": "TweetCreated",
					"type": "event"
				},
				{
					"anonymous": false,
					"inputs": [
						{
							"indexed": true,
							"internalType": "address",
							"name": "liker",
							"type": "address"
						},
						{
							"indexed": true,
							"internalType": "address",
							"name": "tweetAuthor",
							"type": "address"
						},
						{
							"indexed": true,
							"internalType": "uint256",
							"name": "tweetId",
							"type": "uint256"
						},
						{
							"indexed": false,
							"internalType": "uint256",
							"name": "newLikeCount",
							"type": "uint256"
						}
					],
					"name": "TweetLiked",
					"type": "event"
				},
				{
					"anonymous": false,
					"inputs": [
						{
							"indexed": true,
							"internalType": "address",
							"name": "unliker",
							"type": "address"
						},
						{
							"indexed": true,
							"internalType": "address",
							"name": "tweetAuthor",
							"type": "address"
						},
						{
							"indexed": true,
							"internalType": "uint256",
							"name": "tweetId",
							"type": "uint256"
						},
						{
							"indexed": false,
							"internalType": "uint256",
							"name": "newlikeCount",
							"type": "uint256"
						}
					],
					"name": "TweetUnliked",
					"type": "event"
				},
				{
					"inputs": [],
					"name": "MAX_TWEET_LENGTH",
					"outputs": [
						{
							"internalType": "uint16",
							"name": "",
							"type": "uint16"
						}
					],
					"stateMutability": "view",
					"type": "function"
				},
				{
					"inputs": [
						{
							"internalType": "uint16",
							"name": "newTweetLength",
							"type": "uint16"
						}
					],
					"name": "changeTweetLength",
					"outputs": [],
					"stateMutability": "nonpayable",
					"type": "function"
				},
				{
					"inputs": [
						{
							"internalType": "string",
							"name": "_tweet",
							"type": "string"
						}
					],
					"name": "createTweet",
					"outputs": [],
					"stateMutability": "nonpayable",
					"type": "function"
				},
				{
					"inputs": [
						{
							"internalType": "address",
							"name": "_owner",
							"type": "address"
						}
					],
					"name": "getAllTweets",
					"outputs": [
						{
							"components": [
								{
									"internalType": "uint256",
									"name": "id",
									"type": "uint256"
								},
								{
									"internalType": "address",
									"name": "author",
									"type": "address"
								},
								{
									"internalType": "string",
									"name": "content",
									"type": "string"
								},
								{
									"internalType": "uint256",
									"name": "timestamp",
									"type": "uint256"
								},
								{
									"internalType": "uint256",
									"name": "likes",
									"type": "uint256"
								}
							],
							"internalType": "struct Twitter.Tweet[]",
							"name": "",
							"type": "tuple[]"
						}
					],
					"stateMutability": "view",
					"type": "function"
				},
				{
					"inputs": [
						{
							"internalType": "uint256",
							"name": "_i",
							"type": "uint256"
						}
					],
					"name": "getTweet",
					"outputs": [
						{
							"components": [
								{
									"internalType": "uint256",
									"name": "id",
									"type": "uint256"
								},
								{
									"internalType": "address",
									"name": "author",
									"type": "address"
								},
								{
									"internalType": "string",
									"name": "content",
									"type": "string"
								},
								{
									"internalType": "uint256",
									"name": "timestamp",
									"type": "uint256"
								},
								{
									"internalType": "uint256",
									"name": "likes",
									"type": "uint256"
								}
							],
							"internalType": "struct Twitter.Tweet",
							"name": "",
							"type": "tuple"
						}
					],
					"stateMutability": "view",
					"type": "function"
				},
				{
					"inputs": [
						{
							"internalType": "address",
							"name": "author",
							"type": "address"
						},
						{
							"internalType": "uint256",
							"name": "id",
							"type": "uint256"
						}
					],
					"name": "likeTweet",
					"outputs": [],
					"stateMutability": "nonpayable",
					"type": "function"
				},
				{
					"inputs": [],
					"name": "owner",
					"outputs": [
						{
							"internalType": "address",
							"name": "",
							"type": "address"
						}
					],
					"stateMutability": "view",
					"type": "function"
				},
				{
					"inputs": [
						{
							"internalType": "address",
							"name": "",
							"type": "address"
						},
						{
							"internalType": "uint256",
							"name": "",
							"type": "uint256"
						}
					],
					"name": "tweets",
					"outputs": [
						{
							"internalType": "uint256",
							"name": "id",
							"type": "uint256"
						},
						{
							"internalType": "address",
							"name": "author",
							"type": "address"
						},
						{
							"internalType": "string",
							"name": "content",
							"type": "string"
						},
						{
							"internalType": "uint256",
							"name": "timestamp",
							"type": "uint256"
						},
						{
							"internalType": "uint256",
							"name": "likes",
							"type": "uint256"
						}
					],
					"stateMutability": "view",
					"type": "function"
				},
				{
					"inputs": [
						{
							"internalType": "address",
							"name": "author",
							"type": "address"
						},
						{
							"internalType": "uint256",
							"name": "id",
							"type": "uint256"
						}
					],
					"name": "unlikeTweet",
					"outputs": [],
					"stateMutability": "nonpayable",
					"type": "function"
				}
			],
			"devdoc": {
				"kind": "dev",
				"methods": {},
				"version": 1
			},
			"evm": {
				"assembly": "    /* \"contracts/Twitter.sol\":58:2307  contract Twitter {... */\n  mstore(0x40, 0x80)\n    /* \"contracts/Twitter.sol\":119:122  280 */\n  0x0118\n    /* \"contracts/Twitter.sol\":86:122  uint16 public MAX_TWEET_LENGTH = 280 */\n  0x00\n  dup1\n  0x0100\n  exp\n  dup2\n  sload\n  dup2\n  0xffff\n  mul\n  not\n  and\n  swap1\n  dup4\n  0xffff\n  and\n  mul\n  or\n  swap1\n  sstore\n  pop\n    /* \"contracts/Twitter.sol\":713:761  constructor() {... */\n  callvalue\n  dup1\n  iszero\n  tag_1\n  jumpi\n  0x00\n  dup1\n  revert\ntag_1:\n  pop\n    /* \"contracts/Twitter.sol\":744:754  msg.sender */\n  caller\n    /* \"contracts/Twitter.sol\":737:742  owner */\n  0x02\n  0x00\n    /* \"contracts/Twitter.sol\":737:754  owner= msg.sender */\n  0x0100\n  exp\n  dup2\n  sload\n  dup2\n  0xffffffffffffffffffffffffffffffffffffffff\n  mul\n  not\n  and\n  swap1\n  dup4\n  0xffffffffffffffffffffffffffffffffffffffff\n  and\n  mul\n  or\n  swap1\n  sstore\n  pop\n    /* \"contracts/Twitter.sol\":58:2307  contract Twitter {... */\n  dataSize(sub_0)\n  dup1\n  dataOffset(sub_0)\n  0x00\n  codecopy\n  0x00\n  return\nstop\n\nsub_0: assembly {\n        /* \"contracts/Twitter.sol\":58:2307  contract Twitter {... */\n      mstore(0x40, 0x80)\n      callvalue\n      dup1\n      iszero\n      tag_1\n      jumpi\n      0x00\n      dup1\n      revert\n    tag_1:\n      pop\n      jumpi(tag_2, lt(calldatasize, 0x04))\n      shr(0xe0, calldataload(0x00))\n      dup1\n      0x63378216\n      gt\n      tag_12\n      jumpi\n      dup1\n      0x63378216\n      eq\n      tag_7\n      jumpi\n      dup1\n      0x6eb10797\n      eq\n      tag_8\n      jumpi\n      dup1\n      0x7c9cd2bc\n      eq\n      tag_9\n      jumpi\n      dup1\n      0x8da5cb5b\n      eq\n      tag_10\n      jumpi\n      dup1\n      0xc3ad5ecb\n      eq\n      tag_11\n      jumpi\n      jump(tag_2)\n    tag_12:\n      dup1\n      0x05a1b4a9\n      eq\n      tag_3\n      jumpi\n      dup1\n      0x12e7ee1c\n      eq\n      tag_4\n      jumpi\n      dup1\n      0x3d9b569f\n      eq\n      tag_5\n      jumpi\n      dup1\n      0x58bfa4ab\n      eq\n      tag_6\n      jumpi\n    tag_2:\n      0x00\n      dup1\n      revert\n        /* \"contracts/Twitter.sol\":273:315  mapping(address => Tweet[] ) public tweets */\n    tag_3:\n      tag_13\n      0x04\n      dup1\n      calldatasize\n      sub\n      dup2\n      add\n      swap1\n      tag_14\n      swap2\n      swap1\n      tag_15\n      jump\t// in\n    tag_14:\n      tag_16\n      jump\t// in\n    tag_13:\n      mload(0x40)\n      tag_17\n      swap6\n      swap5\n      swap4\n      swap3\n      swap2\n      swap1\n      tag_18\n      jump\t// in\n    tag_17:\n      mload(0x40)\n      dup1\n      swap2\n      sub\n      swap1\n      return\n        /* \"contracts/Twitter.sol\":2070:2182  function getAllTweets(address _owner) public view returns(Tweet[] memory) {... */\n    tag_4:\n      tag_19\n      0x04\n      dup1\n      calldatasize\n      sub\n      dup2\n      add\n      swap1\n      tag_20\n      swap2\n      swap1\n      tag_21\n      jump\t// in\n    tag_20:\n      tag_22\n      jump\t// in\n    tag_19:\n      mload(0x40)\n      tag_23\n      swap2\n      swap1\n      tag_24\n      jump\t// in\n    tag_23:\n      mload(0x40)\n      dup1\n      swap2\n      sub\n      swap1\n      return\n        /* \"contracts/Twitter.sol\":1633:1951  function unlikeTweet(address author, uint256 id) external {... */\n    tag_5:\n      tag_25\n      0x04\n      dup1\n      calldatasize\n      sub\n      dup2\n      add\n      swap1\n      tag_26\n      swap2\n      swap1\n      tag_15\n      jump\t// in\n    tag_26:\n      tag_27\n      jump\t// in\n    tag_25:\n      stop\n        /* \"contracts/Twitter.sol\":2188:2305  function changeTweetLength(uint16 newTweetLength) public onlyOwner {... */\n    tag_6:\n      tag_28\n      0x04\n      dup1\n      calldatasize\n      sub\n      dup2\n      add\n      swap1\n      tag_29\n      swap2\n      swap1\n      tag_30\n      jump\t// in\n    tag_29:\n      tag_31\n      jump\t// in\n    tag_28:\n      stop\n        /* \"contracts/Twitter.sol\":1382:1627  function likeTweet(address author, uint256 id) external {... */\n    tag_7:\n      tag_32\n      0x04\n      dup1\n      calldatasize\n      sub\n      dup2\n      add\n      swap1\n      tag_33\n      swap2\n      swap1\n      tag_15\n      jump\t// in\n    tag_33:\n      tag_34\n      jump\t// in\n    tag_32:\n      stop\n        /* \"contracts/Twitter.sol\":86:122  uint16 public MAX_TWEET_LENGTH = 280 */\n    tag_8:\n      tag_35\n      tag_36\n      jump\t// in\n    tag_35:\n      mload(0x40)\n      tag_37\n      swap2\n      swap1\n      tag_38\n      jump\t// in\n    tag_37:\n      mload(0x40)\n      dup1\n      swap2\n      sub\n      swap1\n      return\n        /* \"contracts/Twitter.sol\":870:1376  function createTweet(string memory _tweet) public {... */\n    tag_9:\n      tag_39\n      0x04\n      dup1\n      calldatasize\n      sub\n      dup2\n      add\n      swap1\n      tag_40\n      swap2\n      swap1\n      tag_41\n      jump\t// in\n    tag_40:\n      tag_42\n      jump\t// in\n    tag_39:\n      stop\n        /* \"contracts/Twitter.sol\":321:341  address public owner */\n    tag_10:\n      tag_43\n      tag_44\n      jump\t// in\n    tag_43:\n      mload(0x40)\n      tag_45\n      swap2\n      swap1\n      tag_46\n      jump\t// in\n    tag_45:\n      mload(0x40)\n      dup1\n      swap2\n      sub\n      swap1\n      return\n        /* \"contracts/Twitter.sol\":1957:2064  function getTweet(uint _i) public view returns(Tweet memory) {... */\n    tag_11:\n      tag_47\n      0x04\n      dup1\n      calldatasize\n      sub\n      dup2\n      add\n      swap1\n      tag_48\n      swap2\n      swap1\n      tag_49\n      jump\t// in\n    tag_48:\n      tag_50\n      jump\t// in\n    tag_47:\n      mload(0x40)\n      tag_51\n      swap2\n      swap1\n      tag_52\n      jump\t// in\n    tag_51:\n      mload(0x40)\n      dup1\n      swap2\n      sub\n      swap1\n      return\n        /* \"contracts/Twitter.sol\":273:315  mapping(address => Tweet[] ) public tweets */\n    tag_16:\n      mstore(0x20, 0x01)\n      dup2\n      0x00\n      mstore\n      keccak256(0x00, 0x40)\n      dup2\n      dup2\n      sload\n      dup2\n      lt\n      tag_53\n      jumpi\n      0x00\n      dup1\n      revert\n    tag_53:\n      swap1\n      0x00\n      mstore\n      keccak256(0x00, 0x20)\n      swap1\n      0x05\n      mul\n      add\n      0x00\n      swap2\n      pop\n      swap2\n      pop\n      pop\n      dup1\n      0x00\n      add\n      sload\n      swap1\n      dup1\n      0x01\n      add\n      0x00\n      swap1\n      sload\n      swap1\n      0x0100\n      exp\n      swap1\n      div\n      0xffffffffffffffffffffffffffffffffffffffff\n      and\n      swap1\n      dup1\n      0x02\n      add\n      dup1\n      sload\n      tag_55\n      swap1\n      tag_56\n      jump\t// in\n    tag_55:\n      dup1\n      0x1f\n      add\n      0x20\n      dup1\n      swap2\n      div\n      mul\n      0x20\n      add\n      mload(0x40)\n      swap1\n      dup2\n      add\n      0x40\n      mstore\n      dup1\n      swap3\n      swap2\n      swap1\n      dup2\n      dup2\n      mstore\n      0x20\n      add\n      dup3\n      dup1\n      sload\n      tag_57\n      swap1\n      tag_56\n      jump\t// in\n    tag_57:\n      dup1\n      iszero\n      tag_58\n      jumpi\n      dup1\n      0x1f\n      lt\n      tag_59\n      jumpi\n      0x0100\n      dup1\n      dup4\n      sload\n      div\n      mul\n      dup4\n      mstore\n      swap2\n      0x20\n      add\n      swap2\n      jump(tag_58)\n    tag_59:\n      dup3\n      add\n      swap2\n      swap1\n      0x00\n      mstore\n      keccak256(0x00, 0x20)\n      swap1\n    tag_60:\n      dup2\n      sload\n      dup2\n      mstore\n      swap1\n      0x01\n      add\n      swap1\n      0x20\n      add\n      dup1\n      dup4\n      gt\n      tag_60\n      jumpi\n      dup3\n      swap1\n      sub\n      0x1f\n      and\n      dup3\n      add\n      swap2\n    tag_58:\n      pop\n      pop\n      pop\n      pop\n      pop\n      swap1\n      dup1\n      0x03\n      add\n      sload\n      swap1\n      dup1\n      0x04\n      add\n      sload\n      swap1\n      pop\n      dup6\n      jump\t// out\n        /* \"contracts/Twitter.sol\":2070:2182  function getAllTweets(address _owner) public view returns(Tweet[] memory) {... */\n    tag_22:\n        /* \"contracts/Twitter.sol\":2128:2142  Tweet[] memory */\n      0x60\n        /* \"contracts/Twitter.sol\":2161:2167  tweets */\n      0x01\n        /* \"contracts/Twitter.sol\":2161:2175  tweets[_owner] */\n      0x00\n        /* \"contracts/Twitter.sol\":2168:2174  _owner */\n      dup4\n        /* \"contracts/Twitter.sol\":2161:2175  tweets[_owner] */\n      0xffffffffffffffffffffffffffffffffffffffff\n      and\n      0xffffffffffffffffffffffffffffffffffffffff\n      and\n      dup2\n      mstore\n      0x20\n      add\n      swap1\n      dup2\n      mstore\n      0x20\n      add\n      0x00\n      keccak256\n        /* \"contracts/Twitter.sol\":2154:2175  return tweets[_owner] */\n      dup1\n      sload\n      dup1\n      0x20\n      mul\n      0x20\n      add\n      mload(0x40)\n      swap1\n      dup2\n      add\n      0x40\n      mstore\n      dup1\n      swap3\n      swap2\n      swap1\n      dup2\n      dup2\n      mstore\n      0x20\n      add\n      0x00\n      swap1\n    tag_62:\n      dup3\n      dup3\n      lt\n      iszero\n      tag_63\n      jumpi\n      dup4\n      dup3\n      swap1\n      0x00\n      mstore\n      keccak256(0x00, 0x20)\n      swap1\n      0x05\n      mul\n      add\n      mload(0x40)\n      dup1\n      0xa0\n      add\n      0x40\n      mstore\n      swap1\n      dup2\n      0x00\n      dup3\n      add\n      sload\n      dup2\n      mstore\n      0x20\n      add\n      0x01\n      dup3\n      add\n      0x00\n      swap1\n      sload\n      swap1\n      0x0100\n      exp\n      swap1\n      div\n      0xffffffffffffffffffffffffffffffffffffffff\n      and\n      0xffffffffffffffffffffffffffffffffffffffff\n      and\n      0xffffffffffffffffffffffffffffffffffffffff\n      and\n      dup2\n      mstore\n      0x20\n      add\n      0x02\n      dup3\n      add\n      dup1\n      sload\n      tag_65\n      swap1\n      tag_56\n      jump\t// in\n    tag_65:\n      dup1\n      0x1f\n      add\n      0x20\n      dup1\n      swap2\n      div\n      mul\n      0x20\n      add\n      mload(0x40)\n      swap1\n      dup2\n      add\n      0x40\n      mstore\n      dup1\n      swap3\n      swap2\n      swap1\n      dup2\n      dup2\n      mstore\n      0x20\n      add\n      dup3\n      dup1\n      sload\n      tag_66\n      swap1\n      tag_56\n      jump\t// in\n    tag_66:\n      dup1\n      iszero\n      tag_67\n      jumpi\n      dup1\n      0x1f\n      lt\n      tag_68\n      jumpi\n      0x0100\n      dup1\n      dup4\n      sload\n      div\n      mul\n      dup4\n      mstore\n      swap2\n      0x20\n      add\n      swap2\n      jump(tag_67)\n    tag_68:\n      dup3\n      add\n      swap2\n      swap1\n      0x00\n      mstore\n      keccak256(0x00, 0x20)\n      swap1\n    tag_69:\n      dup2\n      sload\n      dup2\n      mstore\n      swap1\n      0x01\n      add\n      swap1\n      0x20\n      add\n      dup1\n      dup4\n      gt\n      tag_69\n      jumpi\n      dup3\n      swap1\n      sub\n      0x1f\n      and\n      dup3\n      add\n      swap2\n    tag_67:\n      pop\n      pop\n      pop\n      pop\n      pop\n      dup2\n      mstore\n      0x20\n      add\n      0x03\n      dup3\n      add\n      sload\n      dup2\n      mstore\n      0x20\n      add\n      0x04\n      dup3\n      add\n      sload\n      dup2\n      mstore\n      pop\n      pop\n      dup2\n      mstore\n      0x20\n      add\n      swap1\n      0x01\n      add\n      swap1\n      jump(tag_62)\n    tag_63:\n      pop\n      pop\n      pop\n      pop\n      swap1\n      pop\n        /* \"contracts/Twitter.sol\":2070:2182  function getAllTweets(address _owner) public view returns(Tweet[] memory) {... */\n      swap2\n      swap1\n      pop\n      jump\t// out\n        /* \"contracts/Twitter.sol\":1633:1951  function unlikeTweet(address author, uint256 id) external {... */\n    tag_27:\n        /* \"contracts/Twitter.sol\":1734:1736  id */\n      dup1\n        /* \"contracts/Twitter.sol\":1709:1715  tweets */\n      0x01\n        /* \"contracts/Twitter.sol\":1709:1723  tweets[author] */\n      0x00\n        /* \"contracts/Twitter.sol\":1716:1722  author */\n      dup5\n        /* \"contracts/Twitter.sol\":1709:1723  tweets[author] */\n      0xffffffffffffffffffffffffffffffffffffffff\n      and\n      0xffffffffffffffffffffffffffffffffffffffff\n      and\n      dup2\n      mstore\n      0x20\n      add\n      swap1\n      dup2\n      mstore\n      0x20\n      add\n      0x00\n      keccak256\n        /* \"contracts/Twitter.sol\":1724:1726  id */\n      dup3\n        /* \"contracts/Twitter.sol\":1709:1727  tweets[author][id] */\n      dup2\n      sload\n      dup2\n      lt\n      tag_71\n      jumpi\n      tag_72\n      tag_73\n      jump\t// in\n    tag_72:\n    tag_71:\n      swap1\n      0x00\n      mstore\n      keccak256(0x00, 0x20)\n      swap1\n      0x05\n      mul\n      add\n        /* \"contracts/Twitter.sol\":1709:1730  tweets[author][id].id */\n      0x00\n      add\n      sload\n        /* \"contracts/Twitter.sol\":1709:1736  tweets[author][id].id == id */\n      eq\n        /* \"contracts/Twitter.sol\":1701:1761  require(tweets[author][id].id == id, \"Tweet Does Not Exist\") */\n      tag_75\n      jumpi\n      mload(0x40)\n      0x08c379a000000000000000000000000000000000000000000000000000000000\n      dup2\n      mstore\n      0x04\n      add\n      tag_76\n      swap1\n      tag_77\n      jump\t// in\n    tag_76:\n      mload(0x40)\n      dup1\n      swap2\n      sub\n      swap1\n      revert\n    tag_75:\n        /* \"contracts/Twitter.sol\":1806:1807  0 */\n      0x00\n        /* \"contracts/Twitter.sol\":1779:1785  tweets */\n      0x01\n        /* \"contracts/Twitter.sol\":1779:1793  tweets[author] */\n      0x00\n        /* \"contracts/Twitter.sol\":1786:1792  author */\n      dup5\n        /* \"contracts/Twitter.sol\":1779:1793  tweets[author] */\n      0xffffffffffffffffffffffffffffffffffffffff\n      and\n      0xffffffffffffffffffffffffffffffffffffffff\n      and\n      dup2\n      mstore\n      0x20\n      add\n      swap1\n      dup2\n      mstore\n      0x20\n      add\n      0x00\n      keccak256\n        /* \"contracts/Twitter.sol\":1794:1796  id */\n      dup3\n        /* \"contracts/Twitter.sol\":1779:1797  tweets[author][id] */\n      dup2\n      sload\n      dup2\n      lt\n      tag_78\n      jumpi\n      tag_79\n      tag_73\n      jump\t// in\n    tag_79:\n    tag_78:\n      swap1\n      0x00\n      mstore\n      keccak256(0x00, 0x20)\n      swap1\n      0x05\n      mul\n      add\n        /* \"contracts/Twitter.sol\":1779:1803  tweets[author][id].likes */\n      0x04\n      add\n      sload\n        /* \"contracts/Twitter.sol\":1779:1807  tweets[author][id].likes > 0 */\n      gt\n        /* \"contracts/Twitter.sol\":1771:1830  require(tweets[author][id].likes > 0, \"Tweet Has No Likes\") */\n      tag_81\n      jumpi\n      mload(0x40)\n      0x08c379a000000000000000000000000000000000000000000000000000000000\n      dup2\n      mstore\n      0x04\n      add\n      tag_82\n      swap1\n      tag_83\n      jump\t// in\n    tag_82:\n      mload(0x40)\n      dup1\n      swap2\n      sub\n      swap1\n      revert\n    tag_81:\n        /* \"contracts/Twitter.sol\":1840:1846  tweets */\n      0x01\n        /* \"contracts/Twitter.sol\":1840:1854  tweets[author] */\n      0x00\n        /* \"contracts/Twitter.sol\":1847:1853  author */\n      dup4\n        /* \"contracts/Twitter.sol\":1840:1854  tweets[author] */\n      0xffffffffffffffffffffffffffffffffffffffff\n      and\n      0xffffffffffffffffffffffffffffffffffffffff\n      and\n      dup2\n      mstore\n      0x20\n      add\n      swap1\n      dup2\n      mstore\n      0x20\n      add\n      0x00\n      keccak256\n        /* \"contracts/Twitter.sol\":1855:1857  id */\n      dup2\n        /* \"contracts/Twitter.sol\":1840:1858  tweets[author][id] */\n      dup2\n      sload\n      dup2\n      lt\n      tag_84\n      jumpi\n      tag_85\n      tag_73\n      jump\t// in\n    tag_85:\n    tag_84:\n      swap1\n      0x00\n      mstore\n      keccak256(0x00, 0x20)\n      swap1\n      0x05\n      mul\n      add\n        /* \"contracts/Twitter.sol\":1840:1864  tweets[author][id].likes */\n      0x04\n      add\n      0x00\n        /* \"contracts/Twitter.sol\":1840:1866  tweets[author][id].likes-- */\n      dup2\n      sload\n      dup1\n      swap3\n      swap2\n      swap1\n      tag_87\n      swap1\n      tag_88\n      jump\t// in\n    tag_87:\n      swap2\n      swap1\n      pop\n      sstore\n      pop\n        /* \"contracts/Twitter.sol\":1915:1917  id */\n      dup1\n        /* \"contracts/Twitter.sol\":1907:1913  author */\n      dup3\n        /* \"contracts/Twitter.sol\":1882:1944  TweetUnliked(msg.sender, author, id, tweets[author][id].likes) */\n      0xffffffffffffffffffffffffffffffffffffffff\n      and\n        /* \"contracts/Twitter.sol\":1895:1905  msg.sender */\n      caller\n        /* \"contracts/Twitter.sol\":1882:1944  TweetUnliked(msg.sender, author, id, tweets[author][id].likes) */\n      0xffffffffffffffffffffffffffffffffffffffff\n      and\n      0x762c2616349603ac16eba0de8e6141b79129a07ab63bd99e0a80b3a471716943\n        /* \"contracts/Twitter.sol\":1919:1925  tweets */\n      0x01\n        /* \"contracts/Twitter.sol\":1919:1933  tweets[author] */\n      0x00\n        /* \"contracts/Twitter.sol\":1926:1932  author */\n      dup8\n        /* \"contracts/Twitter.sol\":1919:1933  tweets[author] */\n      0xffffffffffffffffffffffffffffffffffffffff\n      and\n      0xffffffffffffffffffffffffffffffffffffffff\n      and\n      dup2\n      mstore\n      0x20\n      add\n      swap1\n      dup2\n      mstore\n      0x20\n      add\n      0x00\n      keccak256\n        /* \"contracts/Twitter.sol\":1934:1936  id */\n      dup6\n        /* \"contracts/Twitter.sol\":1919:1937  tweets[author][id] */\n      dup2\n      sload\n      dup2\n      lt\n      tag_89\n      jumpi\n      tag_90\n      tag_73\n      jump\t// in\n    tag_90:\n    tag_89:\n      swap1\n      0x00\n      mstore\n      keccak256(0x00, 0x20)\n      swap1\n      0x05\n      mul\n      add\n        /* \"contracts/Twitter.sol\":1919:1943  tweets[author][id].likes */\n      0x04\n      add\n      sload\n        /* \"contracts/Twitter.sol\":1882:1944  TweetUnliked(msg.sender, author, id, tweets[author][id].likes) */\n      mload(0x40)\n      tag_92\n      swap2\n      swap1\n      tag_93\n      jump\t// in\n    tag_92:\n      mload(0x40)\n      dup1\n      swap2\n      sub\n      swap1\n      log4\n        /* \"contracts/Twitter.sol\":1633:1951  function unlikeTweet(address author, uint256 id) external {... */\n      pop\n      pop\n      jump\t// out\n        /* \"contracts/Twitter.sol\":2188:2305  function changeTweetLength(uint16 newTweetLength) public onlyOwner {... */\n    tag_31:\n        /* \"contracts/Twitter.sol\":820:825  owner */\n      0x02\n      0x00\n      swap1\n      sload\n      swap1\n      0x0100\n      exp\n      swap1\n      div\n      0xffffffffffffffffffffffffffffffffffffffff\n      and\n        /* \"contracts/Twitter.sol\":806:825  msg.sender == owner */\n      0xffffffffffffffffffffffffffffffffffffffff\n      and\n        /* \"contracts/Twitter.sol\":806:816  msg.sender */\n      caller\n        /* \"contracts/Twitter.sol\":806:825  msg.sender == owner */\n      0xffffffffffffffffffffffffffffffffffffffff\n      and\n      eq\n        /* \"contracts/Twitter.sol\":798:846  require(msg.sender == owner,\"You are not Owner\") */\n      tag_95\n      jumpi\n      mload(0x40)\n      0x08c379a000000000000000000000000000000000000000000000000000000000\n      dup2\n      mstore\n      0x04\n      add\n      tag_96\n      swap1\n      tag_97\n      jump\t// in\n    tag_96:\n      mload(0x40)\n      dup1\n      swap2\n      sub\n      swap1\n      revert\n    tag_95:\n        /* \"contracts/Twitter.sol\":2284:2298  newTweetLength */\n      dup1\n        /* \"contracts/Twitter.sol\":2265:2281  MAX_TWEET_LENGTH */\n      0x00\n      dup1\n        /* \"contracts/Twitter.sol\":2265:2298  MAX_TWEET_LENGTH = newTweetLength */\n      0x0100\n      exp\n      dup2\n      sload\n      dup2\n      0xffff\n      mul\n      not\n      and\n      swap1\n      dup4\n      0xffff\n      and\n      mul\n      or\n      swap1\n      sstore\n      pop\n        /* \"contracts/Twitter.sol\":2188:2305  function changeTweetLength(uint16 newTweetLength) public onlyOwner {... */\n      pop\n      jump\t// out\n        /* \"contracts/Twitter.sol\":1382:1627  function likeTweet(address author, uint256 id) external {... */\n    tag_34:\n        /* \"contracts/Twitter.sol\":1481:1483  id */\n      dup1\n        /* \"contracts/Twitter.sol\":1456:1462  tweets */\n      0x01\n        /* \"contracts/Twitter.sol\":1456:1470  tweets[author] */\n      0x00\n        /* \"contracts/Twitter.sol\":1463:1469  author */\n      dup5\n        /* \"contracts/Twitter.sol\":1456:1470  tweets[author] */\n      0xffffffffffffffffffffffffffffffffffffffff\n      and\n      0xffffffffffffffffffffffffffffffffffffffff\n      and\n      dup2\n      mstore\n      0x20\n      add\n      swap1\n      dup2\n      mstore\n      0x20\n      add\n      0x00\n      keccak256\n        /* \"contracts/Twitter.sol\":1471:1473  id */\n      dup3\n        /* \"contracts/Twitter.sol\":1456:1474  tweets[author][id] */\n      dup2\n      sload\n      dup2\n      lt\n      tag_100\n      jumpi\n      tag_101\n      tag_73\n      jump\t// in\n    tag_101:\n    tag_100:\n      swap1\n      0x00\n      mstore\n      keccak256(0x00, 0x20)\n      swap1\n      0x05\n      mul\n      add\n        /* \"contracts/Twitter.sol\":1456:1477  tweets[author][id].id */\n      0x00\n      add\n      sload\n        /* \"contracts/Twitter.sol\":1456:1483  tweets[author][id].id == id */\n      eq\n        /* \"contracts/Twitter.sol\":1448:1508  require(tweets[author][id].id == id, \"Tweet Does Not Exist\") */\n      tag_103\n      jumpi\n      mload(0x40)\n      0x08c379a000000000000000000000000000000000000000000000000000000000\n      dup2\n      mstore\n      0x04\n      add\n      tag_104\n      swap1\n      tag_77\n      jump\t// in\n    tag_104:\n      mload(0x40)\n      dup1\n      swap2\n      sub\n      swap1\n      revert\n    tag_103:\n        /* \"contracts/Twitter.sol\":1518:1524  tweets */\n      0x01\n        /* \"contracts/Twitter.sol\":1518:1532  tweets[author] */\n      0x00\n        /* \"contracts/Twitter.sol\":1525:1531  author */\n      dup4\n        /* \"contracts/Twitter.sol\":1518:1532  tweets[author] */\n      0xffffffffffffffffffffffffffffffffffffffff\n      and\n      0xffffffffffffffffffffffffffffffffffffffff\n      and\n      dup2\n      mstore\n      0x20\n      add\n      swap1\n      dup2\n      mstore\n      0x20\n      add\n      0x00\n      keccak256\n        /* \"contracts/Twitter.sol\":1533:1535  id */\n      dup2\n        /* \"contracts/Twitter.sol\":1518:1536  tweets[author][id] */\n      dup2\n      sload\n      dup2\n      lt\n      tag_105\n      jumpi\n      tag_106\n      tag_73\n      jump\t// in\n    tag_106:\n    tag_105:\n      swap1\n      0x00\n      mstore\n      keccak256(0x00, 0x20)\n      swap1\n      0x05\n      mul\n      add\n        /* \"contracts/Twitter.sol\":1518:1542  tweets[author][id].likes */\n      0x04\n      add\n      0x00\n        /* \"contracts/Twitter.sol\":1518:1544  tweets[author][id].likes++ */\n      dup2\n      sload\n      dup1\n      swap3\n      swap2\n      swap1\n      tag_108\n      swap1\n      tag_109\n      jump\t// in\n    tag_108:\n      swap2\n      swap1\n      pop\n      sstore\n      pop\n        /* \"contracts/Twitter.sol\":1591:1593  id */\n      dup1\n        /* \"contracts/Twitter.sol\":1583:1589  author */\n      dup3\n        /* \"contracts/Twitter.sol\":1560:1620  TweetLiked(msg.sender, author, id, tweets[author][id].likes) */\n      0xffffffffffffffffffffffffffffffffffffffff\n      and\n        /* \"contracts/Twitter.sol\":1571:1581  msg.sender */\n      caller\n        /* \"contracts/Twitter.sol\":1560:1620  TweetLiked(msg.sender, author, id, tweets[author][id].likes) */\n      0xffffffffffffffffffffffffffffffffffffffff\n      and\n      0xe8a76fc0f16d11a00d1e93b689b63d76cf60af914dd3d915375dc41d01a0c3c8\n        /* \"contracts/Twitter.sol\":1595:1601  tweets */\n      0x01\n        /* \"contracts/Twitter.sol\":1595:1609  tweets[author] */\n      0x00\n        /* \"contracts/Twitter.sol\":1602:1608  author */\n      dup8\n        /* \"contracts/Twitter.sol\":1595:1609  tweets[author] */\n      0xffffffffffffffffffffffffffffffffffffffff\n      and\n      0xffffffffffffffffffffffffffffffffffffffff\n      and\n      dup2\n      mstore\n      0x20\n      add\n      swap1\n      dup2\n      mstore\n      0x20\n      add\n      0x00\n      keccak256\n        /* \"contracts/Twitter.sol\":1610:1612  id */\n      dup6\n        /* \"contracts/Twitter.sol\":1595:1613  tweets[author][id] */\n      dup2\n      sload\n      dup2\n      lt\n      tag_110\n      jumpi\n      tag_111\n      tag_73\n      jump\t// in\n    tag_111:\n    tag_110:\n      swap1\n      0x00\n      mstore\n      keccak256(0x00, 0x20)\n      swap1\n      0x05\n      mul\n      add\n        /* \"contracts/Twitter.sol\":1595:1619  tweets[author][id].likes */\n      0x04\n      add\n      sload\n        /* \"contracts/Twitter.sol\":1560:1620  TweetLiked(msg.sender, author, id, tweets[author][id].likes) */\n      mload(0x40)\n      tag_113\n      swap2\n      swap1\n      tag_93\n      jump\t// in\n    tag_113:\n      mload(0x40)\n      dup1\n      swap2\n      sub\n      swap1\n      log4\n        /* \"contracts/Twitter.sol\":1382:1627  function likeTweet(address author, uint256 id) external {... */\n      pop\n      pop\n      jump\t// out\n        /* \"contracts/Twitter.sol\":86:122  uint16 public MAX_TWEET_LENGTH = 280 */\n    tag_36:\n      0x00\n      dup1\n      sload\n      swap1\n      0x0100\n      exp\n      swap1\n      div\n      0xffff\n      and\n      dup2\n      jump\t// out\n        /* \"contracts/Twitter.sol\":870:1376  function createTweet(string memory _tweet) public {... */\n    tag_42:\n        /* \"contracts/Twitter.sol\":963:979  MAX_TWEET_LENGTH */\n      0x00\n      dup1\n      sload\n      swap1\n      0x0100\n      exp\n      swap1\n      div\n      0xffff\n      and\n        /* \"contracts/Twitter.sol\":939:979  bytes(_tweet).length <= MAX_TWEET_LENGTH */\n      0xffff\n      and\n        /* \"contracts/Twitter.sol\":945:951  _tweet */\n      dup2\n        /* \"contracts/Twitter.sol\":939:959  bytes(_tweet).length */\n      mload\n        /* \"contracts/Twitter.sol\":939:979  bytes(_tweet).length <= MAX_TWEET_LENGTH */\n      gt\n      iszero\n        /* \"contracts/Twitter.sol\":931:1003  require(bytes(_tweet).length <= MAX_TWEET_LENGTH, \"Tweet is too long!\" ) */\n      tag_115\n      jumpi\n      mload(0x40)\n      0x08c379a000000000000000000000000000000000000000000000000000000000\n      dup2\n      mstore\n      0x04\n      add\n      tag_116\n      swap1\n      tag_117\n      jump\t// in\n    tag_116:\n      mload(0x40)\n      dup1\n      swap2\n      sub\n      swap1\n      revert\n    tag_115:\n        /* \"contracts/Twitter.sol\":1014:1035  Tweet memory newTweet */\n      0x00\n        /* \"contracts/Twitter.sol\":1038:1222  Tweet( {... */\n      mload(0x40)\n      dup1\n      0xa0\n      add\n      0x40\n      mstore\n      dup1\n        /* \"contracts/Twitter.sol\":1063:1069  tweets */\n      0x01\n        /* \"contracts/Twitter.sol\":1063:1081  tweets[msg.sender] */\n      0x00\n        /* \"contracts/Twitter.sol\":1070:1080  msg.sender */\n      caller\n        /* \"contracts/Twitter.sol\":1063:1081  tweets[msg.sender] */\n      0xffffffffffffffffffffffffffffffffffffffff\n      and\n      0xffffffffffffffffffffffffffffffffffffffff\n      and\n      dup2\n      mstore\n      0x20\n      add\n      swap1\n      dup2\n      mstore\n      0x20\n      add\n      0x00\n      keccak256\n        /* \"contracts/Twitter.sol\":1063:1088  tweets[msg.sender].length */\n      dup1\n      sload\n      swap1\n      pop\n        /* \"contracts/Twitter.sol\":1038:1222  Tweet( {... */\n      dup2\n      mstore\n      0x20\n      add\n        /* \"contracts/Twitter.sol\":1110:1120  msg.sender */\n      caller\n        /* \"contracts/Twitter.sol\":1038:1222  Tweet( {... */\n      0xffffffffffffffffffffffffffffffffffffffff\n      and\n      dup2\n      mstore\n      0x20\n      add\n        /* \"contracts/Twitter.sol\":1143:1149  _tweet */\n      dup4\n        /* \"contracts/Twitter.sol\":1038:1222  Tweet( {... */\n      dup2\n      mstore\n      0x20\n      add\n        /* \"contracts/Twitter.sol\":1174:1189  block.timestamp */\n      timestamp\n        /* \"contracts/Twitter.sol\":1038:1222  Tweet( {... */\n      dup2\n      mstore\n      0x20\n      add\n        /* \"contracts/Twitter.sol\":1210:1211  0 */\n      0x00\n        /* \"contracts/Twitter.sol\":1038:1222  Tweet( {... */\n      dup2\n      mstore\n      pop\n        /* \"contracts/Twitter.sol\":1014:1222  Tweet memory newTweet = Tweet( {... */\n      swap1\n      pop\n        /* \"contracts/Twitter.sol\":1232:1238  tweets */\n      0x01\n        /* \"contracts/Twitter.sol\":1232:1250  tweets[msg.sender] */\n      0x00\n        /* \"contracts/Twitter.sol\":1239:1249  msg.sender */\n      caller\n        /* \"contracts/Twitter.sol\":1232:1250  tweets[msg.sender] */\n      0xffffffffffffffffffffffffffffffffffffffff\n      and\n      0xffffffffffffffffffffffffffffffffffffffff\n      and\n      dup2\n      mstore\n      0x20\n      add\n      swap1\n      dup2\n      mstore\n      0x20\n      add\n      0x00\n      keccak256\n        /* \"contracts/Twitter.sol\":1256:1264  newTweet */\n      dup2\n        /* \"contracts/Twitter.sol\":1232:1265  tweets[msg.sender].push(newTweet) */\n      swap1\n      dup1\n      0x01\n      dup2\n      sload\n      add\n      dup1\n      dup3\n      sstore\n      dup1\n      swap2\n      pop\n      pop\n      0x01\n      swap1\n      sub\n      swap1\n      0x00\n      mstore\n      keccak256(0x00, 0x20)\n      swap1\n      0x05\n      mul\n      add\n      0x00\n      swap1\n      swap2\n      swap1\n      swap2\n      swap1\n      swap2\n      pop\n      0x00\n      dup3\n      add\n      mload\n      dup2\n      0x00\n      add\n      sstore\n      0x20\n      dup3\n      add\n      mload\n      dup2\n      0x01\n      add\n      exp(0x0100, 0x00)\n      dup2\n      sload\n      dup2\n      0xffffffffffffffffffffffffffffffffffffffff\n      mul\n      not\n      and\n      swap1\n      dup4\n      0xffffffffffffffffffffffffffffffffffffffff\n      and\n      mul\n      or\n      swap1\n      sstore\n      pop\n      0x40\n      dup3\n      add\n      mload\n      dup2\n      0x02\n      add\n      swap1\n      dup2\n      tag_119\n      swap2\n      swap1\n      tag_120\n      jump\t// in\n    tag_119:\n      pop\n      0x60\n      dup3\n      add\n      mload\n      dup2\n      0x03\n      add\n      sstore\n      0x80\n      dup3\n      add\n      mload\n      dup2\n      0x04\n      add\n      sstore\n      pop\n      pop\n        /* \"contracts/Twitter.sol\":1315:1323  newTweet */\n      dup1\n        /* \"contracts/Twitter.sol\":1315:1330  newTweet.author */\n      0x20\n      add\n      mload\n        /* \"contracts/Twitter.sol\":1289:1369  TweetCreated(newTweet.id, newTweet.author, newTweet.content, newTweet.timestamp) */\n      0xffffffffffffffffffffffffffffffffffffffff\n      and\n        /* \"contracts/Twitter.sol\":1302:1310  newTweet */\n      dup2\n        /* \"contracts/Twitter.sol\":1302:1313  newTweet.id */\n      0x00\n      add\n      mload\n        /* \"contracts/Twitter.sol\":1289:1369  TweetCreated(newTweet.id, newTweet.author, newTweet.content, newTweet.timestamp) */\n      0x16fd3c13e9d46923e0a8bce11c7b473ec508a72e6c96cd2404b29ce972afc29e\n        /* \"contracts/Twitter.sol\":1332:1340  newTweet */\n      dup4\n        /* \"contracts/Twitter.sol\":1332:1348  newTweet.content */\n      0x40\n      add\n      mload\n        /* \"contracts/Twitter.sol\":1350:1358  newTweet */\n      dup5\n        /* \"contracts/Twitter.sol\":1350:1368  newTweet.timestamp */\n      0x60\n      add\n      mload\n        /* \"contracts/Twitter.sol\":1289:1369  TweetCreated(newTweet.id, newTweet.author, newTweet.content, newTweet.timestamp) */\n      mload(0x40)\n      tag_121\n      swap3\n      swap2\n      swap1\n      tag_122\n      jump\t// in\n    tag_121:\n      mload(0x40)\n      dup1\n      swap2\n      sub\n      swap1\n      log3\n        /* \"contracts/Twitter.sol\":920:1376  {... */\n      pop\n        /* \"contracts/Twitter.sol\":870:1376  function createTweet(string memory _tweet) public {... */\n      pop\n      jump\t// out\n        /* \"contracts/Twitter.sol\":321:341  address public owner */\n    tag_44:\n      0x02\n      0x00\n      swap1\n      sload\n      swap1\n      0x0100\n      exp\n      swap1\n      div\n      0xffffffffffffffffffffffffffffffffffffffff\n      and\n      dup2\n      jump\t// out\n        /* \"contracts/Twitter.sol\":1957:2064  function getTweet(uint _i) public view returns(Tweet memory) {... */\n    tag_50:\n        /* \"contracts/Twitter.sol\":2004:2016  Tweet memory */\n      tag_123\n      tag_124\n      jump\t// in\n    tag_123:\n        /* \"contracts/Twitter.sol\":2035:2041  tweets */\n      0x01\n        /* \"contracts/Twitter.sol\":2035:2053  tweets[msg.sender] */\n      0x00\n        /* \"contracts/Twitter.sol\":2042:2052  msg.sender */\n      caller\n        /* \"contracts/Twitter.sol\":2035:2053  tweets[msg.sender] */\n      0xffffffffffffffffffffffffffffffffffffffff\n      and\n      0xffffffffffffffffffffffffffffffffffffffff\n      and\n      dup2\n      mstore\n      0x20\n      add\n      swap1\n      dup2\n      mstore\n      0x20\n      add\n      0x00\n      keccak256\n        /* \"contracts/Twitter.sol\":2054:2056  _i */\n      dup3\n        /* \"contracts/Twitter.sol\":2035:2057  tweets[msg.sender][_i] */\n      dup2\n      sload\n      dup2\n      lt\n      tag_126\n      jumpi\n      tag_127\n      tag_73\n      jump\t// in\n    tag_127:\n    tag_126:\n      swap1\n      0x00\n      mstore\n      keccak256(0x00, 0x20)\n      swap1\n      0x05\n      mul\n      add\n        /* \"contracts/Twitter.sol\":2028:2057  return tweets[msg.sender][_i] */\n      mload(0x40)\n      dup1\n      0xa0\n      add\n      0x40\n      mstore\n      swap1\n      dup2\n      0x00\n      dup3\n      add\n      sload\n      dup2\n      mstore\n      0x20\n      add\n      0x01\n      dup3\n      add\n      0x00\n      swap1\n      sload\n      swap1\n      0x0100\n      exp\n      swap1\n      div\n      0xffffffffffffffffffffffffffffffffffffffff\n      and\n      0xffffffffffffffffffffffffffffffffffffffff\n      and\n      0xffffffffffffffffffffffffffffffffffffffff\n      and\n      dup2\n      mstore\n      0x20\n      add\n      0x02\n      dup3\n      add\n      dup1\n      sload\n      tag_129\n      swap1\n      tag_56\n      jump\t// in\n    tag_129:\n      dup1\n      0x1f\n      add\n      0x20\n      dup1\n      swap2\n      div\n      mul\n      0x20\n      add\n      mload(0x40)\n      swap1\n      dup2\n      add\n      0x40\n      mstore\n      dup1\n      swap3\n      swap2\n      swap1\n      dup2\n      dup2\n      mstore\n      0x20\n      add\n      dup3\n      dup1\n      sload\n      tag_130\n      swap1\n      tag_56\n      jump\t// in\n    tag_130:\n      dup1\n      iszero\n      tag_131\n      jumpi\n      dup1\n      0x1f\n      lt\n      tag_132\n      jumpi\n      0x0100\n      dup1\n      dup4\n      sload\n      div\n      mul\n      dup4\n      mstore\n      swap2\n      0x20\n      add\n      swap2\n      jump(tag_131)\n    tag_132:\n      dup3\n      add\n      swap2\n      swap1\n      0x00\n      mstore\n      keccak256(0x00, 0x20)\n      swap1\n    tag_133:\n      dup2\n      sload\n      dup2\n      mstore\n      swap1\n      0x01\n      add\n      swap1\n      0x20\n      add\n      dup1\n      dup4\n      gt\n      tag_133\n      jumpi\n      dup3\n      swap1\n      sub\n      0x1f\n      and\n      dup3\n      add\n      swap2\n    tag_131:\n      pop\n      pop\n      pop\n      pop\n      pop\n      dup2\n      mstore\n      0x20\n      add\n      0x03\n      dup3\n      add\n      sload\n      dup2\n      mstore\n      0x20\n      add\n      0x04\n      dup3\n      add\n      sload\n      dup2\n      mstore\n      pop\n      pop\n      swap1\n      pop\n        /* \"contracts/Twitter.sol\":1957:2064  function getTweet(uint _i) public view returns(Tweet memory) {... */\n      swap2\n      swap1\n      pop\n      jump\t// out\n    tag_124:\n      mload(0x40)\n      dup1\n      0xa0\n      add\n      0x40\n      mstore\n      dup1\n      0x00\n      dup2\n      mstore\n      0x20\n      add\n      and(0xffffffffffffffffffffffffffffffffffffffff, 0x00)\n      dup2\n      mstore\n      0x20\n      add\n      0x60\n      dup2\n      mstore\n      0x20\n      add\n      0x00\n      dup2\n      mstore\n      0x20\n      add\n      0x00\n      dup2\n      mstore\n      pop\n      swap1\n      jump\t// out\n        /* \"#utility.yul\":7:82   */\n    tag_134:\n        /* \"#utility.yul\":40:46   */\n      0x00\n        /* \"#utility.yul\":73:75   */\n      0x40\n        /* \"#utility.yul\":67:76   */\n      mload\n        /* \"#utility.yul\":57:76   */\n      swap1\n      pop\n        /* \"#utility.yul\":7:82   */\n      swap1\n      jump\t// out\n        /* \"#utility.yul\":88:205   */\n    tag_135:\n        /* \"#utility.yul\":197:198   */\n      0x00\n        /* \"#utility.yul\":194:195   */\n      dup1\n        /* \"#utility.yul\":187:199   */\n      revert\n        /* \"#utility.yul\":211:328   */\n    tag_136:\n        /* \"#utility.yul\":320:321   */\n      0x00\n        /* \"#utility.yul\":317:318   */\n      dup1\n        /* \"#utility.yul\":310:322   */\n      revert\n        /* \"#utility.yul\":334:460   */\n    tag_137:\n        /* \"#utility.yul\":371:378   */\n      0x00\n        /* \"#utility.yul\":411:453   */\n      0xffffffffffffffffffffffffffffffffffffffff\n        /* \"#utility.yul\":404:409   */\n      dup3\n        /* \"#utility.yul\":400:454   */\n      and\n        /* \"#utility.yul\":389:454   */\n      swap1\n      pop\n        /* \"#utility.yul\":334:460   */\n      swap2\n      swap1\n      pop\n      jump\t// out\n        /* \"#utility.yul\":466:562   */\n    tag_138:\n        /* \"#utility.yul\":503:510   */\n      0x00\n        /* \"#utility.yul\":532:556   */\n      tag_207\n        /* \"#utility.yul\":550:555   */\n      dup3\n        /* \"#utility.yul\":532:556   */\n      tag_137\n      jump\t// in\n    tag_207:\n        /* \"#utility.yul\":521:556   */\n      swap1\n      pop\n        /* \"#utility.yul\":466:562   */\n      swap2\n      swap1\n      pop\n      jump\t// out\n        /* \"#utility.yul\":568:690   */\n    tag_139:\n        /* \"#utility.yul\":641:665   */\n      tag_209\n        /* \"#utility.yul\":659:664   */\n      dup2\n        /* \"#utility.yul\":641:665   */\n      tag_138\n      jump\t// in\n    tag_209:\n        /* \"#utility.yul\":634:639   */\n      dup2\n        /* \"#utility.yul\":631:666   */\n      eq\n        /* \"#utility.yul\":621:684   */\n      tag_210\n      jumpi\n        /* \"#utility.yul\":680:681   */\n      0x00\n        /* \"#utility.yul\":677:678   */\n      dup1\n        /* \"#utility.yul\":670:682   */\n      revert\n        /* \"#utility.yul\":621:684   */\n    tag_210:\n        /* \"#utility.yul\":568:690   */\n      pop\n      jump\t// out\n        /* \"#utility.yul\":696:835   */\n    tag_140:\n        /* \"#utility.yul\":742:747   */\n      0x00\n        /* \"#utility.yul\":780:786   */\n      dup2\n        /* \"#utility.yul\":767:787   */\n      calldataload\n        /* \"#utility.yul\":758:787   */\n      swap1\n      pop\n        /* \"#utility.yul\":796:829   */\n      tag_212\n        /* \"#utility.yul\":823:828   */\n      dup2\n        /* \"#utility.yul\":796:829   */\n      tag_139\n      jump\t// in\n    tag_212:\n        /* \"#utility.yul\":696:835   */\n      swap3\n      swap2\n      pop\n      pop\n      jump\t// out\n        /* \"#utility.yul\":841:918   */\n    tag_141:\n        /* \"#utility.yul\":878:885   */\n      0x00\n        /* \"#utility.yul\":907:912   */\n      dup2\n        /* \"#utility.yul\":896:912   */\n      swap1\n      pop\n        /* \"#utility.yul\":841:918   */\n      swap2\n      swap1\n      pop\n      jump\t// out\n        /* \"#utility.yul\":924:1046   */\n    tag_142:\n        /* \"#utility.yul\":997:1021   */\n      tag_215\n        /* \"#utility.yul\":1015:1020   */\n      dup2\n        /* \"#utility.yul\":997:1021   */\n      tag_141\n      jump\t// in\n    tag_215:\n        /* \"#utility.yul\":990:995   */\n      dup2\n        /* \"#utility.yul\":987:1022   */\n      eq\n        /* \"#utility.yul\":977:1040   */\n      tag_216\n      jumpi\n        /* \"#utility.yul\":1036:1037   */\n      0x00\n        /* \"#utility.yul\":1033:1034   */\n      dup1\n        /* \"#utility.yul\":1026:1038   */\n      revert\n        /* \"#utility.yul\":977:1040   */\n    tag_216:\n        /* \"#utility.yul\":924:1046   */\n      pop\n      jump\t// out\n        /* \"#utility.yul\":1052:1191   */\n    tag_143:\n        /* \"#utility.yul\":1098:1103   */\n      0x00\n        /* \"#utility.yul\":1136:1142   */\n      dup2\n        /* \"#utility.yul\":1123:1143   */\n      calldataload\n        /* \"#utility.yul\":1114:1143   */\n      swap1\n      pop\n        /* \"#utility.yul\":1152:1185   */\n      tag_218\n        /* \"#utility.yul\":1179:1184   */\n      dup2\n        /* \"#utility.yul\":1152:1185   */\n      tag_142\n      jump\t// in\n    tag_218:\n        /* \"#utility.yul\":1052:1191   */\n      swap3\n      swap2\n      pop\n      pop\n      jump\t// out\n        /* \"#utility.yul\":1197:1671   */\n    tag_15:\n        /* \"#utility.yul\":1265:1271   */\n      0x00\n        /* \"#utility.yul\":1273:1279   */\n      dup1\n        /* \"#utility.yul\":1322:1324   */\n      0x40\n        /* \"#utility.yul\":1310:1319   */\n      dup4\n        /* \"#utility.yul\":1301:1308   */\n      dup6\n        /* \"#utility.yul\":1297:1320   */\n      sub\n        /* \"#utility.yul\":1293:1325   */\n      slt\n        /* \"#utility.yul\":1290:1409   */\n      iszero\n      tag_220\n      jumpi\n        /* \"#utility.yul\":1328:1407   */\n      tag_221\n      tag_135\n      jump\t// in\n    tag_221:\n        /* \"#utility.yul\":1290:1409   */\n    tag_220:\n        /* \"#utility.yul\":1448:1449   */\n      0x00\n        /* \"#utility.yul\":1473:1526   */\n      tag_222\n        /* \"#utility.yul\":1518:1525   */\n      dup6\n        /* \"#utility.yul\":1509:1515   */\n      dup3\n        /* \"#utility.yul\":1498:1507   */\n      dup7\n        /* \"#utility.yul\":1494:1516   */\n      add\n        /* \"#utility.yul\":1473:1526   */\n      tag_140\n      jump\t// in\n    tag_222:\n        /* \"#utility.yul\":1463:1526   */\n      swap3\n      pop\n        /* \"#utility.yul\":1419:1536   */\n      pop\n        /* \"#utility.yul\":1575:1577   */\n      0x20\n        /* \"#utility.yul\":1601:1654   */\n      tag_223\n        /* \"#utility.yul\":1646:1653   */\n      dup6\n        /* \"#utility.yul\":1637:1643   */\n      dup3\n        /* \"#utility.yul\":1626:1635   */\n      dup7\n        /* \"#utility.yul\":1622:1644   */\n      add\n        /* \"#utility.yul\":1601:1654   */\n      tag_143\n      jump\t// in\n    tag_223:\n        /* \"#utility.yul\":1591:1654   */\n      swap2\n      pop\n        /* \"#utility.yul\":1546:1664   */\n      pop\n        /* \"#utility.yul\":1197:1671   */\n      swap3\n      pop\n      swap3\n      swap1\n      pop\n      jump\t// out\n        /* \"#utility.yul\":1677:1795   */\n    tag_144:\n        /* \"#utility.yul\":1764:1788   */\n      tag_225\n        /* \"#utility.yul\":1782:1787   */\n      dup2\n        /* \"#utility.yul\":1764:1788   */\n      tag_141\n      jump\t// in\n    tag_225:\n        /* \"#utility.yul\":1759:1762   */\n      dup3\n        /* \"#utility.yul\":1752:1789   */\n      mstore\n        /* \"#utility.yul\":1677:1795   */\n      pop\n      pop\n      jump\t// out\n        /* \"#utility.yul\":1801:1919   */\n    tag_145:\n        /* \"#utility.yul\":1888:1912   */\n      tag_227\n        /* \"#utility.yul\":1906:1911   */\n      dup2\n        /* \"#utility.yul\":1888:1912   */\n      tag_138\n      jump\t// in\n    tag_227:\n        /* \"#utility.yul\":1883:1886   */\n      dup3\n        /* \"#utility.yul\":1876:1913   */\n      mstore\n        /* \"#utility.yul\":1801:1919   */\n      pop\n      pop\n      jump\t// out\n        /* \"#utility.yul\":1925:2024   */\n    tag_146:\n        /* \"#utility.yul\":1977:1983   */\n      0x00\n        /* \"#utility.yul\":2011:2016   */\n      dup2\n        /* \"#utility.yul\":2005:2017   */\n      mload\n        /* \"#utility.yul\":1995:2017   */\n      swap1\n      pop\n        /* \"#utility.yul\":1925:2024   */\n      swap2\n      swap1\n      pop\n      jump\t// out\n        /* \"#utility.yul\":2030:2199   */\n    tag_147:\n        /* \"#utility.yul\":2114:2125   */\n      0x00\n        /* \"#utility.yul\":2148:2154   */\n      dup3\n        /* \"#utility.yul\":2143:2146   */\n      dup3\n        /* \"#utility.yul\":2136:2155   */\n      mstore\n        /* \"#utility.yul\":2188:2192   */\n      0x20\n        /* \"#utility.yul\":2183:2186   */\n      dup3\n        /* \"#utility.yul\":2179:2193   */\n      add\n        /* \"#utility.yul\":2164:2193   */\n      swap1\n      pop\n        /* \"#utility.yul\":2030:2199   */\n      swap3\n      swap2\n      pop\n      pop\n      jump\t// out\n        /* \"#utility.yul\":2205:2344   */\n    tag_148:\n        /* \"#utility.yul\":2294:2300   */\n      dup3\n        /* \"#utility.yul\":2289:2292   */\n      dup2\n        /* \"#utility.yul\":2284:2287   */\n      dup4\n        /* \"#utility.yul\":2278:2301   */\n      mcopy\n        /* \"#utility.yul\":2335:2336   */\n      0x00\n        /* \"#utility.yul\":2326:2332   */\n      dup4\n        /* \"#utility.yul\":2321:2324   */\n      dup4\n        /* \"#utility.yul\":2317:2333   */\n      add\n        /* \"#utility.yul\":2310:2337   */\n      mstore\n        /* \"#utility.yul\":2205:2344   */\n      pop\n      pop\n      pop\n      jump\t// out\n        /* \"#utility.yul\":2350:2452   */\n    tag_149:\n        /* \"#utility.yul\":2391:2397   */\n      0x00\n        /* \"#utility.yul\":2442:2444   */\n      0x1f\n        /* \"#utility.yul\":2438:2445   */\n      not\n        /* \"#utility.yul\":2433:2435   */\n      0x1f\n        /* \"#utility.yul\":2426:2431   */\n      dup4\n        /* \"#utility.yul\":2422:2436   */\n      add\n        /* \"#utility.yul\":2418:2446   */\n      and\n        /* \"#utility.yul\":2408:2446   */\n      swap1\n      pop\n        /* \"#utility.yul\":2350:2452   */\n      swap2\n      swap1\n      pop\n      jump\t// out\n        /* \"#utility.yul\":2458:2835   */\n    tag_150:\n        /* \"#utility.yul\":2546:2549   */\n      0x00\n        /* \"#utility.yul\":2574:2613   */\n      tag_233\n        /* \"#utility.yul\":2607:2612   */\n      dup3\n        /* \"#utility.yul\":2574:2613   */\n      tag_146\n      jump\t// in\n    tag_233:\n        /* \"#utility.yul\":2629:2700   */\n      tag_234\n        /* \"#utility.yul\":2693:2699   */\n      dup2\n        /* \"#utility.yul\":2688:2691   */\n      dup6\n        /* \"#utility.yul\":2629:2700   */\n      tag_147\n      jump\t// in\n    tag_234:\n        /* \"#utility.yul\":2622:2700   */\n      swap4\n      pop\n        /* \"#utility.yul\":2709:2774   */\n      tag_235\n        /* \"#utility.yul\":2767:2773   */\n      dup2\n        /* \"#utility.yul\":2762:2765   */\n      dup6\n        /* \"#utility.yul\":2755:2759   */\n      0x20\n        /* \"#utility.yul\":2748:2753   */\n      dup7\n        /* \"#utility.yul\":2744:2760   */\n      add\n        /* \"#utility.yul\":2709:2774   */\n      tag_148\n      jump\t// in\n    tag_235:\n        /* \"#utility.yul\":2799:2828   */\n      tag_236\n        /* \"#utility.yul\":2821:2827   */\n      dup2\n        /* \"#utility.yul\":2799:2828   */\n      tag_149\n      jump\t// in\n    tag_236:\n        /* \"#utility.yul\":2794:2797   */\n      dup5\n        /* \"#utility.yul\":2790:2829   */\n      add\n        /* \"#utility.yul\":2783:2829   */\n      swap2\n      pop\n        /* \"#utility.yul\":2550:2835   */\n      pop\n        /* \"#utility.yul\":2458:2835   */\n      swap3\n      swap2\n      pop\n      pop\n      jump\t// out\n        /* \"#utility.yul\":2841:3596   */\n    tag_18:\n        /* \"#utility.yul\":3066:3070   */\n      0x00\n        /* \"#utility.yul\":3104:3107   */\n      0xa0\n        /* \"#utility.yul\":3093:3102   */\n      dup3\n        /* \"#utility.yul\":3089:3108   */\n      add\n        /* \"#utility.yul\":3081:3108   */\n      swap1\n      pop\n        /* \"#utility.yul\":3118:3189   */\n      tag_238\n        /* \"#utility.yul\":3186:3187   */\n      0x00\n        /* \"#utility.yul\":3175:3184   */\n      dup4\n        /* \"#utility.yul\":3171:3188   */\n      add\n        /* \"#utility.yul\":3162:3168   */\n      dup9\n        /* \"#utility.yul\":3118:3189   */\n      tag_144\n      jump\t// in\n    tag_238:\n        /* \"#utility.yul\":3199:3271   */\n      tag_239\n        /* \"#utility.yul\":3267:3269   */\n      0x20\n        /* \"#utility.yul\":3256:3265   */\n      dup4\n        /* \"#utility.yul\":3252:3270   */\n      add\n        /* \"#utility.yul\":3243:3249   */\n      dup8\n        /* \"#utility.yul\":3199:3271   */\n      tag_145\n      jump\t// in\n    tag_239:\n        /* \"#utility.yul\":3318:3327   */\n      dup2\n        /* \"#utility.yul\":3312:3316   */\n      dup2\n        /* \"#utility.yul\":3308:3328   */\n      sub\n        /* \"#utility.yul\":3303:3305   */\n      0x40\n        /* \"#utility.yul\":3292:3301   */\n      dup4\n        /* \"#utility.yul\":3288:3306   */\n      add\n        /* \"#utility.yul\":3281:3329   */\n      mstore\n        /* \"#utility.yul\":3346:3424   */\n      tag_240\n        /* \"#utility.yul\":3419:3423   */\n      dup2\n        /* \"#utility.yul\":3410:3416   */\n      dup7\n        /* \"#utility.yul\":3346:3424   */\n      tag_150\n      jump\t// in\n    tag_240:\n        /* \"#utility.yul\":3338:3424   */\n      swap1\n      pop\n        /* \"#utility.yul\":3434:3506   */\n      tag_241\n        /* \"#utility.yul\":3502:3504   */\n      0x60\n        /* \"#utility.yul\":3491:3500   */\n      dup4\n        /* \"#utility.yul\":3487:3505   */\n      add\n        /* \"#utility.yul\":3478:3484   */\n      dup6\n        /* \"#utility.yul\":3434:3506   */\n      tag_144\n      jump\t// in\n    tag_241:\n        /* \"#utility.yul\":3516:3589   */\n      tag_242\n        /* \"#utility.yul\":3584:3587   */\n      0x80\n        /* \"#utility.yul\":3573:3582   */\n      dup4\n        /* \"#utility.yul\":3569:3588   */\n      add\n        /* \"#utility.yul\":3560:3566   */\n      dup5\n        /* \"#utility.yul\":3516:3589   */\n      tag_144\n      jump\t// in\n    tag_242:\n        /* \"#utility.yul\":2841:3596   */\n      swap7\n      swap6\n      pop\n      pop\n      pop\n      pop\n      pop\n      pop\n      jump\t// out\n        /* \"#utility.yul\":3602:3931   */\n    tag_21:\n        /* \"#utility.yul\":3661:3667   */\n      0x00\n        /* \"#utility.yul\":3710:3712   */\n      0x20\n        /* \"#utility.yul\":3698:3707   */\n      dup3\n        /* \"#utility.yul\":3689:3696   */\n      dup5\n        /* \"#utility.yul\":3685:3708   */\n      sub\n        /* \"#utility.yul\":3681:3713   */\n      slt\n        /* \"#utility.yul\":3678:3797   */\n      iszero\n      tag_244\n      jumpi\n        /* \"#utility.yul\":3716:3795   */\n      tag_245\n      tag_135\n      jump\t// in\n    tag_245:\n        /* \"#utility.yul\":3678:3797   */\n    tag_244:\n        /* \"#utility.yul\":3836:3837   */\n      0x00\n        /* \"#utility.yul\":3861:3914   */\n      tag_246\n        /* \"#utility.yul\":3906:3913   */\n      dup5\n        /* \"#utility.yul\":3897:3903   */\n      dup3\n        /* \"#utility.yul\":3886:3895   */\n      dup6\n        /* \"#utility.yul\":3882:3904   */\n      add\n        /* \"#utility.yul\":3861:3914   */\n      tag_140\n      jump\t// in\n    tag_246:\n        /* \"#utility.yul\":3851:3914   */\n      swap2\n      pop\n        /* \"#utility.yul\":3807:3924   */\n      pop\n        /* \"#utility.yul\":3602:3931   */\n      swap3\n      swap2\n      pop\n      pop\n      jump\t// out\n        /* \"#utility.yul\":3937:4072   */\n    tag_151:\n        /* \"#utility.yul\":4025:4031   */\n      0x00\n        /* \"#utility.yul\":4059:4064   */\n      dup2\n        /* \"#utility.yul\":4053:4065   */\n      mload\n        /* \"#utility.yul\":4043:4065   */\n      swap1\n      pop\n        /* \"#utility.yul\":3937:4072   */\n      swap2\n      swap1\n      pop\n      jump\t// out\n        /* \"#utility.yul\":4078:4283   */\n    tag_152:\n        /* \"#utility.yul\":4198:4209   */\n      0x00\n        /* \"#utility.yul\":4232:4238   */\n      dup3\n        /* \"#utility.yul\":4227:4230   */\n      dup3\n        /* \"#utility.yul\":4220:4239   */\n      mstore\n        /* \"#utility.yul\":4272:4276   */\n      0x20\n        /* \"#utility.yul\":4267:4270   */\n      dup3\n        /* \"#utility.yul\":4263:4277   */\n      add\n        /* \"#utility.yul\":4248:4277   */\n      swap1\n      pop\n        /* \"#utility.yul\":4078:4283   */\n      swap3\n      swap2\n      pop\n      pop\n      jump\t// out\n        /* \"#utility.yul\":4289:4442   */\n    tag_153:\n        /* \"#utility.yul\":4377:4381   */\n      0x00\n        /* \"#utility.yul\":4400:4403   */\n      dup2\n        /* \"#utility.yul\":4392:4403   */\n      swap1\n      pop\n        /* \"#utility.yul\":4430:4434   */\n      0x20\n        /* \"#utility.yul\":4425:4428   */\n      dup3\n        /* \"#utility.yul\":4421:4435   */\n      add\n        /* \"#utility.yul\":4413:4435   */\n      swap1\n      pop\n        /* \"#utility.yul\":4289:4442   */\n      swap2\n      swap1\n      pop\n      jump\t// out\n        /* \"#utility.yul\":4448:4556   */\n    tag_154:\n        /* \"#utility.yul\":4525:4549   */\n      tag_251\n        /* \"#utility.yul\":4543:4548   */\n      dup2\n        /* \"#utility.yul\":4525:4549   */\n      tag_141\n      jump\t// in\n    tag_251:\n        /* \"#utility.yul\":4520:4523   */\n      dup3\n        /* \"#utility.yul\":4513:4550   */\n      mstore\n        /* \"#utility.yul\":4448:4556   */\n      pop\n      pop\n      jump\t// out\n        /* \"#utility.yul\":4562:4670   */\n    tag_155:\n        /* \"#utility.yul\":4639:4663   */\n      tag_253\n        /* \"#utility.yul\":4657:4662   */\n      dup2\n        /* \"#utility.yul\":4639:4663   */\n      tag_138\n      jump\t// in\n    tag_253:\n        /* \"#utility.yul\":4634:4637   */\n      dup3\n        /* \"#utility.yul\":4627:4664   */\n      mstore\n        /* \"#utility.yul\":4562:4670   */\n      pop\n      pop\n      jump\t// out\n        /* \"#utility.yul\":4676:4835   */\n    tag_156:\n        /* \"#utility.yul\":4750:4761   */\n      0x00\n        /* \"#utility.yul\":4784:4790   */\n      dup3\n        /* \"#utility.yul\":4779:4782   */\n      dup3\n        /* \"#utility.yul\":4772:4791   */\n      mstore\n        /* \"#utility.yul\":4824:4828   */\n      0x20\n        /* \"#utility.yul\":4819:4822   */\n      dup3\n        /* \"#utility.yul\":4815:4829   */\n      add\n        /* \"#utility.yul\":4800:4829   */\n      swap1\n      pop\n        /* \"#utility.yul\":4676:4835   */\n      swap3\n      swap2\n      pop\n      pop\n      jump\t// out\n        /* \"#utility.yul\":4841:5198   */\n    tag_157:\n        /* \"#utility.yul\":4919:4922   */\n      0x00\n        /* \"#utility.yul\":4947:4986   */\n      tag_256\n        /* \"#utility.yul\":4980:4985   */\n      dup3\n        /* \"#utility.yul\":4947:4986   */\n      tag_146\n      jump\t// in\n    tag_256:\n        /* \"#utility.yul\":5002:5063   */\n      tag_257\n        /* \"#utility.yul\":5056:5062   */\n      dup2\n        /* \"#utility.yul\":5051:5054   */\n      dup6\n        /* \"#utility.yul\":5002:5063   */\n      tag_156\n      jump\t// in\n    tag_257:\n        /* \"#utility.yul\":4995:5063   */\n      swap4\n      pop\n        /* \"#utility.yul\":5072:5137   */\n      tag_258\n        /* \"#utility.yul\":5130:5136   */\n      dup2\n        /* \"#utility.yul\":5125:5128   */\n      dup6\n        /* \"#utility.yul\":5118:5122   */\n      0x20\n        /* \"#utility.yul\":5111:5116   */\n      dup7\n        /* \"#utility.yul\":5107:5123   */\n      add\n        /* \"#utility.yul\":5072:5137   */\n      tag_148\n      jump\t// in\n    tag_258:\n        /* \"#utility.yul\":5162:5191   */\n      tag_259\n        /* \"#utility.yul\":5184:5190   */\n      dup2\n        /* \"#utility.yul\":5162:5191   */\n      tag_149\n      jump\t// in\n    tag_259:\n        /* \"#utility.yul\":5157:5160   */\n      dup5\n        /* \"#utility.yul\":5153:5192   */\n      add\n        /* \"#utility.yul\":5146:5192   */\n      swap2\n      pop\n        /* \"#utility.yul\":4923:5198   */\n      pop\n        /* \"#utility.yul\":4841:5198   */\n      swap3\n      swap2\n      pop\n      pop\n      jump\t// out\n        /* \"#utility.yul\":5256:6375   */\n    tag_158:\n        /* \"#utility.yul\":5357:5360   */\n      0x00\n        /* \"#utility.yul\":5393:5397   */\n      0xa0\n        /* \"#utility.yul\":5388:5391   */\n      dup4\n        /* \"#utility.yul\":5384:5398   */\n      add\n        /* \"#utility.yul\":5478:5482   */\n      0x00\n        /* \"#utility.yul\":5471:5476   */\n      dup4\n        /* \"#utility.yul\":5467:5483   */\n      add\n        /* \"#utility.yul\":5461:5484   */\n      mload\n        /* \"#utility.yul\":5497:5560   */\n      tag_261\n        /* \"#utility.yul\":5554:5558   */\n      0x00\n        /* \"#utility.yul\":5549:5552   */\n      dup7\n        /* \"#utility.yul\":5545:5559   */\n      add\n        /* \"#utility.yul\":5531:5543   */\n      dup3\n        /* \"#utility.yul\":5497:5560   */\n      tag_154\n      jump\t// in\n    tag_261:\n        /* \"#utility.yul\":5408:5570   */\n      pop\n        /* \"#utility.yul\":5654:5658   */\n      0x20\n        /* \"#utility.yul\":5647:5652   */\n      dup4\n        /* \"#utility.yul\":5643:5659   */\n      add\n        /* \"#utility.yul\":5637:5660   */\n      mload\n        /* \"#utility.yul\":5673:5736   */\n      tag_262\n        /* \"#utility.yul\":5730:5734   */\n      0x20\n        /* \"#utility.yul\":5725:5728   */\n      dup7\n        /* \"#utility.yul\":5721:5735   */\n      add\n        /* \"#utility.yul\":5707:5719   */\n      dup3\n        /* \"#utility.yul\":5673:5736   */\n      tag_155\n      jump\t// in\n    tag_262:\n        /* \"#utility.yul\":5580:5746   */\n      pop\n        /* \"#utility.yul\":5831:5835   */\n      0x40\n        /* \"#utility.yul\":5824:5829   */\n      dup4\n        /* \"#utility.yul\":5820:5836   */\n      add\n        /* \"#utility.yul\":5814:5837   */\n      mload\n        /* \"#utility.yul\":5884:5887   */\n      dup5\n        /* \"#utility.yul\":5878:5882   */\n      dup3\n        /* \"#utility.yul\":5874:5888   */\n      sub\n        /* \"#utility.yul\":5867:5871   */\n      0x40\n        /* \"#utility.yul\":5862:5865   */\n      dup7\n        /* \"#utility.yul\":5858:5872   */\n      add\n        /* \"#utility.yul\":5851:5889   */\n      mstore\n        /* \"#utility.yul\":5910:5983   */\n      tag_263\n        /* \"#utility.yul\":5978:5982   */\n      dup3\n        /* \"#utility.yul\":5964:5976   */\n      dup3\n        /* \"#utility.yul\":5910:5983   */\n      tag_157\n      jump\t// in\n    tag_263:\n        /* \"#utility.yul\":5902:5983   */\n      swap2\n      pop\n        /* \"#utility.yul\":5756:5994   */\n      pop\n        /* \"#utility.yul\":6081:6085   */\n      0x60\n        /* \"#utility.yul\":6074:6079   */\n      dup4\n        /* \"#utility.yul\":6070:6086   */\n      add\n        /* \"#utility.yul\":6064:6087   */\n      mload\n        /* \"#utility.yul\":6100:6163   */\n      tag_264\n        /* \"#utility.yul\":6157:6161   */\n      0x60\n        /* \"#utility.yul\":6152:6155   */\n      dup7\n        /* \"#utility.yul\":6148:6162   */\n      add\n        /* \"#utility.yul\":6134:6146   */\n      dup3\n        /* \"#utility.yul\":6100:6163   */\n      tag_154\n      jump\t// in\n    tag_264:\n        /* \"#utility.yul\":6004:6173   */\n      pop\n        /* \"#utility.yul\":6256:6260   */\n      0x80\n        /* \"#utility.yul\":6249:6254   */\n      dup4\n        /* \"#utility.yul\":6245:6261   */\n      add\n        /* \"#utility.yul\":6239:6262   */\n      mload\n        /* \"#utility.yul\":6275:6338   */\n      tag_265\n        /* \"#utility.yul\":6332:6336   */\n      0x80\n        /* \"#utility.yul\":6327:6330   */\n      dup7\n        /* \"#utility.yul\":6323:6337   */\n      add\n        /* \"#utility.yul\":6309:6321   */\n      dup3\n        /* \"#utility.yul\":6275:6338   */\n      tag_154\n      jump\t// in\n    tag_265:\n        /* \"#utility.yul\":6183:6348   */\n      pop\n        /* \"#utility.yul\":6365:6369   */\n      dup1\n        /* \"#utility.yul\":6358:6369   */\n      swap2\n      pop\n        /* \"#utility.yul\":5362:6375   */\n      pop\n        /* \"#utility.yul\":5256:6375   */\n      swap3\n      swap2\n      pop\n      pop\n      jump\t// out\n        /* \"#utility.yul\":6381:6621   */\n    tag_159:\n        /* \"#utility.yul\":6492:6502   */\n      0x00\n        /* \"#utility.yul\":6527:6615   */\n      tag_267\n        /* \"#utility.yul\":6611:6614   */\n      dup4\n        /* \"#utility.yul\":6603:6609   */\n      dup4\n        /* \"#utility.yul\":6527:6615   */\n      tag_158\n      jump\t// in\n    tag_267:\n        /* \"#utility.yul\":6513:6615   */\n      swap1\n      pop\n        /* \"#utility.yul\":6381:6621   */\n      swap3\n      swap2\n      pop\n      pop\n      jump\t// out\n        /* \"#utility.yul\":6627:6761   */\n    tag_160:\n        /* \"#utility.yul\":6718:6722   */\n      0x00\n        /* \"#utility.yul\":6750:6754   */\n      0x20\n        /* \"#utility.yul\":6745:6748   */\n      dup3\n        /* \"#utility.yul\":6741:6755   */\n      add\n        /* \"#utility.yul\":6733:6755   */\n      swap1\n      pop\n        /* \"#utility.yul\":6627:6761   */\n      swap2\n      swap1\n      pop\n      jump\t// out\n        /* \"#utility.yul\":6823:7902   */\n    tag_161:\n        /* \"#utility.yul\":6984:6987   */\n      0x00\n        /* \"#utility.yul\":7013:7088   */\n      tag_270\n        /* \"#utility.yul\":7082:7087   */\n      dup3\n        /* \"#utility.yul\":7013:7088   */\n      tag_151\n      jump\t// in\n    tag_270:\n        /* \"#utility.yul\":7104:7211   */\n      tag_271\n        /* \"#utility.yul\":7204:7210   */\n      dup2\n        /* \"#utility.yul\":7199:7202   */\n      dup6\n        /* \"#utility.yul\":7104:7211   */\n      tag_152\n      jump\t// in\n    tag_271:\n        /* \"#utility.yul\":7097:7211   */\n      swap4\n      pop\n        /* \"#utility.yul\":7237:7240   */\n      dup4\n        /* \"#utility.yul\":7282:7286   */\n      0x20\n        /* \"#utility.yul\":7274:7280   */\n      dup3\n        /* \"#utility.yul\":7270:7287   */\n      mul\n        /* \"#utility.yul\":7265:7268   */\n      dup6\n        /* \"#utility.yul\":7261:7288   */\n      add\n        /* \"#utility.yul\":7312:7389   */\n      tag_272\n        /* \"#utility.yul\":7383:7388   */\n      dup6\n        /* \"#utility.yul\":7312:7389   */\n      tag_153\n      jump\t// in\n    tag_272:\n        /* \"#utility.yul\":7412:7419   */\n      dup1\n        /* \"#utility.yul\":7443:7444   */\n      0x00\n        /* \"#utility.yul\":7428:7857   */\n    tag_273:\n        /* \"#utility.yul\":7453:7459   */\n      dup6\n        /* \"#utility.yul\":7450:7451   */\n      dup2\n        /* \"#utility.yul\":7447:7460   */\n      lt\n        /* \"#utility.yul\":7428:7857   */\n      iszero\n      tag_275\n      jumpi\n        /* \"#utility.yul\":7524:7533   */\n      dup5\n        /* \"#utility.yul\":7518:7522   */\n      dup5\n        /* \"#utility.yul\":7514:7534   */\n      sub\n        /* \"#utility.yul\":7509:7512   */\n      dup10\n        /* \"#utility.yul\":7502:7535   */\n      mstore\n        /* \"#utility.yul\":7575:7581   */\n      dup2\n        /* \"#utility.yul\":7569:7582   */\n      mload\n        /* \"#utility.yul\":7603:7709   */\n      tag_276\n        /* \"#utility.yul\":7704:7708   */\n      dup6\n        /* \"#utility.yul\":7689:7702   */\n      dup3\n        /* \"#utility.yul\":7603:7709   */\n      tag_159\n      jump\t// in\n    tag_276:\n        /* \"#utility.yul\":7595:7709   */\n      swap5\n      pop\n        /* \"#utility.yul\":7732:7813   */\n      tag_277\n        /* \"#utility.yul\":7806:7812   */\n      dup4\n        /* \"#utility.yul\":7732:7813   */\n      tag_160\n      jump\t// in\n    tag_277:\n        /* \"#utility.yul\":7722:7813   */\n      swap3\n      pop\n        /* \"#utility.yul\":7842:7846   */\n      0x20\n        /* \"#utility.yul\":7837:7840   */\n      dup11\n        /* \"#utility.yul\":7833:7847   */\n      add\n        /* \"#utility.yul\":7826:7847   */\n      swap10\n      pop\n        /* \"#utility.yul\":7488:7857   */\n      pop\n        /* \"#utility.yul\":7475:7476   */\n      0x01\n        /* \"#utility.yul\":7472:7473   */\n      dup2\n        /* \"#utility.yul\":7468:7477   */\n      add\n        /* \"#utility.yul\":7463:7477   */\n      swap1\n      pop\n        /* \"#utility.yul\":7428:7857   */\n      jump(tag_273)\n    tag_275:\n        /* \"#utility.yul\":7432:7446   */\n      pop\n        /* \"#utility.yul\":7873:7877   */\n      dup3\n        /* \"#utility.yul\":7866:7877   */\n      swap8\n      pop\n        /* \"#utility.yul\":7893:7896   */\n      dup8\n        /* \"#utility.yul\":7886:7896   */\n      swap6\n      pop\n        /* \"#utility.yul\":6989:7902   */\n      pop\n      pop\n      pop\n      pop\n      pop\n        /* \"#utility.yul\":6823:7902   */\n      swap3\n      swap2\n      pop\n      pop\n      jump\t// out\n        /* \"#utility.yul\":7908:8365   */\n    tag_24:\n        /* \"#utility.yul\":8093:8097   */\n      0x00\n        /* \"#utility.yul\":8131:8133   */\n      0x20\n        /* \"#utility.yul\":8120:8129   */\n      dup3\n        /* \"#utility.yul\":8116:8134   */\n      add\n        /* \"#utility.yul\":8108:8134   */\n      swap1\n      pop\n        /* \"#utility.yul\":8180:8189   */\n      dup2\n        /* \"#utility.yul\":8174:8178   */\n      dup2\n        /* \"#utility.yul\":8170:8190   */\n      sub\n        /* \"#utility.yul\":8166:8167   */\n      0x00\n        /* \"#utility.yul\":8155:8164   */\n      dup4\n        /* \"#utility.yul\":8151:8168   */\n      add\n        /* \"#utility.yul\":8144:8191   */\n      mstore\n        /* \"#utility.yul\":8208:8358   */\n      tag_279\n        /* \"#utility.yul\":8353:8357   */\n      dup2\n        /* \"#utility.yul\":8344:8350   */\n      dup5\n        /* \"#utility.yul\":8208:8358   */\n      tag_161\n      jump\t// in\n    tag_279:\n        /* \"#utility.yul\":8200:8358   */\n      swap1\n      pop\n        /* \"#utility.yul\":7908:8365   */\n      swap3\n      swap2\n      pop\n      pop\n      jump\t// out\n        /* \"#utility.yul\":8371:8460   */\n    tag_162:\n        /* \"#utility.yul\":8407:8414   */\n      0x00\n        /* \"#utility.yul\":8447:8453   */\n      0xffff\n        /* \"#utility.yul\":8440:8445   */\n      dup3\n        /* \"#utility.yul\":8436:8454   */\n      and\n        /* \"#utility.yul\":8425:8454   */\n      swap1\n      pop\n        /* \"#utility.yul\":8371:8460   */\n      swap2\n      swap1\n      pop\n      jump\t// out\n        /* \"#utility.yul\":8466:8586   */\n    tag_163:\n        /* \"#utility.yul\":8538:8561   */\n      tag_282\n        /* \"#utility.yul\":8555:8560   */\n      dup2\n        /* \"#utility.yul\":8538:8561   */\n      tag_162\n      jump\t// in\n    tag_282:\n        /* \"#utility.yul\":8531:8536   */\n      dup2\n        /* \"#utility.yul\":8528:8562   */\n      eq\n        /* \"#utility.yul\":8518:8580   */\n      tag_283\n      jumpi\n        /* \"#utility.yul\":8576:8577   */\n      0x00\n        /* \"#utility.yul\":8573:8574   */\n      dup1\n        /* \"#utility.yul\":8566:8578   */\n      revert\n        /* \"#utility.yul\":8518:8580   */\n    tag_283:\n        /* \"#utility.yul\":8466:8586   */\n      pop\n      jump\t// out\n        /* \"#utility.yul\":8592:8729   */\n    tag_164:\n        /* \"#utility.yul\":8637:8642   */\n      0x00\n        /* \"#utility.yul\":8675:8681   */\n      dup2\n        /* \"#utility.yul\":8662:8682   */\n      calldataload\n        /* \"#utility.yul\":8653:8682   */\n      swap1\n      pop\n        /* \"#utility.yul\":8691:8723   */\n      tag_285\n        /* \"#utility.yul\":8717:8722   */\n      dup2\n        /* \"#utility.yul\":8691:8723   */\n      tag_163\n      jump\t// in\n    tag_285:\n        /* \"#utility.yul\":8592:8729   */\n      swap3\n      swap2\n      pop\n      pop\n      jump\t// out\n        /* \"#utility.yul\":8735:9062   */\n    tag_30:\n        /* \"#utility.yul\":8793:8799   */\n      0x00\n        /* \"#utility.yul\":8842:8844   */\n      0x20\n        /* \"#utility.yul\":8830:8839   */\n      dup3\n        /* \"#utility.yul\":8821:8828   */\n      dup5\n        /* \"#utility.yul\":8817:8840   */\n      sub\n        /* \"#utility.yul\":8813:8845   */\n      slt\n        /* \"#utility.yul\":8810:8929   */\n      iszero\n      tag_287\n      jumpi\n        /* \"#utility.yul\":8848:8927   */\n      tag_288\n      tag_135\n      jump\t// in\n    tag_288:\n        /* \"#utility.yul\":8810:8929   */\n    tag_287:\n        /* \"#utility.yul\":8968:8969   */\n      0x00\n        /* \"#utility.yul\":8993:9045   */\n      tag_289\n        /* \"#utility.yul\":9037:9044   */\n      dup5\n        /* \"#utility.yul\":9028:9034   */\n      dup3\n        /* \"#utility.yul\":9017:9026   */\n      dup6\n        /* \"#utility.yul\":9013:9035   */\n      add\n        /* \"#utility.yul\":8993:9045   */\n      tag_164\n      jump\t// in\n    tag_289:\n        /* \"#utility.yul\":8983:9045   */\n      swap2\n      pop\n        /* \"#utility.yul\":8939:9055   */\n      pop\n        /* \"#utility.yul\":8735:9062   */\n      swap3\n      swap2\n      pop\n      pop\n      jump\t// out\n        /* \"#utility.yul\":9068:9183   */\n    tag_165:\n        /* \"#utility.yul\":9153:9176   */\n      tag_291\n        /* \"#utility.yul\":9170:9175   */\n      dup2\n        /* \"#utility.yul\":9153:9176   */\n      tag_162\n      jump\t// in\n    tag_291:\n        /* \"#utility.yul\":9148:9151   */\n      dup3\n        /* \"#utility.yul\":9141:9177   */\n      mstore\n        /* \"#utility.yul\":9068:9183   */\n      pop\n      pop\n      jump\t// out\n        /* \"#utility.yul\":9189:9407   */\n    tag_38:\n        /* \"#utility.yul\":9280:9284   */\n      0x00\n        /* \"#utility.yul\":9318:9320   */\n      0x20\n        /* \"#utility.yul\":9307:9316   */\n      dup3\n        /* \"#utility.yul\":9303:9321   */\n      add\n        /* \"#utility.yul\":9295:9321   */\n      swap1\n      pop\n        /* \"#utility.yul\":9331:9400   */\n      tag_293\n        /* \"#utility.yul\":9397:9398   */\n      0x00\n        /* \"#utility.yul\":9386:9395   */\n      dup4\n        /* \"#utility.yul\":9382:9399   */\n      add\n        /* \"#utility.yul\":9373:9379   */\n      dup5\n        /* \"#utility.yul\":9331:9400   */\n      tag_165\n      jump\t// in\n    tag_293:\n        /* \"#utility.yul\":9189:9407   */\n      swap3\n      swap2\n      pop\n      pop\n      jump\t// out\n        /* \"#utility.yul\":9413:9530   */\n    tag_166:\n        /* \"#utility.yul\":9522:9523   */\n      0x00\n        /* \"#utility.yul\":9519:9520   */\n      dup1\n        /* \"#utility.yul\":9512:9524   */\n      revert\n        /* \"#utility.yul\":9536:9653   */\n    tag_167:\n        /* \"#utility.yul\":9645:9646   */\n      0x00\n        /* \"#utility.yul\":9642:9643   */\n      dup1\n        /* \"#utility.yul\":9635:9647   */\n      revert\n        /* \"#utility.yul\":9659:9839   */\n    tag_168:\n        /* \"#utility.yul\":9707:9784   */\n      0x4e487b7100000000000000000000000000000000000000000000000000000000\n        /* \"#utility.yul\":9704:9705   */\n      0x00\n        /* \"#utility.yul\":9697:9785   */\n      mstore\n        /* \"#utility.yul\":9804:9808   */\n      0x41\n        /* \"#utility.yul\":9801:9802   */\n      0x04\n        /* \"#utility.yul\":9794:9809   */\n      mstore\n        /* \"#utility.yul\":9828:9832   */\n      0x24\n        /* \"#utility.yul\":9825:9826   */\n      0x00\n        /* \"#utility.yul\":9818:9833   */\n      revert\n        /* \"#utility.yul\":9845:10126   */\n    tag_169:\n        /* \"#utility.yul\":9928:9955   */\n      tag_298\n        /* \"#utility.yul\":9950:9954   */\n      dup3\n        /* \"#utility.yul\":9928:9955   */\n      tag_149\n      jump\t// in\n    tag_298:\n        /* \"#utility.yul\":9920:9926   */\n      dup2\n        /* \"#utility.yul\":9916:9956   */\n      add\n        /* \"#utility.yul\":10058:10064   */\n      dup2\n        /* \"#utility.yul\":10046:10056   */\n      dup2\n        /* \"#utility.yul\":10043:10065   */\n      lt\n        /* \"#utility.yul\":10022:10040   */\n      0xffffffffffffffff\n        /* \"#utility.yul\":10010:10020   */\n      dup3\n        /* \"#utility.yul\":10007:10041   */\n      gt\n        /* \"#utility.yul\":10004:10066   */\n      or\n        /* \"#utility.yul\":10001:10089   */\n      iszero\n      tag_299\n      jumpi\n        /* \"#utility.yul\":10069:10087   */\n      tag_300\n      tag_168\n      jump\t// in\n    tag_300:\n        /* \"#utility.yul\":10001:10089   */\n    tag_299:\n        /* \"#utility.yul\":10109:10119   */\n      dup1\n        /* \"#utility.yul\":10105:10107   */\n      0x40\n        /* \"#utility.yul\":10098:10120   */\n      mstore\n        /* \"#utility.yul\":9888:10126   */\n      pop\n        /* \"#utility.yul\":9845:10126   */\n      pop\n      pop\n      jump\t// out\n        /* \"#utility.yul\":10132:10261   */\n    tag_170:\n        /* \"#utility.yul\":10166:10172   */\n      0x00\n        /* \"#utility.yul\":10193:10213   */\n      tag_302\n      tag_134\n      jump\t// in\n    tag_302:\n        /* \"#utility.yul\":10183:10213   */\n      swap1\n      pop\n        /* \"#utility.yul\":10222:10255   */\n      tag_303\n        /* \"#utility.yul\":10250:10254   */\n      dup3\n        /* \"#utility.yul\":10242:10248   */\n      dup3\n        /* \"#utility.yul\":10222:10255   */\n      tag_169\n      jump\t// in\n    tag_303:\n        /* \"#utility.yul\":10132:10261   */\n      swap2\n      swap1\n      pop\n      jump\t// out\n        /* \"#utility.yul\":10267:10575   */\n    tag_171:\n        /* \"#utility.yul\":10329:10333   */\n      0x00\n        /* \"#utility.yul\":10419:10437   */\n      0xffffffffffffffff\n        /* \"#utility.yul\":10411:10417   */\n      dup3\n        /* \"#utility.yul\":10408:10438   */\n      gt\n        /* \"#utility.yul\":10405:10461   */\n      iszero\n      tag_305\n      jumpi\n        /* \"#utility.yul\":10441:10459   */\n      tag_306\n      tag_168\n      jump\t// in\n    tag_306:\n        /* \"#utility.yul\":10405:10461   */\n    tag_305:\n        /* \"#utility.yul\":10479:10508   */\n      tag_307\n        /* \"#utility.yul\":10501:10507   */\n      dup3\n        /* \"#utility.yul\":10479:10508   */\n      tag_149\n      jump\t// in\n    tag_307:\n        /* \"#utility.yul\":10471:10508   */\n      swap1\n      pop\n        /* \"#utility.yul\":10563:10567   */\n      0x20\n        /* \"#utility.yul\":10557:10561   */\n      dup2\n        /* \"#utility.yul\":10553:10568   */\n      add\n        /* \"#utility.yul\":10545:10568   */\n      swap1\n      pop\n        /* \"#utility.yul\":10267:10575   */\n      swap2\n      swap1\n      pop\n      jump\t// out\n        /* \"#utility.yul\":10581:10729   */\n    tag_172:\n        /* \"#utility.yul\":10679:10685   */\n      dup3\n        /* \"#utility.yul\":10674:10677   */\n      dup2\n        /* \"#utility.yul\":10669:10672   */\n      dup4\n        /* \"#utility.yul\":10656:10686   */\n      calldatacopy\n        /* \"#utility.yul\":10720:10721   */\n      0x00\n        /* \"#utility.yul\":10711:10717   */\n      dup4\n        /* \"#utility.yul\":10706:10709   */\n      dup4\n        /* \"#utility.yul\":10702:10718   */\n      add\n        /* \"#utility.yul\":10695:10722   */\n      mstore\n        /* \"#utility.yul\":10581:10729   */\n      pop\n      pop\n      pop\n      jump\t// out\n        /* \"#utility.yul\":10735:11160   */\n    tag_173:\n        /* \"#utility.yul\":10813:10818   */\n      0x00\n        /* \"#utility.yul\":10838:10904   */\n      tag_310\n        /* \"#utility.yul\":10854:10903   */\n      tag_311\n        /* \"#utility.yul\":10896:10902   */\n      dup5\n        /* \"#utility.yul\":10854:10903   */\n      tag_171\n      jump\t// in\n    tag_311:\n        /* \"#utility.yul\":10838:10904   */\n      tag_170\n      jump\t// in\n    tag_310:\n        /* \"#utility.yul\":10829:10904   */\n      swap1\n      pop\n        /* \"#utility.yul\":10927:10933   */\n      dup3\n        /* \"#utility.yul\":10920:10925   */\n      dup2\n        /* \"#utility.yul\":10913:10934   */\n      mstore\n        /* \"#utility.yul\":10965:10969   */\n      0x20\n        /* \"#utility.yul\":10958:10963   */\n      dup2\n        /* \"#utility.yul\":10954:10970   */\n      add\n        /* \"#utility.yul\":11003:11006   */\n      dup5\n        /* \"#utility.yul\":10994:11000   */\n      dup5\n        /* \"#utility.yul\":10989:10992   */\n      dup5\n        /* \"#utility.yul\":10985:11001   */\n      add\n        /* \"#utility.yul\":10982:11007   */\n      gt\n        /* \"#utility.yul\":10979:11091   */\n      iszero\n      tag_312\n      jumpi\n        /* \"#utility.yul\":11010:11089   */\n      tag_313\n      tag_167\n      jump\t// in\n    tag_313:\n        /* \"#utility.yul\":10979:11091   */\n    tag_312:\n        /* \"#utility.yul\":11100:11154   */\n      tag_314\n        /* \"#utility.yul\":11147:11153   */\n      dup5\n        /* \"#utility.yul\":11142:11145   */\n      dup3\n        /* \"#utility.yul\":11137:11140   */\n      dup6\n        /* \"#utility.yul\":11100:11154   */\n      tag_172\n      jump\t// in\n    tag_314:\n        /* \"#utility.yul\":10819:11160   */\n      pop\n        /* \"#utility.yul\":10735:11160   */\n      swap4\n      swap3\n      pop\n      pop\n      pop\n      jump\t// out\n        /* \"#utility.yul\":11180:11520   */\n    tag_174:\n        /* \"#utility.yul\":11236:11241   */\n      0x00\n        /* \"#utility.yul\":11285:11288   */\n      dup3\n        /* \"#utility.yul\":11278:11282   */\n      0x1f\n        /* \"#utility.yul\":11270:11276   */\n      dup4\n        /* \"#utility.yul\":11266:11283   */\n      add\n        /* \"#utility.yul\":11262:11289   */\n      slt\n        /* \"#utility.yul\":11252:11374   */\n      tag_316\n      jumpi\n        /* \"#utility.yul\":11293:11372   */\n      tag_317\n      tag_166\n      jump\t// in\n    tag_317:\n        /* \"#utility.yul\":11252:11374   */\n    tag_316:\n        /* \"#utility.yul\":11410:11416   */\n      dup2\n        /* \"#utility.yul\":11397:11417   */\n      calldataload\n        /* \"#utility.yul\":11435:11514   */\n      tag_318\n        /* \"#utility.yul\":11510:11513   */\n      dup5\n        /* \"#utility.yul\":11502:11508   */\n      dup3\n        /* \"#utility.yul\":11495:11499   */\n      0x20\n        /* \"#utility.yul\":11487:11493   */\n      dup7\n        /* \"#utility.yul\":11483:11500   */\n      add\n        /* \"#utility.yul\":11435:11514   */\n      tag_173\n      jump\t// in\n    tag_318:\n        /* \"#utility.yul\":11426:11514   */\n      swap2\n      pop\n        /* \"#utility.yul\":11242:11520   */\n      pop\n        /* \"#utility.yul\":11180:11520   */\n      swap3\n      swap2\n      pop\n      pop\n      jump\t// out\n        /* \"#utility.yul\":11526:12035   */\n    tag_41:\n        /* \"#utility.yul\":11595:11601   */\n      0x00\n        /* \"#utility.yul\":11644:11646   */\n      0x20\n        /* \"#utility.yul\":11632:11641   */\n      dup3\n        /* \"#utility.yul\":11623:11630   */\n      dup5\n        /* \"#utility.yul\":11619:11642   */\n      sub\n        /* \"#utility.yul\":11615:11647   */\n      slt\n        /* \"#utility.yul\":11612:11731   */\n      iszero\n      tag_320\n      jumpi\n        /* \"#utility.yul\":11650:11729   */\n      tag_321\n      tag_135\n      jump\t// in\n    tag_321:\n        /* \"#utility.yul\":11612:11731   */\n    tag_320:\n        /* \"#utility.yul\":11798:11799   */\n      0x00\n        /* \"#utility.yul\":11787:11796   */\n      dup3\n        /* \"#utility.yul\":11783:11800   */\n      add\n        /* \"#utility.yul\":11770:11801   */\n      calldataload\n        /* \"#utility.yul\":11828:11846   */\n      0xffffffffffffffff\n        /* \"#utility.yul\":11820:11826   */\n      dup2\n        /* \"#utility.yul\":11817:11847   */\n      gt\n        /* \"#utility.yul\":11814:11931   */\n      iszero\n      tag_322\n      jumpi\n        /* \"#utility.yul\":11850:11929   */\n      tag_323\n      tag_136\n      jump\t// in\n    tag_323:\n        /* \"#utility.yul\":11814:11931   */\n    tag_322:\n        /* \"#utility.yul\":11955:12018   */\n      tag_324\n        /* \"#utility.yul\":12010:12017   */\n      dup5\n        /* \"#utility.yul\":12001:12007   */\n      dup3\n        /* \"#utility.yul\":11990:11999   */\n      dup6\n        /* \"#utility.yul\":11986:12008   */\n      add\n        /* \"#utility.yul\":11955:12018   */\n      tag_174\n      jump\t// in\n    tag_324:\n        /* \"#utility.yul\":11945:12018   */\n      swap2\n      pop\n        /* \"#utility.yul\":11741:12028   */\n      pop\n        /* \"#utility.yul\":11526:12035   */\n      swap3\n      swap2\n      pop\n      pop\n      jump\t// out\n        /* \"#utility.yul\":12041:12263   */\n    tag_46:\n        /* \"#utility.yul\":12134:12138   */\n      0x00\n        /* \"#utility.yul\":12172:12174   */\n      0x20\n        /* \"#utility.yul\":12161:12170   */\n      dup3\n        /* \"#utility.yul\":12157:12175   */\n      add\n        /* \"#utility.yul\":12149:12175   */\n      swap1\n      pop\n        /* \"#utility.yul\":12185:12256   */\n      tag_326\n        /* \"#utility.yul\":12253:12254   */\n      0x00\n        /* \"#utility.yul\":12242:12251   */\n      dup4\n        /* \"#utility.yul\":12238:12255   */\n      add\n        /* \"#utility.yul\":12229:12235   */\n      dup5\n        /* \"#utility.yul\":12185:12256   */\n      tag_145\n      jump\t// in\n    tag_326:\n        /* \"#utility.yul\":12041:12263   */\n      swap3\n      swap2\n      pop\n      pop\n      jump\t// out\n        /* \"#utility.yul\":12269:12598   */\n    tag_49:\n        /* \"#utility.yul\":12328:12334   */\n      0x00\n        /* \"#utility.yul\":12377:12379   */\n      0x20\n        /* \"#utility.yul\":12365:12374   */\n      dup3\n        /* \"#utility.yul\":12356:12363   */\n      dup5\n        /* \"#utility.yul\":12352:12375   */\n      sub\n        /* \"#utility.yul\":12348:12380   */\n      slt\n        /* \"#utility.yul\":12345:12464   */\n      iszero\n      tag_328\n      jumpi\n        /* \"#utility.yul\":12383:12462   */\n      tag_329\n      tag_135\n      jump\t// in\n    tag_329:\n        /* \"#utility.yul\":12345:12464   */\n    tag_328:\n        /* \"#utility.yul\":12503:12504   */\n      0x00\n        /* \"#utility.yul\":12528:12581   */\n      tag_330\n        /* \"#utility.yul\":12573:12580   */\n      dup5\n        /* \"#utility.yul\":12564:12570   */\n      dup3\n        /* \"#utility.yul\":12553:12562   */\n      dup6\n        /* \"#utility.yul\":12549:12571   */\n      add\n        /* \"#utility.yul\":12528:12581   */\n      tag_143\n      jump\t// in\n    tag_330:\n        /* \"#utility.yul\":12518:12581   */\n      swap2\n      pop\n        /* \"#utility.yul\":12474:12591   */\n      pop\n        /* \"#utility.yul\":12269:12598   */\n      swap3\n      swap2\n      pop\n      pop\n      jump\t// out\n        /* \"#utility.yul\":12656:13785   */\n    tag_175:\n        /* \"#utility.yul\":12767:12770   */\n      0x00\n        /* \"#utility.yul\":12803:12807   */\n      0xa0\n        /* \"#utility.yul\":12798:12801   */\n      dup4\n        /* \"#utility.yul\":12794:12808   */\n      add\n        /* \"#utility.yul\":12888:12892   */\n      0x00\n        /* \"#utility.yul\":12881:12886   */\n      dup4\n        /* \"#utility.yul\":12877:12893   */\n      add\n        /* \"#utility.yul\":12871:12894   */\n      mload\n        /* \"#utility.yul\":12907:12970   */\n      tag_332\n        /* \"#utility.yul\":12964:12968   */\n      0x00\n        /* \"#utility.yul\":12959:12962   */\n      dup7\n        /* \"#utility.yul\":12955:12969   */\n      add\n        /* \"#utility.yul\":12941:12953   */\n      dup3\n        /* \"#utility.yul\":12907:12970   */\n      tag_154\n      jump\t// in\n    tag_332:\n        /* \"#utility.yul\":12818:12980   */\n      pop\n        /* \"#utility.yul\":13064:13068   */\n      0x20\n        /* \"#utility.yul\":13057:13062   */\n      dup4\n        /* \"#utility.yul\":13053:13069   */\n      add\n        /* \"#utility.yul\":13047:13070   */\n      mload\n        /* \"#utility.yul\":13083:13146   */\n      tag_333\n        /* \"#utility.yul\":13140:13144   */\n      0x20\n        /* \"#utility.yul\":13135:13138   */\n      dup7\n        /* \"#utility.yul\":13131:13145   */\n      add\n        /* \"#utility.yul\":13117:13129   */\n      dup3\n        /* \"#utility.yul\":13083:13146   */\n      tag_155\n      jump\t// in\n    tag_333:\n        /* \"#utility.yul\":12990:13156   */\n      pop\n        /* \"#utility.yul\":13241:13245   */\n      0x40\n        /* \"#utility.yul\":13234:13239   */\n      dup4\n        /* \"#utility.yul\":13230:13246   */\n      add\n        /* \"#utility.yul\":13224:13247   */\n      mload\n        /* \"#utility.yul\":13294:13297   */\n      dup5\n        /* \"#utility.yul\":13288:13292   */\n      dup3\n        /* \"#utility.yul\":13284:13298   */\n      sub\n        /* \"#utility.yul\":13277:13281   */\n      0x40\n        /* \"#utility.yul\":13272:13275   */\n      dup7\n        /* \"#utility.yul\":13268:13282   */\n      add\n        /* \"#utility.yul\":13261:13299   */\n      mstore\n        /* \"#utility.yul\":13320:13393   */\n      tag_334\n        /* \"#utility.yul\":13388:13392   */\n      dup3\n        /* \"#utility.yul\":13374:13386   */\n      dup3\n        /* \"#utility.yul\":13320:13393   */\n      tag_157\n      jump\t// in\n    tag_334:\n        /* \"#utility.yul\":13312:13393   */\n      swap2\n      pop\n        /* \"#utility.yul\":13166:13404   */\n      pop\n        /* \"#utility.yul\":13491:13495   */\n      0x60\n        /* \"#utility.yul\":13484:13489   */\n      dup4\n        /* \"#utility.yul\":13480:13496   */\n      add\n        /* \"#utility.yul\":13474:13497   */\n      mload\n        /* \"#utility.yul\":13510:13573   */\n      tag_335\n        /* \"#utility.yul\":13567:13571   */\n      0x60\n        /* \"#utility.yul\":13562:13565   */\n      dup7\n        /* \"#utility.yul\":13558:13572   */\n      add\n        /* \"#utility.yul\":13544:13556   */\n      dup3\n        /* \"#utility.yul\":13510:13573   */\n      tag_154\n      jump\t// in\n    tag_335:\n        /* \"#utility.yul\":13414:13583   */\n      pop\n        /* \"#utility.yul\":13666:13670   */\n      0x80\n        /* \"#utility.yul\":13659:13664   */\n      dup4\n        /* \"#utility.yul\":13655:13671   */\n      add\n        /* \"#utility.yul\":13649:13672   */\n      mload\n        /* \"#utility.yul\":13685:13748   */\n      tag_336\n        /* \"#utility.yul\":13742:13746   */\n      0x80\n        /* \"#utility.yul\":13737:13740   */\n      dup7\n        /* \"#utility.yul\":13733:13747   */\n      add\n        /* \"#utility.yul\":13719:13731   */\n      dup3\n        /* \"#utility.yul\":13685:13748   */\n      tag_154\n      jump\t// in\n    tag_336:\n        /* \"#utility.yul\":13593:13758   */\n      pop\n        /* \"#utility.yul\":13775:13779   */\n      dup1\n        /* \"#utility.yul\":13768:13779   */\n      swap2\n      pop\n        /* \"#utility.yul\":12772:13785   */\n      pop\n        /* \"#utility.yul\":12656:13785   */\n      swap3\n      swap2\n      pop\n      pop\n      jump\t// out\n        /* \"#utility.yul\":13791:14148   */\n    tag_52:\n        /* \"#utility.yul\":13926:13930   */\n      0x00\n        /* \"#utility.yul\":13964:13966   */\n      0x20\n        /* \"#utility.yul\":13953:13962   */\n      dup3\n        /* \"#utility.yul\":13949:13967   */\n      add\n        /* \"#utility.yul\":13941:13967   */\n      swap1\n      pop\n        /* \"#utility.yul\":14013:14022   */\n      dup2\n        /* \"#utility.yul\":14007:14011   */\n      dup2\n        /* \"#utility.yul\":14003:14023   */\n      sub\n        /* \"#utility.yul\":13999:14000   */\n      0x00\n        /* \"#utility.yul\":13988:13997   */\n      dup4\n        /* \"#utility.yul\":13984:14001   */\n      add\n        /* \"#utility.yul\":13977:14024   */\n      mstore\n        /* \"#utility.yul\":14041:14141   */\n      tag_338\n        /* \"#utility.yul\":14136:14140   */\n      dup2\n        /* \"#utility.yul\":14127:14133   */\n      dup5\n        /* \"#utility.yul\":14041:14141   */\n      tag_175\n      jump\t// in\n    tag_338:\n        /* \"#utility.yul\":14033:14141   */\n      swap1\n      pop\n        /* \"#utility.yul\":13791:14148   */\n      swap3\n      swap2\n      pop\n      pop\n      jump\t// out\n        /* \"#utility.yul\":14154:14334   */\n    tag_176:\n        /* \"#utility.yul\":14202:14279   */\n      0x4e487b7100000000000000000000000000000000000000000000000000000000\n        /* \"#utility.yul\":14199:14200   */\n      0x00\n        /* \"#utility.yul\":14192:14280   */\n      mstore\n        /* \"#utility.yul\":14299:14303   */\n      0x22\n        /* \"#utility.yul\":14296:14297   */\n      0x04\n        /* \"#utility.yul\":14289:14304   */\n      mstore\n        /* \"#utility.yul\":14323:14327   */\n      0x24\n        /* \"#utility.yul\":14320:14321   */\n      0x00\n        /* \"#utility.yul\":14313:14328   */\n      revert\n        /* \"#utility.yul\":14340:14660   */\n    tag_56:\n        /* \"#utility.yul\":14384:14390   */\n      0x00\n        /* \"#utility.yul\":14421:14422   */\n      0x02\n        /* \"#utility.yul\":14415:14419   */\n      dup3\n        /* \"#utility.yul\":14411:14423   */\n      div\n        /* \"#utility.yul\":14401:14423   */\n      swap1\n      pop\n        /* \"#utility.yul\":14468:14469   */\n      0x01\n        /* \"#utility.yul\":14462:14466   */\n      dup3\n        /* \"#utility.yul\":14458:14470   */\n      and\n        /* \"#utility.yul\":14489:14507   */\n      dup1\n        /* \"#utility.yul\":14479:14560   */\n      tag_341\n      jumpi\n        /* \"#utility.yul\":14545:14549   */\n      0x7f\n        /* \"#utility.yul\":14537:14543   */\n      dup3\n        /* \"#utility.yul\":14533:14550   */\n      and\n        /* \"#utility.yul\":14523:14550   */\n      swap2\n      pop\n        /* \"#utility.yul\":14479:14560   */\n    tag_341:\n        /* \"#utility.yul\":14607:14609   */\n      0x20\n        /* \"#utility.yul\":14599:14605   */\n      dup3\n        /* \"#utility.yul\":14596:14610   */\n      lt\n        /* \"#utility.yul\":14576:14594   */\n      dup2\n        /* \"#utility.yul\":14573:14611   */\n      sub\n        /* \"#utility.yul\":14570:14654   */\n      tag_342\n      jumpi\n        /* \"#utility.yul\":14626:14644   */\n      tag_343\n      tag_176\n      jump\t// in\n    tag_343:\n        /* \"#utility.yul\":14570:14654   */\n    tag_342:\n        /* \"#utility.yul\":14391:14660   */\n      pop\n        /* \"#utility.yul\":14340:14660   */\n      swap2\n      swap1\n      pop\n      jump\t// out\n        /* \"#utility.yul\":14666:14846   */\n    tag_73:\n        /* \"#utility.yul\":14714:14791   */\n      0x4e487b7100000000000000000000000000000000000000000000000000000000\n        /* \"#utility.yul\":14711:14712   */\n      0x00\n        /* \"#utility.yul\":14704:14792   */\n      mstore\n        /* \"#utility.yul\":14811:14815   */\n      0x32\n        /* \"#utility.yul\":14808:14809   */\n      0x04\n        /* \"#utility.yul\":14801:14816   */\n      mstore\n        /* \"#utility.yul\":14835:14839   */\n      0x24\n        /* \"#utility.yul\":14832:14833   */\n      0x00\n        /* \"#utility.yul\":14825:14840   */\n      revert\n        /* \"#utility.yul\":14852:15022   */\n    tag_177:\n        /* \"#utility.yul\":14992:15014   */\n      0x547765657420446f6573204e6f74204578697374000000000000000000000000\n        /* \"#utility.yul\":14988:14989   */\n      0x00\n        /* \"#utility.yul\":14980:14986   */\n      dup3\n        /* \"#utility.yul\":14976:14990   */\n      add\n        /* \"#utility.yul\":14969:15015   */\n      mstore\n        /* \"#utility.yul\":14852:15022   */\n      pop\n      jump\t// out\n        /* \"#utility.yul\":15028:15394   */\n    tag_178:\n        /* \"#utility.yul\":15170:15173   */\n      0x00\n        /* \"#utility.yul\":15191:15258   */\n      tag_347\n        /* \"#utility.yul\":15255:15257   */\n      0x14\n        /* \"#utility.yul\":15250:15253   */\n      dup4\n        /* \"#utility.yul\":15191:15258   */\n      tag_147\n      jump\t// in\n    tag_347:\n        /* \"#utility.yul\":15184:15258   */\n      swap2\n      pop\n        /* \"#utility.yul\":15267:15360   */\n      tag_348\n        /* \"#utility.yul\":15356:15359   */\n      dup3\n        /* \"#utility.yul\":15267:15360   */\n      tag_177\n      jump\t// in\n    tag_348:\n        /* \"#utility.yul\":15385:15387   */\n      0x20\n        /* \"#utility.yul\":15380:15383   */\n      dup3\n        /* \"#utility.yul\":15376:15388   */\n      add\n        /* \"#utility.yul\":15369:15388   */\n      swap1\n      pop\n        /* \"#utility.yul\":15028:15394   */\n      swap2\n      swap1\n      pop\n      jump\t// out\n        /* \"#utility.yul\":15400:15819   */\n    tag_77:\n        /* \"#utility.yul\":15566:15570   */\n      0x00\n        /* \"#utility.yul\":15604:15606   */\n      0x20\n        /* \"#utility.yul\":15593:15602   */\n      dup3\n        /* \"#utility.yul\":15589:15607   */\n      add\n        /* \"#utility.yul\":15581:15607   */\n      swap1\n      pop\n        /* \"#utility.yul\":15653:15662   */\n      dup2\n        /* \"#utility.yul\":15647:15651   */\n      dup2\n        /* \"#utility.yul\":15643:15663   */\n      sub\n        /* \"#utility.yul\":15639:15640   */\n      0x00\n        /* \"#utility.yul\":15628:15637   */\n      dup4\n        /* \"#utility.yul\":15624:15641   */\n      add\n        /* \"#utility.yul\":15617:15664   */\n      mstore\n        /* \"#utility.yul\":15681:15812   */\n      tag_350\n        /* \"#utility.yul\":15807:15811   */\n      dup2\n        /* \"#utility.yul\":15681:15812   */\n      tag_178\n      jump\t// in\n    tag_350:\n        /* \"#utility.yul\":15673:15812   */\n      swap1\n      pop\n        /* \"#utility.yul\":15400:15819   */\n      swap2\n      swap1\n      pop\n      jump\t// out\n        /* \"#utility.yul\":15825:15993   */\n    tag_179:\n        /* \"#utility.yul\":15965:15985   */\n      0x547765657420486173204e6f204c696b65730000000000000000000000000000\n        /* \"#utility.yul\":15961:15962   */\n      0x00\n        /* \"#utility.yul\":15953:15959   */\n      dup3\n        /* \"#utility.yul\":15949:15963   */\n      add\n        /* \"#utility.yul\":15942:15986   */\n      mstore\n        /* \"#utility.yul\":15825:15993   */\n      pop\n      jump\t// out\n        /* \"#utility.yul\":15999:16365   */\n    tag_180:\n        /* \"#utility.yul\":16141:16144   */\n      0x00\n        /* \"#utility.yul\":16162:16229   */\n      tag_353\n        /* \"#utility.yul\":16226:16228   */\n      0x12\n        /* \"#utility.yul\":16221:16224   */\n      dup4\n        /* \"#utility.yul\":16162:16229   */\n      tag_147\n      jump\t// in\n    tag_353:\n        /* \"#utility.yul\":16155:16229   */\n      swap2\n      pop\n        /* \"#utility.yul\":16238:16331   */\n      tag_354\n        /* \"#utility.yul\":16327:16330   */\n      dup3\n        /* \"#utility.yul\":16238:16331   */\n      tag_179\n      jump\t// in\n    tag_354:\n        /* \"#utility.yul\":16356:16358   */\n      0x20\n        /* \"#utility.yul\":16351:16354   */\n      dup3\n        /* \"#utility.yul\":16347:16359   */\n      add\n        /* \"#utility.yul\":16340:16359   */\n      swap1\n      pop\n        /* \"#utility.yul\":15999:16365   */\n      swap2\n      swap1\n      pop\n      jump\t// out\n        /* \"#utility.yul\":16371:16790   */\n    tag_83:\n        /* \"#utility.yul\":16537:16541   */\n      0x00\n        /* \"#utility.yul\":16575:16577   */\n      0x20\n        /* \"#utility.yul\":16564:16573   */\n      dup3\n        /* \"#utility.yul\":16560:16578   */\n      add\n        /* \"#utility.yul\":16552:16578   */\n      swap1\n      pop\n        /* \"#utility.yul\":16624:16633   */\n      dup2\n        /* \"#utility.yul\":16618:16622   */\n      dup2\n        /* \"#utility.yul\":16614:16634   */\n      sub\n        /* \"#utility.yul\":16610:16611   */\n      0x00\n        /* \"#utility.yul\":16599:16608   */\n      dup4\n        /* \"#utility.yul\":16595:16612   */\n      add\n        /* \"#utility.yul\":16588:16635   */\n      mstore\n        /* \"#utility.yul\":16652:16783   */\n      tag_356\n        /* \"#utility.yul\":16778:16782   */\n      dup2\n        /* \"#utility.yul\":16652:16783   */\n      tag_180\n      jump\t// in\n    tag_356:\n        /* \"#utility.yul\":16644:16783   */\n      swap1\n      pop\n        /* \"#utility.yul\":16371:16790   */\n      swap2\n      swap1\n      pop\n      jump\t// out\n        /* \"#utility.yul\":16796:16976   */\n    tag_181:\n        /* \"#utility.yul\":16844:16921   */\n      0x4e487b7100000000000000000000000000000000000000000000000000000000\n        /* \"#utility.yul\":16841:16842   */\n      0x00\n        /* \"#utility.yul\":16834:16922   */\n      mstore\n        /* \"#utility.yul\":16941:16945   */\n      0x11\n        /* \"#utility.yul\":16938:16939   */\n      0x04\n        /* \"#utility.yul\":16931:16946   */\n      mstore\n        /* \"#utility.yul\":16965:16969   */\n      0x24\n        /* \"#utility.yul\":16962:16963   */\n      0x00\n        /* \"#utility.yul\":16955:16970   */\n      revert\n        /* \"#utility.yul\":16982:17153   */\n    tag_88:\n        /* \"#utility.yul\":17021:17024   */\n      0x00\n        /* \"#utility.yul\":17044:17068   */\n      tag_359\n        /* \"#utility.yul\":17062:17067   */\n      dup3\n        /* \"#utility.yul\":17044:17068   */\n      tag_141\n      jump\t// in\n    tag_359:\n        /* \"#utility.yul\":17035:17068   */\n      swap2\n      pop\n        /* \"#utility.yul\":17090:17094   */\n      0x00\n        /* \"#utility.yul\":17083:17088   */\n      dup3\n        /* \"#utility.yul\":17080:17095   */\n      sub\n        /* \"#utility.yul\":17077:17118   */\n      tag_360\n      jumpi\n        /* \"#utility.yul\":17098:17116   */\n      tag_361\n      tag_181\n      jump\t// in\n    tag_361:\n        /* \"#utility.yul\":17077:17118   */\n    tag_360:\n        /* \"#utility.yul\":17145:17146   */\n      0x01\n        /* \"#utility.yul\":17138:17143   */\n      dup3\n        /* \"#utility.yul\":17134:17147   */\n      sub\n        /* \"#utility.yul\":17127:17147   */\n      swap1\n      pop\n        /* \"#utility.yul\":16982:17153   */\n      swap2\n      swap1\n      pop\n      jump\t// out\n        /* \"#utility.yul\":17159:17381   */\n    tag_93:\n        /* \"#utility.yul\":17252:17256   */\n      0x00\n        /* \"#utility.yul\":17290:17292   */\n      0x20\n        /* \"#utility.yul\":17279:17288   */\n      dup3\n        /* \"#utility.yul\":17275:17293   */\n      add\n        /* \"#utility.yul\":17267:17293   */\n      swap1\n      pop\n        /* \"#utility.yul\":17303:17374   */\n      tag_363\n        /* \"#utility.yul\":17371:17372   */\n      0x00\n        /* \"#utility.yul\":17360:17369   */\n      dup4\n        /* \"#utility.yul\":17356:17373   */\n      add\n        /* \"#utility.yul\":17347:17353   */\n      dup5\n        /* \"#utility.yul\":17303:17374   */\n      tag_144\n      jump\t// in\n    tag_363:\n        /* \"#utility.yul\":17159:17381   */\n      swap3\n      swap2\n      pop\n      pop\n      jump\t// out\n        /* \"#utility.yul\":17387:17554   */\n    tag_182:\n        /* \"#utility.yul\":17527:17546   */\n      0x596f7520617265206e6f74204f776e6572000000000000000000000000000000\n        /* \"#utility.yul\":17523:17524   */\n      0x00\n        /* \"#utility.yul\":17515:17521   */\n      dup3\n        /* \"#utility.yul\":17511:17525   */\n      add\n        /* \"#utility.yul\":17504:17547   */\n      mstore\n        /* \"#utility.yul\":17387:17554   */\n      pop\n      jump\t// out\n        /* \"#utility.yul\":17560:17926   */\n    tag_183:\n        /* \"#utility.yul\":17702:17705   */\n      0x00\n        /* \"#utility.yul\":17723:17790   */\n      tag_366\n        /* \"#utility.yul\":17787:17789   */\n      0x11\n        /* \"#utility.yul\":17782:17785   */\n      dup4\n        /* \"#utility.yul\":17723:17790   */\n      tag_147\n      jump\t// in\n    tag_366:\n        /* \"#utility.yul\":17716:17790   */\n      swap2\n      pop\n        /* \"#utility.yul\":17799:17892   */\n      tag_367\n        /* \"#utility.yul\":17888:17891   */\n      dup3\n        /* \"#utility.yul\":17799:17892   */\n      tag_182\n      jump\t// in\n    tag_367:\n        /* \"#utility.yul\":17917:17919   */\n      0x20\n        /* \"#utility.yul\":17912:17915   */\n      dup3\n        /* \"#utility.yul\":17908:17920   */\n      add\n        /* \"#utility.yul\":17901:17920   */\n      swap1\n      pop\n        /* \"#utility.yul\":17560:17926   */\n      swap2\n      swap1\n      pop\n      jump\t// out\n        /* \"#utility.yul\":17932:18351   */\n    tag_97:\n        /* \"#utility.yul\":18098:18102   */\n      0x00\n        /* \"#utility.yul\":18136:18138   */\n      0x20\n        /* \"#utility.yul\":18125:18134   */\n      dup3\n        /* \"#utility.yul\":18121:18139   */\n      add\n        /* \"#utility.yul\":18113:18139   */\n      swap1\n      pop\n        /* \"#utility.yul\":18185:18194   */\n      dup2\n        /* \"#utility.yul\":18179:18183   */\n      dup2\n        /* \"#utility.yul\":18175:18195   */\n      sub\n        /* \"#utility.yul\":18171:18172   */\n      0x00\n        /* \"#utility.yul\":18160:18169   */\n      dup4\n        /* \"#utility.yul\":18156:18173   */\n      add\n        /* \"#utility.yul\":18149:18196   */\n      mstore\n        /* \"#utility.yul\":18213:18344   */\n      tag_369\n        /* \"#utility.yul\":18339:18343   */\n      dup2\n        /* \"#utility.yul\":18213:18344   */\n      tag_183\n      jump\t// in\n    tag_369:\n        /* \"#utility.yul\":18205:18344   */\n      swap1\n      pop\n        /* \"#utility.yul\":17932:18351   */\n      swap2\n      swap1\n      pop\n      jump\t// out\n        /* \"#utility.yul\":18357:18590   */\n    tag_109:\n        /* \"#utility.yul\":18396:18399   */\n      0x00\n        /* \"#utility.yul\":18419:18443   */\n      tag_371\n        /* \"#utility.yul\":18437:18442   */\n      dup3\n        /* \"#utility.yul\":18419:18443   */\n      tag_141\n      jump\t// in\n    tag_371:\n        /* \"#utility.yul\":18410:18443   */\n      swap2\n      pop\n        /* \"#utility.yul\":18465:18531   */\n      0xffffffffffffffffffffffffffffffffffffffffffffffffffffffffffffffff\n        /* \"#utility.yul\":18458:18463   */\n      dup3\n        /* \"#utility.yul\":18455:18532   */\n      sub\n        /* \"#utility.yul\":18452:18555   */\n      tag_372\n      jumpi\n        /* \"#utility.yul\":18535:18553   */\n      tag_373\n      tag_181\n      jump\t// in\n    tag_373:\n        /* \"#utility.yul\":18452:18555   */\n    tag_372:\n        /* \"#utility.yul\":18582:18583   */\n      0x01\n        /* \"#utility.yul\":18575:18580   */\n      dup3\n        /* \"#utility.yul\":18571:18584   */\n      add\n        /* \"#utility.yul\":18564:18584   */\n      swap1\n      pop\n        /* \"#utility.yul\":18357:18590   */\n      swap2\n      swap1\n      pop\n      jump\t// out\n        /* \"#utility.yul\":18596:18764   */\n    tag_184:\n        /* \"#utility.yul\":18736:18756   */\n      0x547765657420697320746f6f206c6f6e67210000000000000000000000000000\n        /* \"#utility.yul\":18732:18733   */\n      0x00\n        /* \"#utility.yul\":18724:18730   */\n      dup3\n        /* \"#utility.yul\":18720:18734   */\n      add\n        /* \"#utility.yul\":18713:18757   */\n      mstore\n        /* \"#utility.yul\":18596:18764   */\n      pop\n      jump\t// out\n        /* \"#utility.yul\":18770:19136   */\n    tag_185:\n        /* \"#utility.yul\":18912:18915   */\n      0x00\n        /* \"#utility.yul\":18933:19000   */\n      tag_376\n        /* \"#utility.yul\":18997:18999   */\n      0x12\n        /* \"#utility.yul\":18992:18995   */\n      dup4\n        /* \"#utility.yul\":18933:19000   */\n      tag_147\n      jump\t// in\n    tag_376:\n        /* \"#utility.yul\":18926:19000   */\n      swap2\n      pop\n        /* \"#utility.yul\":19009:19102   */\n      tag_377\n        /* \"#utility.yul\":19098:19101   */\n      dup3\n        /* \"#utility.yul\":19009:19102   */\n      tag_184\n      jump\t// in\n    tag_377:\n        /* \"#utility.yul\":19127:19129   */\n      0x20\n        /* \"#utility.yul\":19122:19125   */\n      dup3\n        /* \"#utility.yul\":19118:19130   */\n      add\n        /* \"#utility.yul\":19111:19130   */\n      swap1\n      pop\n        /* \"#utility.yul\":18770:19136   */\n      swap2\n      swap1\n      pop\n      jump\t// out\n        /* \"#utility.yul\":19142:19561   */\n    tag_117:\n        /* \"#utility.yul\":19308:19312   */\n      0x00\n        /* \"#utility.yul\":19346:19348   */\n      0x20\n        /* \"#utility.yul\":19335:19344   */\n      dup3\n        /* \"#utility.yul\":19331:19349   */\n      add\n        /* \"#utility.yul\":19323:19349   */\n      swap1\n      pop\n        /* \"#utility.yul\":19395:19404   */\n      dup2\n        /* \"#utility.yul\":19389:19393   */\n      dup2\n        /* \"#utility.yul\":19385:19405   */\n      sub\n        /* \"#utility.yul\":19381:19382   */\n      0x00\n        /* \"#utility.yul\":19370:19379   */\n      dup4\n        /* \"#utility.yul\":19366:19383   */\n      add\n        /* \"#utility.yul\":19359:19406   */\n      mstore\n        /* \"#utility.yul\":19423:19554   */\n      tag_379\n        /* \"#utility.yul\":19549:19553   */\n      dup2\n        /* \"#utility.yul\":19423:19554   */\n      tag_185\n      jump\t// in\n    tag_379:\n        /* \"#utility.yul\":19415:19554   */\n      swap1\n      pop\n        /* \"#utility.yul\":19142:19561   */\n      swap2\n      swap1\n      pop\n      jump\t// out\n        /* \"#utility.yul\":19567:19708   */\n    tag_186:\n        /* \"#utility.yul\":19616:19620   */\n      0x00\n        /* \"#utility.yul\":19639:19642   */\n      dup2\n        /* \"#utility.yul\":19631:19642   */\n      swap1\n      pop\n        /* \"#utility.yul\":19662:19665   */\n      dup2\n        /* \"#utility.yul\":19659:19660   */\n      0x00\n        /* \"#utility.yul\":19652:19666   */\n      mstore\n        /* \"#utility.yul\":19696:19700   */\n      0x20\n        /* \"#utility.yul\":19693:19694   */\n      0x00\n        /* \"#utility.yul\":19683:19701   */\n      keccak256\n        /* \"#utility.yul\":19675:19701   */\n      swap1\n      pop\n        /* \"#utility.yul\":19567:19708   */\n      swap2\n      swap1\n      pop\n      jump\t// out\n        /* \"#utility.yul\":19714:19807   */\n    tag_187:\n        /* \"#utility.yul\":19751:19757   */\n      0x00\n        /* \"#utility.yul\":19798:19800   */\n      0x20\n        /* \"#utility.yul\":19793:19795   */\n      0x1f\n        /* \"#utility.yul\":19786:19791   */\n      dup4\n        /* \"#utility.yul\":19782:19796   */\n      add\n        /* \"#utility.yul\":19778:19801   */\n      div\n        /* \"#utility.yul\":19768:19801   */\n      swap1\n      pop\n        /* \"#utility.yul\":19714:19807   */\n      swap2\n      swap1\n      pop\n      jump\t// out\n        /* \"#utility.yul\":19813:19920   */\n    tag_188:\n        /* \"#utility.yul\":19857:19865   */\n      0x00\n        /* \"#utility.yul\":19907:19912   */\n      dup3\n        /* \"#utility.yul\":19901:19905   */\n      dup3\n        /* \"#utility.yul\":19897:19913   */\n      shl\n        /* \"#utility.yul\":19876:19913   */\n      swap1\n      pop\n        /* \"#utility.yul\":19813:19920   */\n      swap3\n      swap2\n      pop\n      pop\n      jump\t// out\n        /* \"#utility.yul\":19926:20319   */\n    tag_189:\n        /* \"#utility.yul\":19995:20001   */\n      0x00\n        /* \"#utility.yul\":20045:20046   */\n      0x08\n        /* \"#utility.yul\":20033:20043   */\n      dup4\n        /* \"#utility.yul\":20029:20047   */\n      mul\n        /* \"#utility.yul\":20068:20165   */\n      tag_384\n        /* \"#utility.yul\":20098:20164   */\n      0xffffffffffffffffffffffffffffffffffffffffffffffffffffffffffffffff\n        /* \"#utility.yul\":20087:20096   */\n      dup3\n        /* \"#utility.yul\":20068:20165   */\n      tag_188\n      jump\t// in\n    tag_384:\n        /* \"#utility.yul\":20186:20225   */\n      tag_385\n        /* \"#utility.yul\":20216:20224   */\n      dup7\n        /* \"#utility.yul\":20205:20214   */\n      dup4\n        /* \"#utility.yul\":20186:20225   */\n      tag_188\n      jump\t// in\n    tag_385:\n        /* \"#utility.yul\":20174:20225   */\n      swap6\n      pop\n        /* \"#utility.yul\":20258:20262   */\n      dup1\n        /* \"#utility.yul\":20254:20263   */\n      not\n        /* \"#utility.yul\":20247:20252   */\n      dup5\n        /* \"#utility.yul\":20243:20264   */\n      and\n        /* \"#utility.yul\":20234:20264   */\n      swap4\n      pop\n        /* \"#utility.yul\":20307:20311   */\n      dup1\n        /* \"#utility.yul\":20297:20305   */\n      dup7\n        /* \"#utility.yul\":20293:20312   */\n      and\n        /* \"#utility.yul\":20286:20291   */\n      dup5\n        /* \"#utility.yul\":20283:20313   */\n      or\n        /* \"#utility.yul\":20273:20313   */\n      swap3\n      pop\n        /* \"#utility.yul\":20002:20319   */\n      pop\n      pop\n        /* \"#utility.yul\":19926:20319   */\n      swap4\n      swap3\n      pop\n      pop\n      pop\n      jump\t// out\n        /* \"#utility.yul\":20325:20385   */\n    tag_190:\n        /* \"#utility.yul\":20353:20356   */\n      0x00\n        /* \"#utility.yul\":20374:20379   */\n      dup2\n        /* \"#utility.yul\":20367:20379   */\n      swap1\n      pop\n        /* \"#utility.yul\":20325:20385   */\n      swap2\n      swap1\n      pop\n      jump\t// out\n        /* \"#utility.yul\":20391:20533   */\n    tag_191:\n        /* \"#utility.yul\":20441:20450   */\n      0x00\n        /* \"#utility.yul\":20474:20527   */\n      tag_388\n        /* \"#utility.yul\":20492:20526   */\n      tag_389\n        /* \"#utility.yul\":20501:20525   */\n      tag_390\n        /* \"#utility.yul\":20519:20524   */\n      dup5\n        /* \"#utility.yul\":20501:20525   */\n      tag_141\n      jump\t// in\n    tag_390:\n        /* \"#utility.yul\":20492:20526   */\n      tag_190\n      jump\t// in\n    tag_389:\n        /* \"#utility.yul\":20474:20527   */\n      tag_141\n      jump\t// in\n    tag_388:\n        /* \"#utility.yul\":20461:20527   */\n      swap1\n      pop\n        /* \"#utility.yul\":20391:20533   */\n      swap2\n      swap1\n      pop\n      jump\t// out\n        /* \"#utility.yul\":20539:20614   */\n    tag_192:\n        /* \"#utility.yul\":20582:20585   */\n      0x00\n        /* \"#utility.yul\":20603:20608   */\n      dup2\n        /* \"#utility.yul\":20596:20608   */\n      swap1\n      pop\n        /* \"#utility.yul\":20539:20614   */\n      swap2\n      swap1\n      pop\n      jump\t// out\n        /* \"#utility.yul\":20620:20889   */\n    tag_193:\n        /* \"#utility.yul\":20730:20769   */\n      tag_393\n        /* \"#utility.yul\":20761:20768   */\n      dup4\n        /* \"#utility.yul\":20730:20769   */\n      tag_191\n      jump\t// in\n    tag_393:\n        /* \"#utility.yul\":20791:20882   */\n      tag_394\n        /* \"#utility.yul\":20840:20881   */\n      tag_395\n        /* \"#utility.yul\":20864:20880   */\n      dup3\n        /* \"#utility.yul\":20840:20881   */\n      tag_192\n      jump\t// in\n    tag_395:\n        /* \"#utility.yul\":20832:20838   */\n      dup5\n        /* \"#utility.yul\":20825:20829   */\n      dup5\n        /* \"#utility.yul\":20819:20830   */\n      sload\n        /* \"#utility.yul\":20791:20882   */\n      tag_189\n      jump\t// in\n    tag_394:\n        /* \"#utility.yul\":20785:20789   */\n      dup3\n        /* \"#utility.yul\":20778:20883   */\n      sstore\n        /* \"#utility.yul\":20696:20889   */\n      pop\n        /* \"#utility.yul\":20620:20889   */\n      pop\n      pop\n      pop\n      jump\t// out\n        /* \"#utility.yul\":20895:20968   */\n    tag_194:\n        /* \"#utility.yul\":20940:20943   */\n      0x00\n        /* \"#utility.yul\":20895:20968   */\n      swap1\n      jump\t// out\n        /* \"#utility.yul\":20974:21163   */\n    tag_195:\n        /* \"#utility.yul\":21051:21083   */\n      tag_398\n      tag_194\n      jump\t// in\n    tag_398:\n        /* \"#utility.yul\":21092:21157   */\n      tag_399\n        /* \"#utility.yul\":21150:21156   */\n      dup2\n        /* \"#utility.yul\":21142:21148   */\n      dup5\n        /* \"#utility.yul\":21136:21140   */\n      dup5\n        /* \"#utility.yul\":21092:21157   */\n      tag_193\n      jump\t// in\n    tag_399:\n        /* \"#utility.yul\":21027:21163   */\n      pop\n        /* \"#utility.yul\":20974:21163   */\n      pop\n      pop\n      jump\t// out\n        /* \"#utility.yul\":21169:21355   */\n    tag_196:\n        /* \"#utility.yul\":21229:21349   */\n    tag_401:\n        /* \"#utility.yul\":21246:21249   */\n      dup2\n        /* \"#utility.yul\":21239:21244   */\n      dup2\n        /* \"#utility.yul\":21236:21250   */\n      lt\n        /* \"#utility.yul\":21229:21349   */\n      iszero\n      tag_403\n      jumpi\n        /* \"#utility.yul\":21300:21339   */\n      tag_404\n        /* \"#utility.yul\":21337:21338   */\n      0x00\n        /* \"#utility.yul\":21330:21335   */\n      dup3\n        /* \"#utility.yul\":21300:21339   */\n      tag_195\n      jump\t// in\n    tag_404:\n        /* \"#utility.yul\":21273:21274   */\n      0x01\n        /* \"#utility.yul\":21266:21271   */\n      dup2\n        /* \"#utility.yul\":21262:21275   */\n      add\n        /* \"#utility.yul\":21253:21275   */\n      swap1\n      pop\n        /* \"#utility.yul\":21229:21349   */\n      jump(tag_401)\n    tag_403:\n        /* \"#utility.yul\":21169:21355   */\n      pop\n      pop\n      jump\t// out\n        /* \"#utility.yul\":21361:21904   */\n    tag_197:\n        /* \"#utility.yul\":21462:21464   */\n      0x1f\n        /* \"#utility.yul\":21457:21460   */\n      dup3\n        /* \"#utility.yul\":21454:21465   */\n      gt\n        /* \"#utility.yul\":21451:21897   */\n      iszero\n      tag_406\n      jumpi\n        /* \"#utility.yul\":21496:21534   */\n      tag_407\n        /* \"#utility.yul\":21528:21533   */\n      dup2\n        /* \"#utility.yul\":21496:21534   */\n      tag_186\n      jump\t// in\n    tag_407:\n        /* \"#utility.yul\":21580:21609   */\n      tag_408\n        /* \"#utility.yul\":21598:21608   */\n      dup5\n        /* \"#utility.yul\":21580:21609   */\n      tag_187\n      jump\t// in\n    tag_408:\n        /* \"#utility.yul\":21570:21578   */\n      dup2\n        /* \"#utility.yul\":21566:21610   */\n      add\n        /* \"#utility.yul\":21763:21765   */\n      0x20\n        /* \"#utility.yul\":21751:21761   */\n      dup6\n        /* \"#utility.yul\":21748:21766   */\n      lt\n        /* \"#utility.yul\":21745:21794   */\n      iszero\n      tag_409\n      jumpi\n        /* \"#utility.yul\":21784:21792   */\n      dup2\n        /* \"#utility.yul\":21769:21792   */\n      swap1\n      pop\n        /* \"#utility.yul\":21745:21794   */\n    tag_409:\n        /* \"#utility.yul\":21807:21887   */\n      tag_410\n        /* \"#utility.yul\":21863:21885   */\n      tag_411\n        /* \"#utility.yul\":21881:21884   */\n      dup6\n        /* \"#utility.yul\":21863:21885   */\n      tag_187\n      jump\t// in\n    tag_411:\n        /* \"#utility.yul\":21853:21861   */\n      dup4\n        /* \"#utility.yul\":21849:21886   */\n      add\n        /* \"#utility.yul\":21836:21847   */\n      dup3\n        /* \"#utility.yul\":21807:21887   */\n      tag_196\n      jump\t// in\n    tag_410:\n        /* \"#utility.yul\":21466:21897   */\n      pop\n      pop\n        /* \"#utility.yul\":21451:21897   */\n    tag_406:\n        /* \"#utility.yul\":21361:21904   */\n      pop\n      pop\n      pop\n      jump\t// out\n        /* \"#utility.yul\":21910:22027   */\n    tag_198:\n        /* \"#utility.yul\":21964:21972   */\n      0x00\n        /* \"#utility.yul\":22014:22019   */\n      dup3\n        /* \"#utility.yul\":22008:22012   */\n      dup3\n        /* \"#utility.yul\":22004:22020   */\n      shr\n        /* \"#utility.yul\":21983:22020   */\n      swap1\n      pop\n        /* \"#utility.yul\":21910:22027   */\n      swap3\n      swap2\n      pop\n      pop\n      jump\t// out\n        /* \"#utility.yul\":22033:22202   */\n    tag_199:\n        /* \"#utility.yul\":22077:22083   */\n      0x00\n        /* \"#utility.yul\":22110:22161   */\n      tag_414\n        /* \"#utility.yul\":22158:22159   */\n      0x00\n        /* \"#utility.yul\":22154:22160   */\n      not\n        /* \"#utility.yul\":22146:22151   */\n      dup5\n        /* \"#utility.yul\":22143:22144   */\n      0x08\n        /* \"#utility.yul\":22139:22152   */\n      mul\n        /* \"#utility.yul\":22110:22161   */\n      tag_198\n      jump\t// in\n    tag_414:\n        /* \"#utility.yul\":22106:22162   */\n      not\n        /* \"#utility.yul\":22191:22195   */\n      dup1\n        /* \"#utility.yul\":22185:22189   */\n      dup4\n        /* \"#utility.yul\":22181:22196   */\n      and\n        /* \"#utility.yul\":22171:22196   */\n      swap2\n      pop\n        /* \"#utility.yul\":22084:22202   */\n      pop\n        /* \"#utility.yul\":22033:22202   */\n      swap3\n      swap2\n      pop\n      pop\n      jump\t// out\n        /* \"#utility.yul\":22207:22502   */\n    tag_200:\n        /* \"#utility.yul\":22283:22287   */\n      0x00\n        /* \"#utility.yul\":22429:22458   */\n      tag_416\n        /* \"#utility.yul\":22454:22457   */\n      dup4\n        /* \"#utility.yul\":22448:22452   */\n      dup4\n        /* \"#utility.yul\":22429:22458   */\n      tag_199\n      jump\t// in\n    tag_416:\n        /* \"#utility.yul\":22421:22458   */\n      swap2\n      pop\n        /* \"#utility.yul\":22491:22494   */\n      dup3\n        /* \"#utility.yul\":22488:22489   */\n      0x02\n        /* \"#utility.yul\":22484:22495   */\n      mul\n        /* \"#utility.yul\":22478:22482   */\n      dup3\n        /* \"#utility.yul\":22475:22496   */\n      or\n        /* \"#utility.yul\":22467:22496   */\n      swap1\n      pop\n        /* \"#utility.yul\":22207:22502   */\n      swap3\n      swap2\n      pop\n      pop\n      jump\t// out\n        /* \"#utility.yul\":22507:23902   */\n    tag_120:\n        /* \"#utility.yul\":22624:22661   */\n      tag_418\n        /* \"#utility.yul\":22657:22660   */\n      dup3\n        /* \"#utility.yul\":22624:22661   */\n      tag_146\n      jump\t// in\n    tag_418:\n        /* \"#utility.yul\":22726:22744   */\n      0xffffffffffffffff\n        /* \"#utility.yul\":22718:22724   */\n      dup2\n        /* \"#utility.yul\":22715:22745   */\n      gt\n        /* \"#utility.yul\":22712:22768   */\n      iszero\n      tag_419\n      jumpi\n        /* \"#utility.yul\":22748:22766   */\n      tag_420\n      tag_168\n      jump\t// in\n    tag_420:\n        /* \"#utility.yul\":22712:22768   */\n    tag_419:\n        /* \"#utility.yul\":22792:22830   */\n      tag_421\n        /* \"#utility.yul\":22824:22828   */\n      dup3\n        /* \"#utility.yul\":22818:22829   */\n      sload\n        /* \"#utility.yul\":22792:22830   */\n      tag_56\n      jump\t// in\n    tag_421:\n        /* \"#utility.yul\":22877:22944   */\n      tag_422\n        /* \"#utility.yul\":22937:22943   */\n      dup3\n        /* \"#utility.yul\":22929:22935   */\n      dup3\n        /* \"#utility.yul\":22923:22927   */\n      dup6\n        /* \"#utility.yul\":22877:22944   */\n      tag_197\n      jump\t// in\n    tag_422:\n        /* \"#utility.yul\":22971:22972   */\n      0x00\n        /* \"#utility.yul\":22995:22999   */\n      0x20\n        /* \"#utility.yul\":22982:22999   */\n      swap1\n      pop\n        /* \"#utility.yul\":23027:23029   */\n      0x1f\n        /* \"#utility.yul\":23019:23025   */\n      dup4\n        /* \"#utility.yul\":23016:23030   */\n      gt\n        /* \"#utility.yul\":23044:23045   */\n      0x01\n        /* \"#utility.yul\":23039:23657   */\n      dup2\n      eq\n      tag_424\n      jumpi\n        /* \"#utility.yul\":23701:23702   */\n      0x00\n        /* \"#utility.yul\":23718:23724   */\n      dup5\n        /* \"#utility.yul\":23715:23792   */\n      iszero\n      tag_425\n      jumpi\n        /* \"#utility.yul\":23767:23776   */\n      dup3\n        /* \"#utility.yul\":23762:23765   */\n      dup8\n        /* \"#utility.yul\":23758:23777   */\n      add\n        /* \"#utility.yul\":23752:23778   */\n      mload\n        /* \"#utility.yul\":23743:23778   */\n      swap1\n      pop\n        /* \"#utility.yul\":23715:23792   */\n    tag_425:\n        /* \"#utility.yul\":23818:23885   */\n      tag_426\n        /* \"#utility.yul\":23878:23884   */\n      dup6\n        /* \"#utility.yul\":23871:23876   */\n      dup3\n        /* \"#utility.yul\":23818:23885   */\n      tag_200\n      jump\t// in\n    tag_426:\n        /* \"#utility.yul\":23812:23816   */\n      dup7\n        /* \"#utility.yul\":23805:23886   */\n      sstore\n        /* \"#utility.yul\":23674:23896   */\n      pop\n        /* \"#utility.yul\":23009:23896   */\n      jump(tag_423)\n        /* \"#utility.yul\":23039:23657   */\n    tag_424:\n        /* \"#utility.yul\":23091:23095   */\n      0x1f\n        /* \"#utility.yul\":23087:23096   */\n      not\n        /* \"#utility.yul\":23079:23085   */\n      dup5\n        /* \"#utility.yul\":23075:23097   */\n      and\n        /* \"#utility.yul\":23125:23162   */\n      tag_427\n        /* \"#utility.yul\":23157:23161   */\n      dup7\n        /* \"#utility.yul\":23125:23162   */\n      tag_186\n      jump\t// in\n    tag_427:\n        /* \"#utility.yul\":23184:23185   */\n      0x00\n        /* \"#utility.yul\":23198:23406   */\n    tag_428:\n        /* \"#utility.yul\":23212:23219   */\n      dup3\n        /* \"#utility.yul\":23209:23210   */\n      dup2\n        /* \"#utility.yul\":23206:23220   */\n      lt\n        /* \"#utility.yul\":23198:23406   */\n      iszero\n      tag_430\n      jumpi\n        /* \"#utility.yul\":23291:23300   */\n      dup5\n        /* \"#utility.yul\":23286:23289   */\n      dup10\n        /* \"#utility.yul\":23282:23301   */\n      add\n        /* \"#utility.yul\":23276:23302   */\n      mload\n        /* \"#utility.yul\":23268:23274   */\n      dup3\n        /* \"#utility.yul\":23261:23303   */\n      sstore\n        /* \"#utility.yul\":23342:23343   */\n      0x01\n        /* \"#utility.yul\":23334:23340   */\n      dup3\n        /* \"#utility.yul\":23330:23344   */\n      add\n        /* \"#utility.yul\":23320:23344   */\n      swap2\n      pop\n        /* \"#utility.yul\":23389:23391   */\n      0x20\n        /* \"#utility.yul\":23378:23387   */\n      dup6\n        /* \"#utility.yul\":23374:23392   */\n      add\n        /* \"#utility.yul\":23361:23392   */\n      swap5\n      pop\n        /* \"#utility.yul\":23235:23239   */\n      0x20\n        /* \"#utility.yul\":23232:23233   */\n      dup2\n        /* \"#utility.yul\":23228:23240   */\n      add\n        /* \"#utility.yul\":23223:23240   */\n      swap1\n      pop\n        /* \"#utility.yul\":23198:23406   */\n      jump(tag_428)\n    tag_430:\n        /* \"#utility.yul\":23434:23440   */\n      dup7\n        /* \"#utility.yul\":23425:23432   */\n      dup4\n        /* \"#utility.yul\":23422:23441   */\n      lt\n        /* \"#utility.yul\":23419:23598   */\n      iszero\n      tag_431\n      jumpi\n        /* \"#utility.yul\":23492:23501   */\n      dup5\n        /* \"#utility.yul\":23487:23490   */\n      dup10\n        /* \"#utility.yul\":23483:23502   */\n      add\n        /* \"#utility.yul\":23477:23503   */\n      mload\n        /* \"#utility.yul\":23535:23583   */\n      tag_432\n        /* \"#utility.yul\":23577:23581   */\n      0x1f\n        /* \"#utility.yul\":23569:23575   */\n      dup10\n        /* \"#utility.yul\":23565:23582   */\n      and\n        /* \"#utility.yul\":23554:23563   */\n      dup3\n        /* \"#utility.yul\":23535:23583   */\n      tag_199\n      jump\t// in\n    tag_432:\n        /* \"#utility.yul\":23527:23533   */\n      dup4\n        /* \"#utility.yul\":23520:23584   */\n      sstore\n        /* \"#utility.yul\":23442:23598   */\n      pop\n        /* \"#utility.yul\":23419:23598   */\n    tag_431:\n        /* \"#utility.yul\":23644:23645   */\n      0x01\n        /* \"#utility.yul\":23640:23641   */\n      0x02\n        /* \"#utility.yul\":23632:23638   */\n      dup9\n        /* \"#utility.yul\":23628:23642   */\n      mul\n        /* \"#utility.yul\":23624:23646   */\n      add\n        /* \"#utility.yul\":23618:23622   */\n      dup9\n        /* \"#utility.yul\":23611:23647   */\n      sstore\n        /* \"#utility.yul\":23046:23657   */\n      pop\n      pop\n      pop\n        /* \"#utility.yul\":23009:23896   */\n    tag_423:\n      pop\n        /* \"#utility.yul\":22599:23902   */\n      pop\n      pop\n      pop\n        /* \"#utility.yul\":22507:23902   */\n      pop\n      pop\n      jump\t// out\n        /* \"#utility.yul\":23908:24331   */\n    tag_122:\n        /* \"#utility.yul\":24049:24053   */\n      0x00\n        /* \"#utility.yul\":24087:24089   */\n      0x40\n        /* \"#utility.yul\":24076:24085   */\n      dup3\n        /* \"#utility.yul\":24072:24090   */\n      add\n        /* \"#utility.yul\":24064:24090   */\n      swap1\n      pop\n        /* \"#utility.yul\":24136:24145   */\n      dup2\n        /* \"#utility.yul\":24130:24134   */\n      dup2\n        /* \"#utility.yul\":24126:24146   */\n      sub\n        /* \"#utility.yul\":24122:24123   */\n      0x00\n        /* \"#utility.yul\":24111:24120   */\n      dup4\n        /* \"#utility.yul\":24107:24124   */\n      add\n        /* \"#utility.yul\":24100:24147   */\n      mstore\n        /* \"#utility.yul\":24164:24242   */\n      tag_434\n        /* \"#utility.yul\":24237:24241   */\n      dup2\n        /* \"#utility.yul\":24228:24234   */\n      dup6\n        /* \"#utility.yul\":24164:24242   */\n      tag_150\n      jump\t// in\n    tag_434:\n        /* \"#utility.yul\":24156:24242   */\n      swap1\n      pop\n        /* \"#utility.yul\":24252:24324   */\n      tag_435\n        /* \"#utility.yul\":24320:24322   */\n      0x20\n        /* \"#utility.yul\":24309:24318   */\n      dup4\n        /* \"#utility.yul\":24305:24323   */\n      add\n        /* \"#utility.yul\":24296:24302   */\n      dup5\n        /* \"#utility.yul\":24252:24324   */\n      tag_144\n      jump\t// in\n    tag_435:\n        /* \"#utility.yul\":23908:24331   */\n      swap4\n      swap3\n      pop\n      pop\n      pop\n      jump\t// out\n\n    auxdata: 0xa26469706673582212205ec34671676061f06223a4d1001932d44b7e2406aac4c73e556eaebfab2504cf64736f6c634300081a0033\n}\n",
				"bytecode": {
					"linkReferences": {},
					"object": "60806040526101185f806101000a81548161ffff021916908361ffff160217905550348015602b575f80fd5b503360025f6101000a81548173ffffffffffffffffffffffffffffffffffffffff021916908373ffffffffffffffffffffffffffffffffffffffff16021790555061198a806100795f395ff3fe608060405234801561000f575f80fd5b5060043610610091575f3560e01c8063633782161161006457806363378216146101315780636eb107971461014d5780637c9cd2bc1461016b5780638da5cb5b14610187578063c3ad5ecb146101a557610091565b806305a1b4a91461009557806312e7ee1c146100c95780633d9b569f146100f957806358bfa4ab14610115575b5f80fd5b6100af60048036038101906100aa9190610e05565b6101d5565b6040516100c0959493929190610ed1565b60405180910390f35b6100e360048036038101906100de9190610f29565b6102c6565b6040516100f091906110e8565b60405180910390f35b610113600480360381019061010e9190610e05565b610461565b005b61012f600480360381019061012a919061113f565b6106db565b005b61014b60048036038101906101469190610e05565b610788565b005b610155610962565b6040516101629190611179565b60405180910390f35b610185600480360381019061018091906112be565b610973565b005b61018f610b8a565b60405161019c9190611305565b60405180910390f35b6101bf60048036038101906101ba919061131e565b610baf565b6040516101cc91906113bc565b60405180910390f35b6001602052815f5260405f2081815481106101ee575f80fd5b905f5260205f2090600502015f9150915050805f015490806001015f9054906101000a900473ffffffffffffffffffffffffffffffffffffffff169080600201805461023990611409565b80601f016020809104026020016040519081016040528092919081815260200182805461026590611409565b80156102b05780601f10610287576101008083540402835291602001916102b0565b820191905f5260205f20905b81548152906001019060200180831161029357829003601f168201915b5050505050908060030154908060040154905085565b606060015f8373ffffffffffffffffffffffffffffffffffffffff1673ffffffffffffffffffffffffffffffffffffffff1681526020019081526020015f20805480602002602001604051908101604052809291908181526020015f905b82821015610456578382905f5260205f2090600502016040518060a00160405290815f8201548152602001600182015f9054906101000a900473ffffffffffffffffffffffffffffffffffffffff1673ffffffffffffffffffffffffffffffffffffffff1673ffffffffffffffffffffffffffffffffffffffff1681526020016002820180546103b390611409565b80601f01602080910402602001604051908101604052809291908181526020018280546103df90611409565b801561042a5780601f106104015761010080835404028352916020019161042a565b820191905f5260205f20905b81548152906001019060200180831161040d57829003601f168201915b505050505081526020016003820154815260200160048201548152505081526020019060010190610324565b505050509050919050565b8060015f8473ffffffffffffffffffffffffffffffffffffffff1673ffffffffffffffffffffffffffffffffffffffff1681526020019081526020015f2082815481106104b1576104b0611439565b5b905f5260205f2090600502015f015414610500576040517f08c379a00000000000000000000000000000000000000000000000000000000081526004016104f7906114b0565b60405180910390fd5b5f60015f8473ffffffffffffffffffffffffffffffffffffffff1673ffffffffffffffffffffffffffffffffffffffff1681526020019081526020015f2082815481106105505761054f611439565b5b905f5260205f20906005020160040154116105a0576040517f08c379a000000000000000000000000000000000000000000000000000000000815260040161059790611518565b60405180910390fd5b60015f8373ffffffffffffffffffffffffffffffffffffffff1673ffffffffffffffffffffffffffffffffffffffff1681526020019081526020015f2081815481106105ef576105ee611439565b5b905f5260205f2090600502016004015f81548092919061060e90611563565b9190505550808273ffffffffffffffffffffffffffffffffffffffff163373ffffffffffffffffffffffffffffffffffffffff167f762c2616349603ac16eba0de8e6141b79129a07ab63bd99e0a80b3a47171694360015f8773ffffffffffffffffffffffffffffffffffffffff1673ffffffffffffffffffffffffffffffffffffffff1681526020019081526020015f2085815481106106b2576106b1611439565b5b905f5260205f209060050201600401546040516106cf919061158a565b60405180910390a45050565b60025f9054906101000a900473ffffffffffffffffffffffffffffffffffffffff1673ffffffffffffffffffffffffffffffffffffffff163373ffffffffffffffffffffffffffffffffffffffff161461076a576040517f08c379a0000000000000000000000000000000000000000000000000000000008152600401610761906115ed565b60405180910390fd5b805f806101000a81548161ffff021916908361ffff16021790555050565b8060015f8473ffffffffffffffffffffffffffffffffffffffff1673ffffffffffffffffffffffffffffffffffffffff1681526020019081526020015f2082815481106107d8576107d7611439565b5b905f5260205f2090600502015f015414610827576040517f08c379a000000000000000000000000000000000000000000000000000000000815260040161081e906114b0565b60405180910390fd5b60015f8373ffffffffffffffffffffffffffffffffffffffff1673ffffffffffffffffffffffffffffffffffffffff1681526020019081526020015f20818154811061087657610875611439565b5b905f5260205f2090600502016004015f8154809291906108959061160b565b9190505550808273ffffffffffffffffffffffffffffffffffffffff163373ffffffffffffffffffffffffffffffffffffffff167fe8a76fc0f16d11a00d1e93b689b63d76cf60af914dd3d915375dc41d01a0c3c860015f8773ffffffffffffffffffffffffffffffffffffffff1673ffffffffffffffffffffffffffffffffffffffff1681526020019081526020015f20858154811061093957610938611439565b5b905f5260205f20906005020160040154604051610956919061158a565b60405180910390a45050565b5f8054906101000a900461ffff1681565b5f8054906101000a900461ffff1661ffff16815111156109c8576040517f08c379a00000000000000000000000000000000000000000000000000000000081526004016109bf9061169c565b60405180910390fd5b5f6040518060a0016040528060015f3373ffffffffffffffffffffffffffffffffffffffff1673ffffffffffffffffffffffffffffffffffffffff1681526020019081526020015f208054905081526020013373ffffffffffffffffffffffffffffffffffffffff1681526020018381526020014281526020015f815250905060015f3373ffffffffffffffffffffffffffffffffffffffff1673ffffffffffffffffffffffffffffffffffffffff1681526020019081526020015f2081908060018154018082558091505060019003905f5260205f2090600502015f909190919091505f820151815f01556020820151816001015f6101000a81548173ffffffffffffffffffffffffffffffffffffffff021916908373ffffffffffffffffffffffffffffffffffffffff1602179055506040820151816002019081610b0f9190611857565b5060608201518160030155608082015181600401555050806020015173ffffffffffffffffffffffffffffffffffffffff16815f01517f16fd3c13e9d46923e0a8bce11c7b473ec508a72e6c96cd2404b29ce972afc29e83604001518460600151604051610b7e929190611926565b60405180910390a35050565b60025f9054906101000a900473ffffffffffffffffffffffffffffffffffffffff1681565b610bb7610d26565b60015f3373ffffffffffffffffffffffffffffffffffffffff1673ffffffffffffffffffffffffffffffffffffffff1681526020019081526020015f208281548110610c0657610c05611439565b5b905f5260205f2090600502016040518060a00160405290815f8201548152602001600182015f9054906101000a900473ffffffffffffffffffffffffffffffffffffffff1673ffffffffffffffffffffffffffffffffffffffff1673ffffffffffffffffffffffffffffffffffffffff168152602001600282018054610c8b90611409565b80601f0160208091040260200160405190810160405280929190818152602001828054610cb790611409565b8015610d025780601f10610cd957610100808354040283529160200191610d02565b820191905f5260205f20905b815481529060010190602001808311610ce557829003601f168201915b50505050508152602001600382015481526020016004820154815250509050919050565b6040518060a001604052805f81526020015f73ffffffffffffffffffffffffffffffffffffffff168152602001606081526020015f81526020015f81525090565b5f604051905090565b5f80fd5b5f80fd5b5f73ffffffffffffffffffffffffffffffffffffffff82169050919050565b5f610da182610d78565b9050919050565b610db181610d97565b8114610dbb575f80fd5b50565b5f81359050610dcc81610da8565b92915050565b5f819050919050565b610de481610dd2565b8114610dee575f80fd5b50565b5f81359050610dff81610ddb565b92915050565b5f8060408385031215610e1b57610e1a610d70565b5b5f610e2885828601610dbe565b9250506020610e3985828601610df1565b9150509250929050565b610e4c81610dd2565b82525050565b610e5b81610d97565b82525050565b5f81519050919050565b5f82825260208201905092915050565b8281835e5f83830152505050565b5f601f19601f8301169050919050565b5f610ea382610e61565b610ead8185610e6b565b9350610ebd818560208601610e7b565b610ec681610e89565b840191505092915050565b5f60a082019050610ee45f830188610e43565b610ef16020830187610e52565b8181036040830152610f038186610e99565b9050610f126060830185610e43565b610f1f6080830184610e43565b9695505050505050565b5f60208284031215610f3e57610f3d610d70565b5b5f610f4b84828501610dbe565b91505092915050565b5f81519050919050565b5f82825260208201905092915050565b5f819050602082019050919050565b610f8681610dd2565b82525050565b610f9581610d97565b82525050565b5f82825260208201905092915050565b5f610fb582610e61565b610fbf8185610f9b565b9350610fcf818560208601610e7b565b610fd881610e89565b840191505092915050565b5f60a083015f830151610ff85f860182610f7d565b50602083015161100b6020860182610f8c565b50604083015184820360408601526110238282610fab565b91505060608301516110386060860182610f7d565b50608083015161104b6080860182610f7d565b508091505092915050565b5f6110618383610fe3565b905092915050565b5f602082019050919050565b5f61107f82610f54565b6110898185610f5e565b93508360208202850161109b85610f6e565b805f5b858110156110d657848403895281516110b78582611056565b94506110c283611069565b925060208a0199505060018101905061109e565b50829750879550505050505092915050565b5f6020820190508181035f8301526111008184611075565b905092915050565b5f61ffff82169050919050565b61111e81611108565b8114611128575f80fd5b50565b5f8135905061113981611115565b92915050565b5f6020828403121561115457611153610d70565b5b5f6111618482850161112b565b91505092915050565b61117381611108565b82525050565b5f60208201905061118c5f83018461116a565b92915050565b5f80fd5b5f80fd5b7f4e487b71000000000000000000000000000000000000000000000000000000005f52604160045260245ffd5b6111d082610e89565b810181811067ffffffffffffffff821117156111ef576111ee61119a565b5b80604052505050565b5f611201610d67565b905061120d82826111c7565b919050565b5f67ffffffffffffffff82111561122c5761122b61119a565b5b61123582610e89565b9050602081019050919050565b828183375f83830152505050565b5f61126261125d84611212565b6111f8565b90508281526020810184848401111561127e5761127d611196565b5b611289848285611242565b509392505050565b5f82601f8301126112a5576112a4611192565b5b81356112b5848260208601611250565b91505092915050565b5f602082840312156112d3576112d2610d70565b5b5f82013567ffffffffffffffff8111156112f0576112ef610d74565b5b6112fc84828501611291565b91505092915050565b5f6020820190506113185f830184610e52565b92915050565b5f6020828403121561133357611332610d70565b5b5f61134084828501610df1565b91505092915050565b5f60a083015f83015161135e5f860182610f7d565b5060208301516113716020860182610f8c565b50604083015184820360408601526113898282610fab565b915050606083015161139e6060860182610f7d565b5060808301516113b16080860182610f7d565b508091505092915050565b5f6020820190508181035f8301526113d48184611349565b905092915050565b7f4e487b71000000000000000000000000000000000000000000000000000000005f52602260045260245ffd5b5f600282049050600182168061142057607f821691505b602082108103611433576114326113dc565b5b50919050565b7f4e487b71000000000000000000000000000000000000000000000000000000005f52603260045260245ffd5b7f547765657420446f6573204e6f742045786973740000000000000000000000005f82015250565b5f61149a601483610e6b565b91506114a582611466565b602082019050919050565b5f6020820190508181035f8301526114c78161148e565b9050919050565b7f547765657420486173204e6f204c696b657300000000000000000000000000005f82015250565b5f611502601283610e6b565b915061150d826114ce565b602082019050919050565b5f6020820190508181035f83015261152f816114f6565b9050919050565b7f4e487b71000000000000000000000000000000000000000000000000000000005f52601160045260245ffd5b5f61156d82610dd2565b91505f820361157f5761157e611536565b5b600182039050919050565b5f60208201905061159d5f830184610e43565b92915050565b7f596f7520617265206e6f74204f776e65720000000000000000000000000000005f82015250565b5f6115d7601183610e6b565b91506115e2826115a3565b602082019050919050565b5f6020820190508181035f830152611604816115cb565b9050919050565b5f61161582610dd2565b91507fffffffffffffffffffffffffffffffffffffffffffffffffffffffffffffffff820361164757611646611536565b5b600182019050919050565b7f547765657420697320746f6f206c6f6e672100000000000000000000000000005f82015250565b5f611686601283610e6b565b915061169182611652565b602082019050919050565b5f6020820190508181035f8301526116b38161167a565b9050919050565b5f819050815f5260205f209050919050565b5f6020601f8301049050919050565b5f82821b905092915050565b5f600883026117167fffffffffffffffffffffffffffffffffffffffffffffffffffffffffffffffff826116db565b61172086836116db565b95508019841693508086168417925050509392505050565b5f819050919050565b5f61175b61175661175184610dd2565b611738565b610dd2565b9050919050565b5f819050919050565b61177483611741565b61178861178082611762565b8484546116e7565b825550505050565b5f90565b61179c611790565b6117a781848461176b565b505050565b5b818110156117ca576117bf5f82611794565b6001810190506117ad565b5050565b601f82111561180f576117e0816116ba565b6117e9846116cc565b810160208510156117f8578190505b61180c611804856116cc565b8301826117ac565b50505b505050565b5f82821c905092915050565b5f61182f5f1984600802611814565b1980831691505092915050565b5f6118478383611820565b9150826002028217905092915050565b61186082610e61565b67ffffffffffffffff8111156118795761187861119a565b5b6118838254611409565b61188e8282856117ce565b5f60209050601f8311600181146118bf575f84156118ad578287015190505b6118b7858261183c565b86555061191e565b601f1984166118cd866116ba565b5f5b828110156118f4578489015182556001820191506020850194506020810190506118cf565b86831015611911578489015161190d601f891682611820565b8355505b6001600288020188555050505b505050505050565b5f6040820190508181035f83015261193e8185610e99565b905061194d6020830184610e43565b939250505056fea26469706673582212205ec34671676061f06223a4d1001932d44b7e2406aac4c73e556eaebfab2504cf64736f6c634300081a0033",
					"opcodes": "PUSH1 0x80 PUSH1 0x40 MSTORE PUSH2 0x118 PUSH0 DUP1 PUSH2 0x100 EXP DUP2 SLOAD DUP2 PUSH2 0xFFFF MUL NOT AND SWAP1 DUP4 PUSH2 0xFFFF AND MUL OR SWAP1 SSTORE POP CALLVALUE DUP1 ISZERO PUSH1 0x2B JUMPI PUSH0 DUP1 REVERT JUMPDEST POP CALLER PUSH1 0x2 PUSH0 PUSH2 0x100 EXP DUP2 SLOAD DUP2 PUSH20 0xFFFFFFFFFFFFFFFFFFFFFFFFFFFFFFFFFFFFFFFF MUL NOT AND SWAP1 DUP4 PUSH20 0xFFFFFFFFFFFFFFFFFFFFFFFFFFFFFFFFFFFFFFFF AND MUL OR SWAP1 SSTORE POP PUSH2 0x198A DUP1 PUSH2 0x79 PUSH0 CODECOPY PUSH0 RETURN INVALID PUSH1 0x80 PUSH1 0x40 MSTORE CALLVALUE DUP1 ISZERO PUSH2 0xF JUMPI PUSH0 DUP1 REVERT JUMPDEST POP PUSH1 0x4 CALLDATASIZE LT PUSH2 0x91 JUMPI PUSH0 CALLDATALOAD PUSH1 0xE0 SHR DUP1 PUSH4 0x63378216 GT PUSH2 0x64 JUMPI DUP1 PUSH4 0x63378216 EQ PUSH2 0x131 JUMPI DUP1 PUSH4 0x6EB10797 EQ PUSH2 0x14D JUMPI DUP1 PUSH4 0x7C9CD2BC EQ PUSH2 0x16B JUMPI DUP1 PUSH4 0x8DA5CB5B EQ PUSH2 0x187 JUMPI DUP1 PUSH4 0xC3AD5ECB EQ PUSH2 0x1A5 JUMPI PUSH2 0x91 JUMP JUMPDEST DUP1 PUSH4 0x5A1B4A9 EQ PUSH2 0x95 JUMPI DUP1 PUSH4 0x12E7EE1C EQ PUSH2 0xC9 JUMPI DUP1 PUSH4 0x3D9B569F EQ PUSH2 0xF9 JUMPI DUP1 PUSH4 0x58BFA4AB EQ PUSH2 0x115 JUMPI JUMPDEST PUSH0 DUP1 REVERT JUMPDEST PUSH2 0xAF PUSH1 0x4 DUP1 CALLDATASIZE SUB DUP2 ADD SWAP1 PUSH2 0xAA SWAP2 SWAP1 PUSH2 0xE05 JUMP JUMPDEST PUSH2 0x1D5 JUMP JUMPDEST PUSH1 0x40 MLOAD PUSH2 0xC0 SWAP6 SWAP5 SWAP4 SWAP3 SWAP2 SWAP1 PUSH2 0xED1 JUMP JUMPDEST PUSH1 0x40 MLOAD DUP1 SWAP2 SUB SWAP1 RETURN JUMPDEST PUSH2 0xE3 PUSH1 0x4 DUP1 CALLDATASIZE SUB DUP2 ADD SWAP1 PUSH2 0xDE SWAP2 SWAP1 PUSH2 0xF29 JUMP JUMPDEST PUSH2 0x2C6 JUMP JUMPDEST PUSH1 0x40 MLOAD PUSH2 0xF0 SWAP2 SWAP1 PUSH2 0x10E8 JUMP JUMPDEST PUSH1 0x40 MLOAD DUP1 SWAP2 SUB SWAP1 RETURN JUMPDEST PUSH2 0x113 PUSH1 0x4 DUP1 CALLDATASIZE SUB DUP2 ADD SWAP1 PUSH2 0x10E SWAP2 SWAP1 PUSH2 0xE05 JUMP JUMPDEST PUSH2 0x461 JUMP JUMPDEST STOP JUMPDEST PUSH2 0x12F PUSH1 0x4 DUP1 CALLDATASIZE SUB DUP2 ADD SWAP1 PUSH2 0x12A SWAP2 SWAP1 PUSH2 0x113F JUMP JUMPDEST PUSH2 0x6DB JUMP JUMPDEST STOP JUMPDEST PUSH2 0x14B PUSH1 0x4 DUP1 CALLDATASIZE SUB DUP2 ADD SWAP1 PUSH2 0x146 SWAP2 SWAP1 PUSH2 0xE05 JUMP JUMPDEST PUSH2 0x788 JUMP JUMPDEST STOP JUMPDEST PUSH2 0x155 PUSH2 0x962 JUMP JUMPDEST PUSH1 0x40 MLOAD PUSH2 0x162 SWAP2 SWAP1 PUSH2 0x1179 JUMP JUMPDEST PUSH1 0x40 MLOAD DUP1 SWAP2 SUB SWAP1 RETURN JUMPDEST PUSH2 0x185 PUSH1 0x4 DUP1 CALLDATASIZE SUB DUP2 ADD SWAP1 PUSH2 0x180 SWAP2 SWAP1 PUSH2 0x12BE JUMP JUMPDEST PUSH2 0x973 JUMP JUMPDEST STOP JUMPDEST PUSH2 0x18F PUSH2 0xB8A JUMP JUMPDEST PUSH1 0x40 MLOAD PUSH2 0x19C SWAP2 SWAP1 PUSH2 0x1305 JUMP JUMPDEST PUSH1 0x40 MLOAD DUP1 SWAP2 SUB SWAP1 RETURN JUMPDEST PUSH2 0x1BF PUSH1 0x4 DUP1 CALLDATASIZE SUB DUP2 ADD SWAP1 PUSH2 0x1BA SWAP2 SWAP1 PUSH2 0x131E JUMP JUMPDEST PUSH2 0xBAF JUMP JUMPDEST PUSH1 0x40 MLOAD PUSH2 0x1CC SWAP2 SWAP1 PUSH2 0x13BC JUMP JUMPDEST PUSH1 0x40 MLOAD DUP1 SWAP2 SUB SWAP1 RETURN JUMPDEST PUSH1 0x1 PUSH1 0x20 MSTORE DUP2 PUSH0 MSTORE PUSH1 0x40 PUSH0 KECCAK256 DUP2 DUP2 SLOAD DUP2 LT PUSH2 0x1EE JUMPI PUSH0 DUP1 REVERT JUMPDEST SWAP1 PUSH0 MSTORE PUSH1 0x20 PUSH0 KECCAK256 SWAP1 PUSH1 0x5 MUL ADD PUSH0 SWAP2 POP SWAP2 POP POP DUP1 PUSH0 ADD SLOAD SWAP1 DUP1 PUSH1 0x1 ADD PUSH0 SWAP1 SLOAD SWAP1 PUSH2 0x100 EXP SWAP1 DIV PUSH20 0xFFFFFFFFFFFFFFFFFFFFFFFFFFFFFFFFFFFFFFFF AND SWAP1 DUP1 PUSH1 0x2 ADD DUP1 SLOAD PUSH2 0x239 SWAP1 PUSH2 0x1409 JUMP JUMPDEST DUP1 PUSH1 0x1F ADD PUSH1 0x20 DUP1 SWAP2 DIV MUL PUSH1 0x20 ADD PUSH1 0x40 MLOAD SWAP1 DUP2 ADD PUSH1 0x40 MSTORE DUP1 SWAP3 SWAP2 SWAP1 DUP2 DUP2 MSTORE PUSH1 0x20 ADD DUP3 DUP1 SLOAD PUSH2 0x265 SWAP1 PUSH2 0x1409 JUMP JUMPDEST DUP1 ISZERO PUSH2 0x2B0 JUMPI DUP1 PUSH1 0x1F LT PUSH2 0x287 JUMPI PUSH2 0x100 DUP1 DUP4 SLOAD DIV MUL DUP4 MSTORE SWAP2 PUSH1 0x20 ADD SWAP2 PUSH2 0x2B0 JUMP JUMPDEST DUP3 ADD SWAP2 SWAP1 PUSH0 MSTORE PUSH1 0x20 PUSH0 KECCAK256 SWAP1 JUMPDEST DUP2 SLOAD DUP2 MSTORE SWAP1 PUSH1 0x1 ADD SWAP1 PUSH1 0x20 ADD DUP1 DUP4 GT PUSH2 0x293 JUMPI DUP3 SWAP1 SUB PUSH1 0x1F AND DUP3 ADD SWAP2 JUMPDEST POP POP POP POP POP SWAP1 DUP1 PUSH1 0x3 ADD SLOAD SWAP1 DUP1 PUSH1 0x4 ADD SLOAD SWAP1 POP DUP6 JUMP JUMPDEST PUSH1 0x60 PUSH1 0x1 PUSH0 DUP4 PUSH20 0xFFFFFFFFFFFFFFFFFFFFFFFFFFFFFFFFFFFFFFFF AND PUSH20 0xFFFFFFFFFFFFFFFFFFFFFFFFFFFFFFFFFFFFFFFF AND DUP2 MSTORE PUSH1 0x20 ADD SWAP1 DUP2 MSTORE PUSH1 0x20 ADD PUSH0 KECCAK256 DUP1 SLOAD DUP1 PUSH1 0x20 MUL PUSH1 0x20 ADD PUSH1 0x40 MLOAD SWAP1 DUP2 ADD PUSH1 0x40 MSTORE DUP1 SWAP3 SWAP2 SWAP1 DUP2 DUP2 MSTORE PUSH1 0x20 ADD PUSH0 SWAP1 JUMPDEST DUP3 DUP3 LT ISZERO PUSH2 0x456 JUMPI DUP4 DUP3 SWAP1 PUSH0 MSTORE PUSH1 0x20 PUSH0 KECCAK256 SWAP1 PUSH1 0x5 MUL ADD PUSH1 0x40 MLOAD DUP1 PUSH1 0xA0 ADD PUSH1 0x40 MSTORE SWAP1 DUP2 PUSH0 DUP3 ADD SLOAD DUP2 MSTORE PUSH1 0x20 ADD PUSH1 0x1 DUP3 ADD PUSH0 SWAP1 SLOAD SWAP1 PUSH2 0x100 EXP SWAP1 DIV PUSH20 0xFFFFFFFFFFFFFFFFFFFFFFFFFFFFFFFFFFFFFFFF AND PUSH20 0xFFFFFFFFFFFFFFFFFFFFFFFFFFFFFFFFFFFFFFFF AND PUSH20 0xFFFFFFFFFFFFFFFFFFFFFFFFFFFFFFFFFFFFFFFF AND DUP2 MSTORE PUSH1 0x20 ADD PUSH1 0x2 DUP3 ADD DUP1 SLOAD PUSH2 0x3B3 SWAP1 PUSH2 0x1409 JUMP JUMPDEST DUP1 PUSH1 0x1F ADD PUSH1 0x20 DUP1 SWAP2 DIV MUL PUSH1 0x20 ADD PUSH1 0x40 MLOAD SWAP1 DUP2 ADD PUSH1 0x40 MSTORE DUP1 SWAP3 SWAP2 SWAP1 DUP2 DUP2 MSTORE PUSH1 0x20 ADD DUP3 DUP1 SLOAD PUSH2 0x3DF SWAP1 PUSH2 0x1409 JUMP JUMPDEST DUP1 ISZERO PUSH2 0x42A JUMPI DUP1 PUSH1 0x1F LT PUSH2 0x401 JUMPI PUSH2 0x100 DUP1 DUP4 SLOAD DIV MUL DUP4 MSTORE SWAP2 PUSH1 0x20 ADD SWAP2 PUSH2 0x42A JUMP JUMPDEST DUP3 ADD SWAP2 SWAP1 PUSH0 MSTORE PUSH1 0x20 PUSH0 KECCAK256 SWAP1 JUMPDEST DUP2 SLOAD DUP2 MSTORE SWAP1 PUSH1 0x1 ADD SWAP1 PUSH1 0x20 ADD DUP1 DUP4 GT PUSH2 0x40D JUMPI DUP3 SWAP1 SUB PUSH1 0x1F AND DUP3 ADD SWAP2 JUMPDEST POP POP POP POP POP DUP2 MSTORE PUSH1 0x20 ADD PUSH1 0x3 DUP3 ADD SLOAD DUP2 MSTORE PUSH1 0x20 ADD PUSH1 0x4 DUP3 ADD SLOAD DUP2 MSTORE POP POP DUP2 MSTORE PUSH1 0x20 ADD SWAP1 PUSH1 0x1 ADD SWAP1 PUSH2 0x324 JUMP JUMPDEST POP POP POP POP SWAP1 POP SWAP2 SWAP1 POP JUMP JUMPDEST DUP1 PUSH1 0x1 PUSH0 DUP5 PUSH20 0xFFFFFFFFFFFFFFFFFFFFFFFFFFFFFFFFFFFFFFFF AND PUSH20 0xFFFFFFFFFFFFFFFFFFFFFFFFFFFFFFFFFFFFFFFF AND DUP2 MSTORE PUSH1 0x20 ADD SWAP1 DUP2 MSTORE PUSH1 0x20 ADD PUSH0 KECCAK256 DUP3 DUP2 SLOAD DUP2 LT PUSH2 0x4B1 JUMPI PUSH2 0x4B0 PUSH2 0x1439 JUMP JUMPDEST JUMPDEST SWAP1 PUSH0 MSTORE PUSH1 0x20 PUSH0 KECCAK256 SWAP1 PUSH1 0x5 MUL ADD PUSH0 ADD SLOAD EQ PUSH2 0x500 JUMPI PUSH1 0x40 MLOAD PUSH32 0x8C379A000000000000000000000000000000000000000000000000000000000 DUP2 MSTORE PUSH1 0x4 ADD PUSH2 0x4F7 SWAP1 PUSH2 0x14B0 JUMP JUMPDEST PUSH1 0x40 MLOAD DUP1 SWAP2 SUB SWAP1 REVERT JUMPDEST PUSH0 PUSH1 0x1 PUSH0 DUP5 PUSH20 0xFFFFFFFFFFFFFFFFFFFFFFFFFFFFFFFFFFFFFFFF AND PUSH20 0xFFFFFFFFFFFFFFFFFFFFFFFFFFFFFFFFFFFFFFFF AND DUP2 MSTORE PUSH1 0x20 ADD SWAP1 DUP2 MSTORE PUSH1 0x20 ADD PUSH0 KECCAK256 DUP3 DUP2 SLOAD DUP2 LT PUSH2 0x550 JUMPI PUSH2 0x54F PUSH2 0x1439 JUMP JUMPDEST JUMPDEST SWAP1 PUSH0 MSTORE PUSH1 0x20 PUSH0 KECCAK256 SWAP1 PUSH1 0x5 MUL ADD PUSH1 0x4 ADD SLOAD GT PUSH2 0x5A0 JUMPI PUSH1 0x40 MLOAD PUSH32 0x8C379A000000000000000000000000000000000000000000000000000000000 DUP2 MSTORE PUSH1 0x4 ADD PUSH2 0x597 SWAP1 PUSH2 0x1518 JUMP JUMPDEST PUSH1 0x40 MLOAD DUP1 SWAP2 SUB SWAP1 REVERT JUMPDEST PUSH1 0x1 PUSH0 DUP4 PUSH20 0xFFFFFFFFFFFFFFFFFFFFFFFFFFFFFFFFFFFFFFFF AND PUSH20 0xFFFFFFFFFFFFFFFFFFFFFFFFFFFFFFFFFFFFFFFF AND DUP2 MSTORE PUSH1 0x20 ADD SWAP1 DUP2 MSTORE PUSH1 0x20 ADD PUSH0 KECCAK256 DUP2 DUP2 SLOAD DUP2 LT PUSH2 0x5EF JUMPI PUSH2 0x5EE PUSH2 0x1439 JUMP JUMPDEST JUMPDEST SWAP1 PUSH0 MSTORE PUSH1 0x20 PUSH0 KECCAK256 SWAP1 PUSH1 0x5 MUL ADD PUSH1 0x4 ADD PUSH0 DUP2 SLOAD DUP1 SWAP3 SWAP2 SWAP1 PUSH2 0x60E SWAP1 PUSH2 0x1563 JUMP JUMPDEST SWAP2 SWAP1 POP SSTORE POP DUP1 DUP3 PUSH20 0xFFFFFFFFFFFFFFFFFFFFFFFFFFFFFFFFFFFFFFFF AND CALLER PUSH20 0xFFFFFFFFFFFFFFFFFFFFFFFFFFFFFFFFFFFFFFFF AND PUSH32 0x762C2616349603AC16EBA0DE8E6141B79129A07AB63BD99E0A80B3A471716943 PUSH1 0x1 PUSH0 DUP8 PUSH20 0xFFFFFFFFFFFFFFFFFFFFFFFFFFFFFFFFFFFFFFFF AND PUSH20 0xFFFFFFFFFFFFFFFFFFFFFFFFFFFFFFFFFFFFFFFF AND DUP2 MSTORE PUSH1 0x20 ADD SWAP1 DUP2 MSTORE PUSH1 0x20 ADD PUSH0 KECCAK256 DUP6 DUP2 SLOAD DUP2 LT PUSH2 0x6B2 JUMPI PUSH2 0x6B1 PUSH2 0x1439 JUMP JUMPDEST JUMPDEST SWAP1 PUSH0 MSTORE PUSH1 0x20 PUSH0 KECCAK256 SWAP1 PUSH1 0x5 MUL ADD PUSH1 0x4 ADD SLOAD PUSH1 0x40 MLOAD PUSH2 0x6CF SWAP2 SWAP1 PUSH2 0x158A JUMP JUMPDEST PUSH1 0x40 MLOAD DUP1 SWAP2 SUB SWAP1 LOG4 POP POP JUMP JUMPDEST PUSH1 0x2 PUSH0 SWAP1 SLOAD SWAP1 PUSH2 0x100 EXP SWAP1 DIV PUSH20 0xFFFFFFFFFFFFFFFFFFFFFFFFFFFFFFFFFFFFFFFF AND PUSH20 0xFFFFFFFFFFFFFFFFFFFFFFFFFFFFFFFFFFFFFFFF AND CALLER PUSH20 0xFFFFFFFFFFFFFFFFFFFFFFFFFFFFFFFFFFFFFFFF AND EQ PUSH2 0x76A JUMPI PUSH1 0x40 MLOAD PUSH32 0x8C379A000000000000000000000000000000000000000000000000000000000 DUP2 MSTORE PUSH1 0x4 ADD PUSH2 0x761 SWAP1 PUSH2 0x15ED JUMP JUMPDEST PUSH1 0x40 MLOAD DUP1 SWAP2 SUB SWAP1 REVERT JUMPDEST DUP1 PUSH0 DUP1 PUSH2 0x100 EXP DUP2 SLOAD DUP2 PUSH2 0xFFFF MUL NOT AND SWAP1 DUP4 PUSH2 0xFFFF AND MUL OR SWAP1 SSTORE POP POP JUMP JUMPDEST DUP1 PUSH1 0x1 PUSH0 DUP5 PUSH20 0xFFFFFFFFFFFFFFFFFFFFFFFFFFFFFFFFFFFFFFFF AND PUSH20 0xFFFFFFFFFFFFFFFFFFFFFFFFFFFFFFFFFFFFFFFF AND DUP2 MSTORE PUSH1 0x20 ADD SWAP1 DUP2 MSTORE PUSH1 0x20 ADD PUSH0 KECCAK256 DUP3 DUP2 SLOAD DUP2 LT PUSH2 0x7D8 JUMPI PUSH2 0x7D7 PUSH2 0x1439 JUMP JUMPDEST JUMPDEST SWAP1 PUSH0 MSTORE PUSH1 0x20 PUSH0 KECCAK256 SWAP1 PUSH1 0x5 MUL ADD PUSH0 ADD SLOAD EQ PUSH2 0x827 JUMPI PUSH1 0x40 MLOAD PUSH32 0x8C379A000000000000000000000000000000000000000000000000000000000 DUP2 MSTORE PUSH1 0x4 ADD PUSH2 0x81E SWAP1 PUSH2 0x14B0 JUMP JUMPDEST PUSH1 0x40 MLOAD DUP1 SWAP2 SUB SWAP1 REVERT JUMPDEST PUSH1 0x1 PUSH0 DUP4 PUSH20 0xFFFFFFFFFFFFFFFFFFFFFFFFFFFFFFFFFFFFFFFF AND PUSH20 0xFFFFFFFFFFFFFFFFFFFFFFFFFFFFFFFFFFFFFFFF AND DUP2 MSTORE PUSH1 0x20 ADD SWAP1 DUP2 MSTORE PUSH1 0x20 ADD PUSH0 KECCAK256 DUP2 DUP2 SLOAD DUP2 LT PUSH2 0x876 JUMPI PUSH2 0x875 PUSH2 0x1439 JUMP JUMPDEST JUMPDEST SWAP1 PUSH0 MSTORE PUSH1 0x20 PUSH0 KECCAK256 SWAP1 PUSH1 0x5 MUL ADD PUSH1 0x4 ADD PUSH0 DUP2 SLOAD DUP1 SWAP3 SWAP2 SWAP1 PUSH2 0x895 SWAP1 PUSH2 0x160B JUMP JUMPDEST SWAP2 SWAP1 POP SSTORE POP DUP1 DUP3 PUSH20 0xFFFFFFFFFFFFFFFFFFFFFFFFFFFFFFFFFFFFFFFF AND CALLER PUSH20 0xFFFFFFFFFFFFFFFFFFFFFFFFFFFFFFFFFFFFFFFF AND PUSH32 0xE8A76FC0F16D11A00D1E93B689B63D76CF60AF914DD3D915375DC41D01A0C3C8 PUSH1 0x1 PUSH0 DUP8 PUSH20 0xFFFFFFFFFFFFFFFFFFFFFFFFFFFFFFFFFFFFFFFF AND PUSH20 0xFFFFFFFFFFFFFFFFFFFFFFFFFFFFFFFFFFFFFFFF AND DUP2 MSTORE PUSH1 0x20 ADD SWAP1 DUP2 MSTORE PUSH1 0x20 ADD PUSH0 KECCAK256 DUP6 DUP2 SLOAD DUP2 LT PUSH2 0x939 JUMPI PUSH2 0x938 PUSH2 0x1439 JUMP JUMPDEST JUMPDEST SWAP1 PUSH0 MSTORE PUSH1 0x20 PUSH0 KECCAK256 SWAP1 PUSH1 0x5 MUL ADD PUSH1 0x4 ADD SLOAD PUSH1 0x40 MLOAD PUSH2 0x956 SWAP2 SWAP1 PUSH2 0x158A JUMP JUMPDEST PUSH1 0x40 MLOAD DUP1 SWAP2 SUB SWAP1 LOG4 POP POP JUMP JUMPDEST PUSH0 DUP1 SLOAD SWAP1 PUSH2 0x100 EXP SWAP1 DIV PUSH2 0xFFFF AND DUP2 JUMP JUMPDEST PUSH0 DUP1 SLOAD SWAP1 PUSH2 0x100 EXP SWAP1 DIV PUSH2 0xFFFF AND PUSH2 0xFFFF AND DUP2 MLOAD GT ISZERO PUSH2 0x9C8 JUMPI PUSH1 0x40 MLOAD PUSH32 0x8C379A000000000000000000000000000000000000000000000000000000000 DUP2 MSTORE PUSH1 0x4 ADD PUSH2 0x9BF SWAP1 PUSH2 0x169C JUMP JUMPDEST PUSH1 0x40 MLOAD DUP1 SWAP2 SUB SWAP1 REVERT JUMPDEST PUSH0 PUSH1 0x40 MLOAD DUP1 PUSH1 0xA0 ADD PUSH1 0x40 MSTORE DUP1 PUSH1 0x1 PUSH0 CALLER PUSH20 0xFFFFFFFFFFFFFFFFFFFFFFFFFFFFFFFFFFFFFFFF AND PUSH20 0xFFFFFFFFFFFFFFFFFFFFFFFFFFFFFFFFFFFFFFFF AND DUP2 MSTORE PUSH1 0x20 ADD SWAP1 DUP2 MSTORE PUSH1 0x20 ADD PUSH0 KECCAK256 DUP1 SLOAD SWAP1 POP DUP2 MSTORE PUSH1 0x20 ADD CALLER PUSH20 0xFFFFFFFFFFFFFFFFFFFFFFFFFFFFFFFFFFFFFFFF AND DUP2 MSTORE PUSH1 0x20 ADD DUP4 DUP2 MSTORE PUSH1 0x20 ADD TIMESTAMP DUP2 MSTORE PUSH1 0x20 ADD PUSH0 DUP2 MSTORE POP SWAP1 POP PUSH1 0x1 PUSH0 CALLER PUSH20 0xFFFFFFFFFFFFFFFFFFFFFFFFFFFFFFFFFFFFFFFF AND PUSH20 0xFFFFFFFFFFFFFFFFFFFFFFFFFFFFFFFFFFFFFFFF AND DUP2 MSTORE PUSH1 0x20 ADD SWAP1 DUP2 MSTORE PUSH1 0x20 ADD PUSH0 KECCAK256 DUP2 SWAP1 DUP1 PUSH1 0x1 DUP2 SLOAD ADD DUP1 DUP3 SSTORE DUP1 SWAP2 POP POP PUSH1 0x1 SWAP1 SUB SWAP1 PUSH0 MSTORE PUSH1 0x20 PUSH0 KECCAK256 SWAP1 PUSH1 0x5 MUL ADD PUSH0 SWAP1 SWAP2 SWAP1 SWAP2 SWAP1 SWAP2 POP PUSH0 DUP3 ADD MLOAD DUP2 PUSH0 ADD SSTORE PUSH1 0x20 DUP3 ADD MLOAD DUP2 PUSH1 0x1 ADD PUSH0 PUSH2 0x100 EXP DUP2 SLOAD DUP2 PUSH20 0xFFFFFFFFFFFFFFFFFFFFFFFFFFFFFFFFFFFFFFFF MUL NOT AND SWAP1 DUP4 PUSH20 0xFFFFFFFFFFFFFFFFFFFFFFFFFFFFFFFFFFFFFFFF AND MUL OR SWAP1 SSTORE POP PUSH1 0x40 DUP3 ADD MLOAD DUP2 PUSH1 0x2 ADD SWAP1 DUP2 PUSH2 0xB0F SWAP2 SWAP1 PUSH2 0x1857 JUMP JUMPDEST POP PUSH1 0x60 DUP3 ADD MLOAD DUP2 PUSH1 0x3 ADD SSTORE PUSH1 0x80 DUP3 ADD MLOAD DUP2 PUSH1 0x4 ADD SSTORE POP POP DUP1 PUSH1 0x20 ADD MLOAD PUSH20 0xFFFFFFFFFFFFFFFFFFFFFFFFFFFFFFFFFFFFFFFF AND DUP2 PUSH0 ADD MLOAD PUSH32 0x16FD3C13E9D46923E0A8BCE11C7B473EC508A72E6C96CD2404B29CE972AFC29E DUP4 PUSH1 0x40 ADD MLOAD DUP5 PUSH1 0x60 ADD MLOAD PUSH1 0x40 MLOAD PUSH2 0xB7E SWAP3 SWAP2 SWAP1 PUSH2 0x1926 JUMP JUMPDEST PUSH1 0x40 MLOAD DUP1 SWAP2 SUB SWAP1 LOG3 POP POP JUMP JUMPDEST PUSH1 0x2 PUSH0 SWAP1 SLOAD SWAP1 PUSH2 0x100 EXP SWAP1 DIV PUSH20 0xFFFFFFFFFFFFFFFFFFFFFFFFFFFFFFFFFFFFFFFF AND DUP2 JUMP JUMPDEST PUSH2 0xBB7 PUSH2 0xD26 JUMP JUMPDEST PUSH1 0x1 PUSH0 CALLER PUSH20 0xFFFFFFFFFFFFFFFFFFFFFFFFFFFFFFFFFFFFFFFF AND PUSH20 0xFFFFFFFFFFFFFFFFFFFFFFFFFFFFFFFFFFFFFFFF AND DUP2 MSTORE PUSH1 0x20 ADD SWAP1 DUP2 MSTORE PUSH1 0x20 ADD PUSH0 KECCAK256 DUP3 DUP2 SLOAD DUP2 LT PUSH2 0xC06 JUMPI PUSH2 0xC05 PUSH2 0x1439 JUMP JUMPDEST JUMPDEST SWAP1 PUSH0 MSTORE PUSH1 0x20 PUSH0 KECCAK256 SWAP1 PUSH1 0x5 MUL ADD PUSH1 0x40 MLOAD DUP1 PUSH1 0xA0 ADD PUSH1 0x40 MSTORE SWAP1 DUP2 PUSH0 DUP3 ADD SLOAD DUP2 MSTORE PUSH1 0x20 ADD PUSH1 0x1 DUP3 ADD PUSH0 SWAP1 SLOAD SWAP1 PUSH2 0x100 EXP SWAP1 DIV PUSH20 0xFFFFFFFFFFFFFFFFFFFFFFFFFFFFFFFFFFFFFFFF AND PUSH20 0xFFFFFFFFFFFFFFFFFFFFFFFFFFFFFFFFFFFFFFFF AND PUSH20 0xFFFFFFFFFFFFFFFFFFFFFFFFFFFFFFFFFFFFFFFF AND DUP2 MSTORE PUSH1 0x20 ADD PUSH1 0x2 DUP3 ADD DUP1 SLOAD PUSH2 0xC8B SWAP1 PUSH2 0x1409 JUMP JUMPDEST DUP1 PUSH1 0x1F ADD PUSH1 0x20 DUP1 SWAP2 DIV MUL PUSH1 0x20 ADD PUSH1 0x40 MLOAD SWAP1 DUP2 ADD PUSH1 0x40 MSTORE DUP1 SWAP3 SWAP2 SWAP1 DUP2 DUP2 MSTORE PUSH1 0x20 ADD DUP3 DUP1 SLOAD PUSH2 0xCB7 SWAP1 PUSH2 0x1409 JUMP JUMPDEST DUP1 ISZERO PUSH2 0xD02 JUMPI DUP1 PUSH1 0x1F LT PUSH2 0xCD9 JUMPI PUSH2 0x100 DUP1 DUP4 SLOAD DIV MUL DUP4 MSTORE SWAP2 PUSH1 0x20 ADD SWAP2 PUSH2 0xD02 JUMP JUMPDEST DUP3 ADD SWAP2 SWAP1 PUSH0 MSTORE PUSH1 0x20 PUSH0 KECCAK256 SWAP1 JUMPDEST DUP2 SLOAD DUP2 MSTORE SWAP1 PUSH1 0x1 ADD SWAP1 PUSH1 0x20 ADD DUP1 DUP4 GT PUSH2 0xCE5 JUMPI DUP3 SWAP1 SUB PUSH1 0x1F AND DUP3 ADD SWAP2 JUMPDEST POP POP POP POP POP DUP2 MSTORE PUSH1 0x20 ADD PUSH1 0x3 DUP3 ADD SLOAD DUP2 MSTORE PUSH1 0x20 ADD PUSH1 0x4 DUP3 ADD SLOAD DUP2 MSTORE POP POP SWAP1 POP SWAP2 SWAP1 POP JUMP JUMPDEST PUSH1 0x40 MLOAD DUP1 PUSH1 0xA0 ADD PUSH1 0x40 MSTORE DUP1 PUSH0 DUP2 MSTORE PUSH1 0x20 ADD PUSH0 PUSH20 0xFFFFFFFFFFFFFFFFFFFFFFFFFFFFFFFFFFFFFFFF AND DUP2 MSTORE PUSH1 0x20 ADD PUSH1 0x60 DUP2 MSTORE PUSH1 0x20 ADD PUSH0 DUP2 MSTORE PUSH1 0x20 ADD PUSH0 DUP2 MSTORE POP SWAP1 JUMP JUMPDEST PUSH0 PUSH1 0x40 MLOAD SWAP1 POP SWAP1 JUMP JUMPDEST PUSH0 DUP1 REVERT JUMPDEST PUSH0 DUP1 REVERT JUMPDEST PUSH0 PUSH20 0xFFFFFFFFFFFFFFFFFFFFFFFFFFFFFFFFFFFFFFFF DUP3 AND SWAP1 POP SWAP2 SWAP1 POP JUMP JUMPDEST PUSH0 PUSH2 0xDA1 DUP3 PUSH2 0xD78 JUMP JUMPDEST SWAP1 POP SWAP2 SWAP1 POP JUMP JUMPDEST PUSH2 0xDB1 DUP2 PUSH2 0xD97 JUMP JUMPDEST DUP2 EQ PUSH2 0xDBB JUMPI PUSH0 DUP1 REVERT JUMPDEST POP JUMP JUMPDEST PUSH0 DUP2 CALLDATALOAD SWAP1 POP PUSH2 0xDCC DUP2 PUSH2 0xDA8 JUMP JUMPDEST SWAP3 SWAP2 POP POP JUMP JUMPDEST PUSH0 DUP2 SWAP1 POP SWAP2 SWAP1 POP JUMP JUMPDEST PUSH2 0xDE4 DUP2 PUSH2 0xDD2 JUMP JUMPDEST DUP2 EQ PUSH2 0xDEE JUMPI PUSH0 DUP1 REVERT JUMPDEST POP JUMP JUMPDEST PUSH0 DUP2 CALLDATALOAD SWAP1 POP PUSH2 0xDFF DUP2 PUSH2 0xDDB JUMP JUMPDEST SWAP3 SWAP2 POP POP JUMP JUMPDEST PUSH0 DUP1 PUSH1 0x40 DUP4 DUP6 SUB SLT ISZERO PUSH2 0xE1B JUMPI PUSH2 0xE1A PUSH2 0xD70 JUMP JUMPDEST JUMPDEST PUSH0 PUSH2 0xE28 DUP6 DUP3 DUP7 ADD PUSH2 0xDBE JUMP JUMPDEST SWAP3 POP POP PUSH1 0x20 PUSH2 0xE39 DUP6 DUP3 DUP7 ADD PUSH2 0xDF1 JUMP JUMPDEST SWAP2 POP POP SWAP3 POP SWAP3 SWAP1 POP JUMP JUMPDEST PUSH2 0xE4C DUP2 PUSH2 0xDD2 JUMP JUMPDEST DUP3 MSTORE POP POP JUMP JUMPDEST PUSH2 0xE5B DUP2 PUSH2 0xD97 JUMP JUMPDEST DUP3 MSTORE POP POP JUMP JUMPDEST PUSH0 DUP2 MLOAD SWAP1 POP SWAP2 SWAP1 POP JUMP JUMPDEST PUSH0 DUP3 DUP3 MSTORE PUSH1 0x20 DUP3 ADD SWAP1 POP SWAP3 SWAP2 POP POP JUMP JUMPDEST DUP3 DUP2 DUP4 MCOPY PUSH0 DUP4 DUP4 ADD MSTORE POP POP POP JUMP JUMPDEST PUSH0 PUSH1 0x1F NOT PUSH1 0x1F DUP4 ADD AND SWAP1 POP SWAP2 SWAP1 POP JUMP JUMPDEST PUSH0 PUSH2 0xEA3 DUP3 PUSH2 0xE61 JUMP JUMPDEST PUSH2 0xEAD DUP2 DUP6 PUSH2 0xE6B JUMP JUMPDEST SWAP4 POP PUSH2 0xEBD DUP2 DUP6 PUSH1 0x20 DUP7 ADD PUSH2 0xE7B JUMP JUMPDEST PUSH2 0xEC6 DUP2 PUSH2 0xE89 JUMP JUMPDEST DUP5 ADD SWAP2 POP POP SWAP3 SWAP2 POP POP JUMP JUMPDEST PUSH0 PUSH1 0xA0 DUP3 ADD SWAP1 POP PUSH2 0xEE4 PUSH0 DUP4 ADD DUP9 PUSH2 0xE43 JUMP JUMPDEST PUSH2 0xEF1 PUSH1 0x20 DUP4 ADD DUP8 PUSH2 0xE52 JUMP JUMPDEST DUP2 DUP2 SUB PUSH1 0x40 DUP4 ADD MSTORE PUSH2 0xF03 DUP2 DUP7 PUSH2 0xE99 JUMP JUMPDEST SWAP1 POP PUSH2 0xF12 PUSH1 0x60 DUP4 ADD DUP6 PUSH2 0xE43 JUMP JUMPDEST PUSH2 0xF1F PUSH1 0x80 DUP4 ADD DUP5 PUSH2 0xE43 JUMP JUMPDEST SWAP7 SWAP6 POP POP POP POP POP POP JUMP JUMPDEST PUSH0 PUSH1 0x20 DUP3 DUP5 SUB SLT ISZERO PUSH2 0xF3E JUMPI PUSH2 0xF3D PUSH2 0xD70 JUMP JUMPDEST JUMPDEST PUSH0 PUSH2 0xF4B DUP5 DUP3 DUP6 ADD PUSH2 0xDBE JUMP JUMPDEST SWAP2 POP POP SWAP3 SWAP2 POP POP JUMP JUMPDEST PUSH0 DUP2 MLOAD SWAP1 POP SWAP2 SWAP1 POP JUMP JUMPDEST PUSH0 DUP3 DUP3 MSTORE PUSH1 0x20 DUP3 ADD SWAP1 POP SWAP3 SWAP2 POP POP JUMP JUMPDEST PUSH0 DUP2 SWAP1 POP PUSH1 0x20 DUP3 ADD SWAP1 POP SWAP2 SWAP1 POP JUMP JUMPDEST PUSH2 0xF86 DUP2 PUSH2 0xDD2 JUMP JUMPDEST DUP3 MSTORE POP POP JUMP JUMPDEST PUSH2 0xF95 DUP2 PUSH2 0xD97 JUMP JUMPDEST DUP3 MSTORE POP POP JUMP JUMPDEST PUSH0 DUP3 DUP3 MSTORE PUSH1 0x20 DUP3 ADD SWAP1 POP SWAP3 SWAP2 POP POP JUMP JUMPDEST PUSH0 PUSH2 0xFB5 DUP3 PUSH2 0xE61 JUMP JUMPDEST PUSH2 0xFBF DUP2 DUP6 PUSH2 0xF9B JUMP JUMPDEST SWAP4 POP PUSH2 0xFCF DUP2 DUP6 PUSH1 0x20 DUP7 ADD PUSH2 0xE7B JUMP JUMPDEST PUSH2 0xFD8 DUP2 PUSH2 0xE89 JUMP JUMPDEST DUP5 ADD SWAP2 POP POP SWAP3 SWAP2 POP POP JUMP JUMPDEST PUSH0 PUSH1 0xA0 DUP4 ADD PUSH0 DUP4 ADD MLOAD PUSH2 0xFF8 PUSH0 DUP7 ADD DUP3 PUSH2 0xF7D JUMP JUMPDEST POP PUSH1 0x20 DUP4 ADD MLOAD PUSH2 0x100B PUSH1 0x20 DUP7 ADD DUP3 PUSH2 0xF8C JUMP JUMPDEST POP PUSH1 0x40 DUP4 ADD MLOAD DUP5 DUP3 SUB PUSH1 0x40 DUP7 ADD MSTORE PUSH2 0x1023 DUP3 DUP3 PUSH2 0xFAB JUMP JUMPDEST SWAP2 POP POP PUSH1 0x60 DUP4 ADD MLOAD PUSH2 0x1038 PUSH1 0x60 DUP7 ADD DUP3 PUSH2 0xF7D JUMP JUMPDEST POP PUSH1 0x80 DUP4 ADD MLOAD PUSH2 0x104B PUSH1 0x80 DUP7 ADD DUP3 PUSH2 0xF7D JUMP JUMPDEST POP DUP1 SWAP2 POP POP SWAP3 SWAP2 POP POP JUMP JUMPDEST PUSH0 PUSH2 0x1061 DUP4 DUP4 PUSH2 0xFE3 JUMP JUMPDEST SWAP1 POP SWAP3 SWAP2 POP POP JUMP JUMPDEST PUSH0 PUSH1 0x20 DUP3 ADD SWAP1 POP SWAP2 SWAP1 POP JUMP JUMPDEST PUSH0 PUSH2 0x107F DUP3 PUSH2 0xF54 JUMP JUMPDEST PUSH2 0x1089 DUP2 DUP6 PUSH2 0xF5E JUMP JUMPDEST SWAP4 POP DUP4 PUSH1 0x20 DUP3 MUL DUP6 ADD PUSH2 0x109B DUP6 PUSH2 0xF6E JUMP JUMPDEST DUP1 PUSH0 JUMPDEST DUP6 DUP2 LT ISZERO PUSH2 0x10D6 JUMPI DUP5 DUP5 SUB DUP10 MSTORE DUP2 MLOAD PUSH2 0x10B7 DUP6 DUP3 PUSH2 0x1056 JUMP JUMPDEST SWAP5 POP PUSH2 0x10C2 DUP4 PUSH2 0x1069 JUMP JUMPDEST SWAP3 POP PUSH1 0x20 DUP11 ADD SWAP10 POP POP PUSH1 0x1 DUP2 ADD SWAP1 POP PUSH2 0x109E JUMP JUMPDEST POP DUP3 SWAP8 POP DUP8 SWAP6 POP POP POP POP POP POP SWAP3 SWAP2 POP POP JUMP JUMPDEST PUSH0 PUSH1 0x20 DUP3 ADD SWAP1 POP DUP2 DUP2 SUB PUSH0 DUP4 ADD MSTORE PUSH2 0x1100 DUP2 DUP5 PUSH2 0x1075 JUMP JUMPDEST SWAP1 POP SWAP3 SWAP2 POP POP JUMP JUMPDEST PUSH0 PUSH2 0xFFFF DUP3 AND SWAP1 POP SWAP2 SWAP1 POP JUMP JUMPDEST PUSH2 0x111E DUP2 PUSH2 0x1108 JUMP JUMPDEST DUP2 EQ PUSH2 0x1128 JUMPI PUSH0 DUP1 REVERT JUMPDEST POP JUMP JUMPDEST PUSH0 DUP2 CALLDATALOAD SWAP1 POP PUSH2 0x1139 DUP2 PUSH2 0x1115 JUMP JUMPDEST SWAP3 SWAP2 POP POP JUMP JUMPDEST PUSH0 PUSH1 0x20 DUP3 DUP5 SUB SLT ISZERO PUSH2 0x1154 JUMPI PUSH2 0x1153 PUSH2 0xD70 JUMP JUMPDEST JUMPDEST PUSH0 PUSH2 0x1161 DUP5 DUP3 DUP6 ADD PUSH2 0x112B JUMP JUMPDEST SWAP2 POP POP SWAP3 SWAP2 POP POP JUMP JUMPDEST PUSH2 0x1173 DUP2 PUSH2 0x1108 JUMP JUMPDEST DUP3 MSTORE POP POP JUMP JUMPDEST PUSH0 PUSH1 0x20 DUP3 ADD SWAP1 POP PUSH2 0x118C PUSH0 DUP4 ADD DUP5 PUSH2 0x116A JUMP JUMPDEST SWAP3 SWAP2 POP POP JUMP JUMPDEST PUSH0 DUP1 REVERT JUMPDEST PUSH0 DUP1 REVERT JUMPDEST PUSH32 0x4E487B7100000000000000000000000000000000000000000000000000000000 PUSH0 MSTORE PUSH1 0x41 PUSH1 0x4 MSTORE PUSH1 0x24 PUSH0 REVERT JUMPDEST PUSH2 0x11D0 DUP3 PUSH2 0xE89 JUMP JUMPDEST DUP2 ADD DUP2 DUP2 LT PUSH8 0xFFFFFFFFFFFFFFFF DUP3 GT OR ISZERO PUSH2 0x11EF JUMPI PUSH2 0x11EE PUSH2 0x119A JUMP JUMPDEST JUMPDEST DUP1 PUSH1 0x40 MSTORE POP POP POP JUMP JUMPDEST PUSH0 PUSH2 0x1201 PUSH2 0xD67 JUMP JUMPDEST SWAP1 POP PUSH2 0x120D DUP3 DUP3 PUSH2 0x11C7 JUMP JUMPDEST SWAP2 SWAP1 POP JUMP JUMPDEST PUSH0 PUSH8 0xFFFFFFFFFFFFFFFF DUP3 GT ISZERO PUSH2 0x122C JUMPI PUSH2 0x122B PUSH2 0x119A JUMP JUMPDEST JUMPDEST PUSH2 0x1235 DUP3 PUSH2 0xE89 JUMP JUMPDEST SWAP1 POP PUSH1 0x20 DUP2 ADD SWAP1 POP SWAP2 SWAP1 POP JUMP JUMPDEST DUP3 DUP2 DUP4 CALLDATACOPY PUSH0 DUP4 DUP4 ADD MSTORE POP POP POP JUMP JUMPDEST PUSH0 PUSH2 0x1262 PUSH2 0x125D DUP5 PUSH2 0x1212 JUMP JUMPDEST PUSH2 0x11F8 JUMP JUMPDEST SWAP1 POP DUP3 DUP2 MSTORE PUSH1 0x20 DUP2 ADD DUP5 DUP5 DUP5 ADD GT ISZERO PUSH2 0x127E JUMPI PUSH2 0x127D PUSH2 0x1196 JUMP JUMPDEST JUMPDEST PUSH2 0x1289 DUP5 DUP3 DUP6 PUSH2 0x1242 JUMP JUMPDEST POP SWAP4 SWAP3 POP POP POP JUMP JUMPDEST PUSH0 DUP3 PUSH1 0x1F DUP4 ADD SLT PUSH2 0x12A5 JUMPI PUSH2 0x12A4 PUSH2 0x1192 JUMP JUMPDEST JUMPDEST DUP2 CALLDATALOAD PUSH2 0x12B5 DUP5 DUP3 PUSH1 0x20 DUP7 ADD PUSH2 0x1250 JUMP JUMPDEST SWAP2 POP POP SWAP3 SWAP2 POP POP JUMP JUMPDEST PUSH0 PUSH1 0x20 DUP3 DUP5 SUB SLT ISZERO PUSH2 0x12D3 JUMPI PUSH2 0x12D2 PUSH2 0xD70 JUMP JUMPDEST JUMPDEST PUSH0 DUP3 ADD CALLDATALOAD PUSH8 0xFFFFFFFFFFFFFFFF DUP2 GT ISZERO PUSH2 0x12F0 JUMPI PUSH2 0x12EF PUSH2 0xD74 JUMP JUMPDEST JUMPDEST PUSH2 0x12FC DUP5 DUP3 DUP6 ADD PUSH2 0x1291 JUMP JUMPDEST SWAP2 POP POP SWAP3 SWAP2 POP POP JUMP JUMPDEST PUSH0 PUSH1 0x20 DUP3 ADD SWAP1 POP PUSH2 0x1318 PUSH0 DUP4 ADD DUP5 PUSH2 0xE52 JUMP JUMPDEST SWAP3 SWAP2 POP POP JUMP JUMPDEST PUSH0 PUSH1 0x20 DUP3 DUP5 SUB SLT ISZERO PUSH2 0x1333 JUMPI PUSH2 0x1332 PUSH2 0xD70 JUMP JUMPDEST JUMPDEST PUSH0 PUSH2 0x1340 DUP5 DUP3 DUP6 ADD PUSH2 0xDF1 JUMP JUMPDEST SWAP2 POP POP SWAP3 SWAP2 POP POP JUMP JUMPDEST PUSH0 PUSH1 0xA0 DUP4 ADD PUSH0 DUP4 ADD MLOAD PUSH2 0x135E PUSH0 DUP7 ADD DUP3 PUSH2 0xF7D JUMP JUMPDEST POP PUSH1 0x20 DUP4 ADD MLOAD PUSH2 0x1371 PUSH1 0x20 DUP7 ADD DUP3 PUSH2 0xF8C JUMP JUMPDEST POP PUSH1 0x40 DUP4 ADD MLOAD DUP5 DUP3 SUB PUSH1 0x40 DUP7 ADD MSTORE PUSH2 0x1389 DUP3 DUP3 PUSH2 0xFAB JUMP JUMPDEST SWAP2 POP POP PUSH1 0x60 DUP4 ADD MLOAD PUSH2 0x139E PUSH1 0x60 DUP7 ADD DUP3 PUSH2 0xF7D JUMP JUMPDEST POP PUSH1 0x80 DUP4 ADD MLOAD PUSH2 0x13B1 PUSH1 0x80 DUP7 ADD DUP3 PUSH2 0xF7D JUMP JUMPDEST POP DUP1 SWAP2 POP POP SWAP3 SWAP2 POP POP JUMP JUMPDEST PUSH0 PUSH1 0x20 DUP3 ADD SWAP1 POP DUP2 DUP2 SUB PUSH0 DUP4 ADD MSTORE PUSH2 0x13D4 DUP2 DUP5 PUSH2 0x1349 JUMP JUMPDEST SWAP1 POP SWAP3 SWAP2 POP POP JUMP JUMPDEST PUSH32 0x4E487B7100000000000000000000000000000000000000000000000000000000 PUSH0 MSTORE PUSH1 0x22 PUSH1 0x4 MSTORE PUSH1 0x24 PUSH0 REVERT JUMPDEST PUSH0 PUSH1 0x2 DUP3 DIV SWAP1 POP PUSH1 0x1 DUP3 AND DUP1 PUSH2 0x1420 JUMPI PUSH1 0x7F DUP3 AND SWAP2 POP JUMPDEST PUSH1 0x20 DUP3 LT DUP2 SUB PUSH2 0x1433 JUMPI PUSH2 0x1432 PUSH2 0x13DC JUMP JUMPDEST JUMPDEST POP SWAP2 SWAP1 POP JUMP JUMPDEST PUSH32 0x4E487B7100000000000000000000000000000000000000000000000000000000 PUSH0 MSTORE PUSH1 0x32 PUSH1 0x4 MSTORE PUSH1 0x24 PUSH0 REVERT JUMPDEST PUSH32 0x547765657420446F6573204E6F74204578697374000000000000000000000000 PUSH0 DUP3 ADD MSTORE POP JUMP JUMPDEST PUSH0 PUSH2 0x149A PUSH1 0x14 DUP4 PUSH2 0xE6B JUMP JUMPDEST SWAP2 POP PUSH2 0x14A5 DUP3 PUSH2 0x1466 JUMP JUMPDEST PUSH1 0x20 DUP3 ADD SWAP1 POP SWAP2 SWAP1 POP JUMP JUMPDEST PUSH0 PUSH1 0x20 DUP3 ADD SWAP1 POP DUP2 DUP2 SUB PUSH0 DUP4 ADD MSTORE PUSH2 0x14C7 DUP2 PUSH2 0x148E JUMP JUMPDEST SWAP1 POP SWAP2 SWAP1 POP JUMP JUMPDEST PUSH32 0x547765657420486173204E6F204C696B65730000000000000000000000000000 PUSH0 DUP3 ADD MSTORE POP JUMP JUMPDEST PUSH0 PUSH2 0x1502 PUSH1 0x12 DUP4 PUSH2 0xE6B JUMP JUMPDEST SWAP2 POP PUSH2 0x150D DUP3 PUSH2 0x14CE JUMP JUMPDEST PUSH1 0x20 DUP3 ADD SWAP1 POP SWAP2 SWAP1 POP JUMP JUMPDEST PUSH0 PUSH1 0x20 DUP3 ADD SWAP1 POP DUP2 DUP2 SUB PUSH0 DUP4 ADD MSTORE PUSH2 0x152F DUP2 PUSH2 0x14F6 JUMP JUMPDEST SWAP1 POP SWAP2 SWAP1 POP JUMP JUMPDEST PUSH32 0x4E487B7100000000000000000000000000000000000000000000000000000000 PUSH0 MSTORE PUSH1 0x11 PUSH1 0x4 MSTORE PUSH1 0x24 PUSH0 REVERT JUMPDEST PUSH0 PUSH2 0x156D DUP3 PUSH2 0xDD2 JUMP JUMPDEST SWAP2 POP PUSH0 DUP3 SUB PUSH2 0x157F JUMPI PUSH2 0x157E PUSH2 0x1536 JUMP JUMPDEST JUMPDEST PUSH1 0x1 DUP3 SUB SWAP1 POP SWAP2 SWAP1 POP JUMP JUMPDEST PUSH0 PUSH1 0x20 DUP3 ADD SWAP1 POP PUSH2 0x159D PUSH0 DUP4 ADD DUP5 PUSH2 0xE43 JUMP JUMPDEST SWAP3 SWAP2 POP POP JUMP JUMPDEST PUSH32 0x596F7520617265206E6F74204F776E6572000000000000000000000000000000 PUSH0 DUP3 ADD MSTORE POP JUMP JUMPDEST PUSH0 PUSH2 0x15D7 PUSH1 0x11 DUP4 PUSH2 0xE6B JUMP JUMPDEST SWAP2 POP PUSH2 0x15E2 DUP3 PUSH2 0x15A3 JUMP JUMPDEST PUSH1 0x20 DUP3 ADD SWAP1 POP SWAP2 SWAP1 POP JUMP JUMPDEST PUSH0 PUSH1 0x20 DUP3 ADD SWAP1 POP DUP2 DUP2 SUB PUSH0 DUP4 ADD MSTORE PUSH2 0x1604 DUP2 PUSH2 0x15CB JUMP JUMPDEST SWAP1 POP SWAP2 SWAP1 POP JUMP JUMPDEST PUSH0 PUSH2 0x1615 DUP3 PUSH2 0xDD2 JUMP JUMPDEST SWAP2 POP PUSH32 0xFFFFFFFFFFFFFFFFFFFFFFFFFFFFFFFFFFFFFFFFFFFFFFFFFFFFFFFFFFFFFFFF DUP3 SUB PUSH2 0x1647 JUMPI PUSH2 0x1646 PUSH2 0x1536 JUMP JUMPDEST JUMPDEST PUSH1 0x1 DUP3 ADD SWAP1 POP SWAP2 SWAP1 POP JUMP JUMPDEST PUSH32 0x547765657420697320746F6F206C6F6E67210000000000000000000000000000 PUSH0 DUP3 ADD MSTORE POP JUMP JUMPDEST PUSH0 PUSH2 0x1686 PUSH1 0x12 DUP4 PUSH2 0xE6B JUMP JUMPDEST SWAP2 POP PUSH2 0x1691 DUP3 PUSH2 0x1652 JUMP JUMPDEST PUSH1 0x20 DUP3 ADD SWAP1 POP SWAP2 SWAP1 POP JUMP JUMPDEST PUSH0 PUSH1 0x20 DUP3 ADD SWAP1 POP DUP2 DUP2 SUB PUSH0 DUP4 ADD MSTORE PUSH2 0x16B3 DUP2 PUSH2 0x167A JUMP JUMPDEST SWAP1 POP SWAP2 SWAP1 POP JUMP JUMPDEST PUSH0 DUP2 SWAP1 POP DUP2 PUSH0 MSTORE PUSH1 0x20 PUSH0 KECCAK256 SWAP1 POP SWAP2 SWAP1 POP JUMP JUMPDEST PUSH0 PUSH1 0x20 PUSH1 0x1F DUP4 ADD DIV SWAP1 POP SWAP2 SWAP1 POP JUMP JUMPDEST PUSH0 DUP3 DUP3 SHL SWAP1 POP SWAP3 SWAP2 POP POP JUMP JUMPDEST PUSH0 PUSH1 0x8 DUP4 MUL PUSH2 0x1716 PUSH32 0xFFFFFFFFFFFFFFFFFFFFFFFFFFFFFFFFFFFFFFFFFFFFFFFFFFFFFFFFFFFFFFFF DUP3 PUSH2 0x16DB JUMP JUMPDEST PUSH2 0x1720 DUP7 DUP4 PUSH2 0x16DB JUMP JUMPDEST SWAP6 POP DUP1 NOT DUP5 AND SWAP4 POP DUP1 DUP7 AND DUP5 OR SWAP3 POP POP POP SWAP4 SWAP3 POP POP POP JUMP JUMPDEST PUSH0 DUP2 SWAP1 POP SWAP2 SWAP1 POP JUMP JUMPDEST PUSH0 PUSH2 0x175B PUSH2 0x1756 PUSH2 0x1751 DUP5 PUSH2 0xDD2 JUMP JUMPDEST PUSH2 0x1738 JUMP JUMPDEST PUSH2 0xDD2 JUMP JUMPDEST SWAP1 POP SWAP2 SWAP1 POP JUMP JUMPDEST PUSH0 DUP2 SWAP1 POP SWAP2 SWAP1 POP JUMP JUMPDEST PUSH2 0x1774 DUP4 PUSH2 0x1741 JUMP JUMPDEST PUSH2 0x1788 PUSH2 0x1780 DUP3 PUSH2 0x1762 JUMP JUMPDEST DUP5 DUP5 SLOAD PUSH2 0x16E7 JUMP JUMPDEST DUP3 SSTORE POP POP POP POP JUMP JUMPDEST PUSH0 SWAP1 JUMP JUMPDEST PUSH2 0x179C PUSH2 0x1790 JUMP JUMPDEST PUSH2 0x17A7 DUP2 DUP5 DUP5 PUSH2 0x176B JUMP JUMPDEST POP POP POP JUMP JUMPDEST JUMPDEST DUP2 DUP2 LT ISZERO PUSH2 0x17CA JUMPI PUSH2 0x17BF PUSH0 DUP3 PUSH2 0x1794 JUMP JUMPDEST PUSH1 0x1 DUP2 ADD SWAP1 POP PUSH2 0x17AD JUMP JUMPDEST POP POP JUMP JUMPDEST PUSH1 0x1F DUP3 GT ISZERO PUSH2 0x180F JUMPI PUSH2 0x17E0 DUP2 PUSH2 0x16BA JUMP JUMPDEST PUSH2 0x17E9 DUP5 PUSH2 0x16CC JUMP JUMPDEST DUP2 ADD PUSH1 0x20 DUP6 LT ISZERO PUSH2 0x17F8 JUMPI DUP2 SWAP1 POP JUMPDEST PUSH2 0x180C PUSH2 0x1804 DUP6 PUSH2 0x16CC JUMP JUMPDEST DUP4 ADD DUP3 PUSH2 0x17AC JUMP JUMPDEST POP POP JUMPDEST POP POP POP JUMP JUMPDEST PUSH0 DUP3 DUP3 SHR SWAP1 POP SWAP3 SWAP2 POP POP JUMP JUMPDEST PUSH0 PUSH2 0x182F PUSH0 NOT DUP5 PUSH1 0x8 MUL PUSH2 0x1814 JUMP JUMPDEST NOT DUP1 DUP4 AND SWAP2 POP POP SWAP3 SWAP2 POP POP JUMP JUMPDEST PUSH0 PUSH2 0x1847 DUP4 DUP4 PUSH2 0x1820 JUMP JUMPDEST SWAP2 POP DUP3 PUSH1 0x2 MUL DUP3 OR SWAP1 POP SWAP3 SWAP2 POP POP JUMP JUMPDEST PUSH2 0x1860 DUP3 PUSH2 0xE61 JUMP JUMPDEST PUSH8 0xFFFFFFFFFFFFFFFF DUP2 GT ISZERO PUSH2 0x1879 JUMPI PUSH2 0x1878 PUSH2 0x119A JUMP JUMPDEST JUMPDEST PUSH2 0x1883 DUP3 SLOAD PUSH2 0x1409 JUMP JUMPDEST PUSH2 0x188E DUP3 DUP3 DUP6 PUSH2 0x17CE JUMP JUMPDEST PUSH0 PUSH1 0x20 SWAP1 POP PUSH1 0x1F DUP4 GT PUSH1 0x1 DUP2 EQ PUSH2 0x18BF JUMPI PUSH0 DUP5 ISZERO PUSH2 0x18AD JUMPI DUP3 DUP8 ADD MLOAD SWAP1 POP JUMPDEST PUSH2 0x18B7 DUP6 DUP3 PUSH2 0x183C JUMP JUMPDEST DUP7 SSTORE POP PUSH2 0x191E JUMP JUMPDEST PUSH1 0x1F NOT DUP5 AND PUSH2 0x18CD DUP7 PUSH2 0x16BA JUMP JUMPDEST PUSH0 JUMPDEST DUP3 DUP2 LT ISZERO PUSH2 0x18F4 JUMPI DUP5 DUP10 ADD MLOAD DUP3 SSTORE PUSH1 0x1 DUP3 ADD SWAP2 POP PUSH1 0x20 DUP6 ADD SWAP5 POP PUSH1 0x20 DUP2 ADD SWAP1 POP PUSH2 0x18CF JUMP JUMPDEST DUP7 DUP4 LT ISZERO PUSH2 0x1911 JUMPI DUP5 DUP10 ADD MLOAD PUSH2 0x190D PUSH1 0x1F DUP10 AND DUP3 PUSH2 0x1820 JUMP JUMPDEST DUP4 SSTORE POP JUMPDEST PUSH1 0x1 PUSH1 0x2 DUP9 MUL ADD DUP9 SSTORE POP POP POP JUMPDEST POP POP POP POP POP POP JUMP JUMPDEST PUSH0 PUSH1 0x40 DUP3 ADD SWAP1 POP DUP2 DUP2 SUB PUSH0 DUP4 ADD MSTORE PUSH2 0x193E DUP2 DUP6 PUSH2 0xE99 JUMP JUMPDEST SWAP1 POP PUSH2 0x194D PUSH1 0x20 DUP4 ADD DUP5 PUSH2 0xE43 JUMP JUMPDEST SWAP4 SWAP3 POP POP POP JUMP INVALID LOG2 PUSH5 0x6970667358 0x22 SLT KECCAK256 MCOPY 0xC3 CHAINID PUSH18 0x676061F06223A4D1001932D44B7E2406AAC4 0xC7 RETURNDATACOPY SSTORE PUSH15 0xAEBFAB2504CF64736F6C634300081A STOP CALLER "
				},
				"gasEstimates": {
					"creation": {
						"codeDepositCost": "1307600",
						"executionCost": "49892",
						"totalCost": "1357492"
					},
					"external": {
						"MAX_TWEET_LENGTH()": "2485",
						"changeTweetLength(uint16)": "26909",
						"createTweet(string)": "infinite",
						"getAllTweets(address)": "infinite",
						"getTweet(uint256)": "infinite",
						"likeTweet(address,uint256)": "infinite",
						"owner()": "2574",
						"tweets(address,uint256)": "infinite",
						"unlikeTweet(address,uint256)": "infinite"
					}
				},
				"methodIdentifiers": {
					"MAX_TWEET_LENGTH()": "6eb10797",
					"changeTweetLength(uint16)": "58bfa4ab",
					"createTweet(string)": "7c9cd2bc",
					"getAllTweets(address)": "12e7ee1c",
					"getTweet(uint256)": "c3ad5ecb",
					"likeTweet(address,uint256)": "63378216",
					"owner()": "8da5cb5b",
					"tweets(address,uint256)": "05a1b4a9",
					"unlikeTweet(address,uint256)": "3d9b569f"
				}
			},
			"storageLayout": {
				"storage": [
					{
						"astId": 4,
						"contract": "contracts/Twitter.sol:Twitter",
						"label": "MAX_TWEET_LENGTH",
						"offset": 0,
						"slot": "0",
						"type": "t_uint16"
					},
					{
						"astId": 21,
						"contract": "contracts/Twitter.sol:Twitter",
						"label": "tweets",
						"offset": 0,
						"slot": "1",
						"type": "t_mapping(t_address,t_array(t_struct(Tweet)15_storage)dyn_storage)"
					},
					{
						"astId": 23,
						"contract": "contracts/Twitter.sol:Twitter",
						"label": "owner",
						"offset": 0,
						"slot": "2",
						"type": "t_address"
					}
				],
				"types": {
					"t_address": {
						"encoding": "inplace",
						"label": "address",
						"numberOfBytes": "20"
					},
					"t_array(t_struct(Tweet)15_storage)dyn_storage": {
						"base": "t_struct(Tweet)15_storage",
						"encoding": "dynamic_array",
						"label": "struct Twitter.Tweet[]",
						"numberOfBytes": "32"
					},
					"t_mapping(t_address,t_array(t_struct(Tweet)15_storage)dyn_storage)": {
						"encoding": "mapping",
						"key": "t_address",
						"label": "mapping(address => struct Twitter.Tweet[])",
						"numberOfBytes": "32",
						"value": "t_array(t_struct(Tweet)15_storage)dyn_storage"
					},
					"t_string_storage": {
						"encoding": "bytes",
						"label": "string",
						"numberOfBytes": "32"
					},
					"t_struct(Tweet)15_storage": {
						"encoding": "inplace",
						"label": "struct Twitter.Tweet",
						"members": [
							{
								"astId": 6,
								"contract": "contracts/Twitter.sol:Twitter",
								"label": "id",
								"offset": 0,
								"slot": "0",
								"type": "t_uint256"
							},
							{
								"astId": 8,
								"contract": "contracts/Twitter.sol:Twitter",
								"label": "author",
								"offset": 0,
								"slot": "1",
								"type": "t_address"
							},
							{
								"astId": 10,
								"contract": "contracts/Twitter.sol:Twitter",
								"label": "content",
								"offset": 0,
								"slot": "2",
								"type": "t_string_storage"
							},
							{
								"astId": 12,
								"contract": "contracts/Twitter.sol:Twitter",
								"label": "timestamp",
								"offset": 0,
								"slot": "3",
								"type": "t_uint256"
							},
							{
								"astId": 14,
								"contract": "contracts/Twitter.sol:Twitter",
								"label": "likes",
								"offset": 0,
								"slot": "4",
								"type": "t_uint256"
							}
						],
						"numberOfBytes": "160"
					},
					"t_uint16": {
						"encoding": "inplace",
						"label": "uint16",
						"numberOfBytes": "2"
					},
					"t_uint256": {
						"encoding": "inplace",
						"label": "uint256",
						"numberOfBytes": "32"
					}
				}
			},
			"userdoc": {
				"kind": "user",
				"methods": {},
				"version": 1
			}
		}
	}
}